{
  "contractName": "EmissionFunds",
  "abi": [
    {
      "constant": true,
      "inputs": [],
      "name": "votingToManageEmissionFunds",
      "outputs": [
        {
          "name": "",
          "type": "address"
        }
      ],
      "payable": false,
      "stateMutability": "view",
      "type": "function"
    },
    {
      "inputs": [
        {
          "name": "_votingToManageEmissionFunds",
          "type": "address"
        }
      ],
      "payable": false,
      "stateMutability": "nonpayable",
      "type": "constructor"
    },
    {
      "payable": true,
      "stateMutability": "payable",
      "type": "fallback"
    },
    {
      "anonymous": false,
      "inputs": [
        {
          "indexed": true,
          "name": "receiver",
          "type": "address"
        },
        {
          "indexed": false,
          "name": "caller",
          "type": "address"
        },
        {
          "indexed": false,
          "name": "amount",
          "type": "uint256"
        },
        {
          "indexed": true,
          "name": "success",
          "type": "bool"
        }
      ],
      "name": "FundsSentTo",
      "type": "event"
    },
    {
      "anonymous": false,
      "inputs": [
        {
          "indexed": false,
          "name": "caller",
          "type": "address"
        },
        {
          "indexed": false,
          "name": "amount",
          "type": "uint256"
        },
        {
          "indexed": true,
          "name": "success",
          "type": "bool"
        }
      ],
      "name": "FundsBurnt",
      "type": "event"
    },
    {
      "anonymous": false,
      "inputs": [
        {
          "indexed": false,
          "name": "caller",
          "type": "address"
        },
        {
          "indexed": false,
          "name": "amount",
          "type": "uint256"
        }
      ],
      "name": "FundsFrozen",
      "type": "event"
    },
    {
      "constant": false,
      "inputs": [
        {
          "name": "_receiver",
          "type": "address"
        },
        {
          "name": "_amount",
          "type": "uint256"
        }
      ],
      "name": "sendFundsTo",
      "outputs": [
        {
          "name": "",
          "type": "bool"
        }
      ],
      "payable": false,
      "stateMutability": "nonpayable",
      "type": "function"
    },
    {
      "constant": false,
      "inputs": [
        {
          "name": "_amount",
          "type": "uint256"
        }
      ],
      "name": "burnFunds",
      "outputs": [
        {
          "name": "",
          "type": "bool"
        }
      ],
      "payable": false,
      "stateMutability": "nonpayable",
      "type": "function"
    },
    {
      "constant": false,
      "inputs": [
        {
          "name": "_amount",
          "type": "uint256"
        }
      ],
      "name": "freezeFunds",
      "outputs": [],
      "payable": false,
      "stateMutability": "nonpayable",
      "type": "function"
    }
  ],
  "bytecode": "0x608060405234801561001057600080fd5b506040516020806103138339810160405251600160a060020a038116151561003757600080fd5b60008054600160a060020a03909216600160a060020a03199092169190911790556102ac806100676000396000f3006080604052600436106100615763ffffffff7c01000000000000000000000000000000000000000000000000000000006000350416630cd1812f81146100635780631995333b1461009b57806340b7cd3f146100b3578063b26c8ff5146100cb575b005b34801561006f57600080fd5b50610087600160a060020a03600435166024356100fc565b604080519115158252519081900360200190f35b3480156100a757600080fd5b506100876004356101a1565b3480156100bf57600080fd5b5061006160043561021c565b3480156100d757600080fd5b506100e0610271565b60408051600160a060020a039092168252519081900360200190f35b600080548190600160a060020a0316331461011657600080fd5b6044361015610128576000915061019a565b604051600160a060020a0385169084156108fc029085906000818181858888f160408051338152602081018a905281519297508715159650600160a060020a038b1695507f54e055e5b3ac3be6694426a1f1f1f26a2e586337ee9592657f6b0f373b0806ed9450829003019150a38091505b5092915050565b600080548190600160a060020a031633146101bb57600080fd5b60405160009084156108fc0290859083818181858288f160408051338152602081018a9052815192975087151596507f733e8f38c94e9d04690b6b5890ee94fd939f3061c84bfdc9ff7df11163fda86095508290030192509050a292915050565b600054600160a060020a0316331461023357600080fd5b604080513381526020810183905281517f87bd35dd5213917fa3c4bc2cf1e339f2266264ea12945571c332c3ccd0f6b194929181900390910190a150565b600054600160a060020a0316815600a165627a7a723058203d87460a673f470484e27102539d14fe96dae7a8c42d6717e2c068afb4ad60c50029",
  "source": "pragma solidity ^0.4.24;\n\nimport \"./interfaces/IEmissionFunds.sol\";\n\n\ncontract EmissionFunds is IEmissionFunds {\n    address public votingToManageEmissionFunds;\n\n    event FundsSentTo(\n        address indexed receiver,\n        address caller,\n        uint256 amount,\n        bool indexed success\n    );\n    \n    event FundsBurnt(\n        address caller,\n        uint256 amount,\n        bool indexed success\n    );\n\n    event FundsFrozen(\n        address caller,\n        uint256 amount\n    );\n\n    modifier onlyVotingToManageEmissionFunds() {\n        require(msg.sender == votingToManageEmissionFunds);\n        _;\n    }\n\n    constructor(address _votingToManageEmissionFunds) public {\n        require(_votingToManageEmissionFunds != address(0));\n        votingToManageEmissionFunds = _votingToManageEmissionFunds;\n    }\n\n    function() external payable {} // solhint-disable-line no-empty-blocks\n\n    function sendFundsTo(address _receiver, uint256 _amount)\n        external\n        onlyVotingToManageEmissionFunds\n        returns(bool)\n    {\n        if (msg.data.length < 32*2 + 4) return false;\n        // using `send` instead of `transfer` to avoid revert on failure\n        bool success = _receiver.send(_amount);\n        // solhint-disable avoid-tx-origin\n        emit FundsSentTo(_receiver, msg.sender, _amount, success);\n        // solhint-enable avoid-tx-origin\n        return success;\n    }\n\n    function burnFunds(uint256 _amount)\n        external\n        onlyVotingToManageEmissionFunds\n        returns(bool)\n    {\n        // using `send` instead of `transfer` to avoid revert on failure\n        bool success = address(0).send(_amount);\n        // solhint-disable avoid-tx-origin\n        emit FundsBurnt(msg.sender, _amount, success);\n        // solhint-enable avoid-tx-origin\n        return success;\n    }\n\n    function freezeFunds(uint256 _amount)\n        external\n        onlyVotingToManageEmissionFunds\n    {\n        // solhint-disable avoid-tx-origin\n        emit FundsFrozen(msg.sender, _amount);\n        // solhint-enable avoid-tx-origin\n    }\n}\n",
  "sourcePath": "/Users/gabrielfournier1/Documents/POA_Network/building-network-open-eth/poco-deployement-rebase/repo-deployement-github-etc/poa-network-consensus-contracts/contracts/EmissionFunds.sol",
  "compiler": {
    "name": "solc",
    "version": "0.4.26+commit.4563c3fc.Emscripten.clang"
  },
  "schemaVersion": "2.0.3",
  "updatedAt": "2022-06-10T07:17:16.194Z"
}