{
  "contractName": "PoaNetworkConsensus",
  "abi": [
    {
      "constant": true,
      "inputs": [
        {
          "name": "",
          "type": "uint256"
        }
      ],
      "name": "pendingList",
      "outputs": [
        {
          "name": "",
          "type": "address"
        }
      ],
      "payable": false,
      "stateMutability": "view",
      "type": "function"
    },
    {
      "constant": true,
      "inputs": [
        {
          "name": "",
          "type": "address"
        }
      ],
      "name": "validatorsState",
      "outputs": [
        {
          "name": "isValidator",
          "type": "bool"
        },
        {
          "name": "isValidatorFinalized",
          "type": "bool"
        },
        {
          "name": "index",
          "type": "uint256"
        }
      ],
      "payable": false,
      "stateMutability": "view",
      "type": "function"
    },
    {
      "constant": true,
      "inputs": [
        {
          "name": "",
          "type": "uint256"
        }
      ],
      "name": "currentValidators",
      "outputs": [
        {
          "name": "",
          "type": "address"
        }
      ],
      "payable": false,
      "stateMutability": "view",
      "type": "function"
    },
    {
      "constant": true,
      "inputs": [],
      "name": "wasProxyStorageSet",
      "outputs": [
        {
          "name": "",
          "type": "bool"
        }
      ],
      "payable": false,
      "stateMutability": "view",
      "type": "function"
    },
    {
      "constant": true,
      "inputs": [],
      "name": "proxyStorage",
      "outputs": [
        {
          "name": "",
          "type": "address"
        }
      ],
      "payable": false,
      "stateMutability": "view",
      "type": "function"
    },
    {
      "constant": true,
      "inputs": [],
      "name": "finalized",
      "outputs": [
        {
          "name": "",
          "type": "bool"
        }
      ],
      "payable": false,
      "stateMutability": "view",
      "type": "function"
    },
    {
      "constant": true,
      "inputs": [],
      "name": "systemAddress",
      "outputs": [
        {
          "name": "",
          "type": "address"
        }
      ],
      "payable": false,
      "stateMutability": "view",
      "type": "function"
    },
    {
      "inputs": [
        {
          "name": "_masterOfCeremony",
          "type": "address"
        },
        {
          "name": "validators",
          "type": "address[]"
        }
      ],
      "payable": false,
      "stateMutability": "nonpayable",
      "type": "constructor"
    },
    {
      "anonymous": false,
      "inputs": [
        {
          "indexed": true,
          "name": "parentHash",
          "type": "bytes32"
        },
        {
          "indexed": false,
          "name": "newSet",
          "type": "address[]"
        }
      ],
      "name": "InitiateChange",
      "type": "event"
    },
    {
      "anonymous": false,
      "inputs": [
        {
          "indexed": false,
          "name": "newSet",
          "type": "address[]"
        }
      ],
      "name": "ChangeFinalized",
      "type": "event"
    },
    {
      "anonymous": false,
      "inputs": [
        {
          "indexed": false,
          "name": "proxyStorage",
          "type": "address"
        }
      ],
      "name": "MoCInitializedProxyStorage",
      "type": "event"
    },
    {
      "constant": true,
      "inputs": [],
      "name": "isMasterOfCeremonyRemoved",
      "outputs": [
        {
          "name": "",
          "type": "bool"
        }
      ],
      "payable": false,
      "stateMutability": "view",
      "type": "function"
    },
    {
      "constant": true,
      "inputs": [],
      "name": "isMasterOfCeremonyRemovedPending",
      "outputs": [
        {
          "name": "",
          "type": "bool"
        }
      ],
      "payable": false,
      "stateMutability": "view",
      "type": "function"
    },
    {
      "constant": true,
      "inputs": [],
      "name": "masterOfCeremony",
      "outputs": [
        {
          "name": "",
          "type": "address"
        }
      ],
      "payable": false,
      "stateMutability": "view",
      "type": "function"
    },
    {
      "constant": true,
      "inputs": [],
      "name": "masterOfCeremonyPending",
      "outputs": [
        {
          "name": "",
          "type": "address"
        }
      ],
      "payable": false,
      "stateMutability": "view",
      "type": "function"
    },
    {
      "constant": true,
      "inputs": [],
      "name": "getValidators",
      "outputs": [
        {
          "name": "",
          "type": "address[]"
        }
      ],
      "payable": false,
      "stateMutability": "view",
      "type": "function"
    },
    {
      "constant": true,
      "inputs": [],
      "name": "getPendingList",
      "outputs": [
        {
          "name": "",
          "type": "address[]"
        }
      ],
      "payable": false,
      "stateMutability": "view",
      "type": "function"
    },
    {
      "constant": false,
      "inputs": [],
      "name": "finalizeChange",
      "outputs": [],
      "payable": false,
      "stateMutability": "nonpayable",
      "type": "function"
    },
    {
      "constant": false,
      "inputs": [
        {
          "name": "_validator",
          "type": "address"
        },
        {
          "name": "_shouldFireEvent",
          "type": "bool"
        }
      ],
      "name": "addValidator",
      "outputs": [
        {
          "name": "",
          "type": "bool"
        }
      ],
      "payable": false,
      "stateMutability": "nonpayable",
      "type": "function"
    },
    {
      "constant": false,
      "inputs": [
        {
          "name": "_validator",
          "type": "address"
        },
        {
          "name": "_shouldFireEvent",
          "type": "bool"
        }
      ],
      "name": "removeValidator",
      "outputs": [
        {
          "name": "",
          "type": "bool"
        }
      ],
      "payable": false,
      "stateMutability": "nonpayable",
      "type": "function"
    },
    {
      "constant": false,
      "inputs": [
        {
          "name": "_newKey",
          "type": "address"
        },
        {
          "name": "_oldKey",
          "type": "address"
        }
      ],
      "name": "swapValidatorKey",
      "outputs": [
        {
          "name": "",
          "type": "bool"
        }
      ],
      "payable": false,
      "stateMutability": "nonpayable",
      "type": "function"
    },
    {
      "constant": false,
      "inputs": [
        {
          "name": "_newAddress",
          "type": "address"
        }
      ],
      "name": "setProxyStorage",
      "outputs": [],
      "payable": false,
      "stateMutability": "nonpayable",
      "type": "function"
    },
    {
      "constant": true,
      "inputs": [
        {
          "name": "_someone",
          "type": "address"
        }
      ],
      "name": "isValidator",
      "outputs": [
        {
          "name": "",
          "type": "bool"
        }
      ],
      "payable": false,
      "stateMutability": "view",
      "type": "function"
    },
    {
      "constant": true,
      "inputs": [
        {
          "name": "_someone",
          "type": "address"
        }
      ],
      "name": "isValidatorFinalized",
      "outputs": [
        {
          "name": "",
          "type": "bool"
        }
      ],
      "payable": false,
      "stateMutability": "view",
      "type": "function"
    },
    {
      "constant": true,
      "inputs": [],
      "name": "getKeysManager",
      "outputs": [
        {
          "name": "",
          "type": "address"
        }
      ],
      "payable": false,
      "stateMutability": "view",
      "type": "function"
    },
    {
      "constant": true,
      "inputs": [],
      "name": "getCurrentValidatorsLength",
      "outputs": [
        {
          "name": "",
          "type": "uint256"
        }
      ],
      "payable": false,
      "stateMutability": "view",
      "type": "function"
    },
    {
      "constant": true,
      "inputs": [],
      "name": "getCurrentValidatorsLengthWithoutMoC",
      "outputs": [
        {
          "name": "",
          "type": "uint256"
        }
      ],
      "payable": false,
      "stateMutability": "view",
      "type": "function"
    }
  ],
  "bytecode": "0x608060405260018054600160a060020a031916600260a060020a031790556007805460a060020a63ffffffff02191690553480156200003d57600080fd5b506040516200146438038062001464833981016040528051602082015190910160008080600160a060020a03851615156200007757600080fd5b60058054600160a060020a031916600160a060020a0387169081179091556040805160208101909152908152620000b39060029060016200025a565b50600092505b83518310156200014f578351600090859085908110620000d557fe5b60209081029091010151600160a060020a03161415620000f457600080fd5b600284848151811015156200010557fe5b6020908102919091018101518254600180820185556000948552929093209092018054600160a060020a031916600160a060020a03909316929092179091559290920191620000b9565b600091505b6002548210156200020b5760028054839081106200016e57fe5b600091825260209091200154600160a060020a0316905062000199816401000000006200023c810204565b15620001a457600080fd5b6040805160608101825260018082526020808301828152838501878152600160a060020a038716600090815260049093529490912092518354915115156101000261ff001991151560ff199093169290921716178255915190820155919091019062000154565b600280546200021d91600391620002c4565b505060078054600160a060020a03191633179055506200033192505050565b600160a060020a031660009081526004602052604090205460ff1690565b828054828255906000526020600020908101928215620002b2579160200282015b82811115620002b25782518254600160a060020a031916600160a060020a039091161782556020909201916001909101906200027b565b50620002c092915062000307565b5090565b828054828255906000526020600020908101928215620002b25760005260206000209182015b82811115620002b2578254825591600101919060010190620002ea565b6200032e91905b80821115620002c0578054600160a060020a03191681556001016200030e565b90565b61112380620003416000396000f3006080604052600436106101325763ffffffff7c010000000000000000000000000000000000000000000000000000000060003504166303aca79281146101375780630eaba26a1461016b578063108552691461019257806321a3fb85146101b5578063273cb593146101ef578063379fed9a146102045780634110a4891461021957806345199e0a1461025a57806375286211146102bf578063879736b2146102d45780638f2eabe1146102fb578063900eb5a81461031c5780639a57378614610334578063a5f8b87414610349578063a87563371461035e578063ae4b1b5b14610373578063b3f05b9714610388578063b7ab4db51461039d578063d3e848f1146103b2578063ec7de1e9146103c7578063f89a77b1146103dc578063fa81b20014610402578063facd743b14610417575b600080fd5b34801561014357600080fd5b5061014f600435610438565b60408051600160a060020a039092168252519081900360200190f35b34801561017757600080fd5b50610180610460565b60408051918252519081900360200190f35b34801561019e57600080fd5b506101b3600160a060020a0360043516610467565b005b3480156101c157600080fd5b506101db600160a060020a0360043516602435151561059f565b604080519115158252519081900360200190f35b3480156101fb57600080fd5b506101db6105e7565b34801561021057600080fd5b506101db610609565b34801561022557600080fd5b5061023a600160a060020a036004351661062a565b604080519315158452911515602084015282820152519081900360600190f35b34801561026657600080fd5b5061026f610650565b60408051602080825283518183015283519192839290830191858101910280838360005b838110156102ab578181015183820152602001610293565b505050509050019250505060405180910390f35b3480156102cb57600080fd5b506101b36106b2565b3480156102e057600080fd5b506101db600160a060020a03600435811690602435166108eb565b34801561030757600080fd5b506101db600160a060020a0360043516610a18565b34801561032857600080fd5b5061014f600435610a4f565b34801561034057600080fd5b5061014f610a5d565b34801561035557600080fd5b506101db610afb565b34801561036a57600080fd5b50610180610b1f565b34801561037f57600080fd5b5061014f610b6a565b34801561039457600080fd5b506101db610b79565b3480156103a957600080fd5b5061026f610b9c565b3480156103be57600080fd5b5061014f610bfc565b3480156103d357600080fd5b5061014f610c0b565b3480156103e857600080fd5b506101db600160a060020a03600435166024351515610c1a565b34801561040e57600080fd5b5061014f610c50565b34801561042357600080fd5b506101db600160a060020a0360043516610c5f565b600380548290811061044657fe5b600091825260209091200154600160a060020a0316905081565b6002545b90565b600554600160a060020a03163314801561049c575060075474010000000000000000000000000000000000000000900460ff16155b806104b15750600754600160a060020a031633145b15156104bc57600080fd5b60075477010000000000000000000000000000000000000000000000900460ff16156104e757600080fd5b600160a060020a03811615156104fc57600080fd5b60008054600160a060020a0380841673ffffffffffffffffffffffffffffffffffffffff1990921691909117918290556007805477ff000000000000000000000000000000000000000000000019167701000000000000000000000000000000000000000000000017905560408051929091168252517f600bcf04a13e752d1e3670a5a9f1c21177ca2a93c6f5391d4f1298d098097c229181900360200190a150565b60006105a9610a5d565b600160a060020a031633146105bd57600080fd5b6105c683610c81565b156105dd576105d58383610cb9565b5060016105e1565b5060005b92915050565b6007547501000000000000000000000000000000000000000000900460ff1690565b60075474010000000000000000000000000000000000000000900460ff1690565b6004602052600090815260409020805460019091015460ff808316926101009004169083565b606060038054806020026020016040519081016040528092919081815260200182805480156106a857602002820191906000526020600020905b8154600160a060020a0316815260019091019060200180831161068a575b5050505050905090565b6001546000908190600160a060020a0316331480156106ee5750600754760100000000000000000000000000000000000000000000900460ff16155b15156106f957600080fd5b6007805476ff000000000000000000000000000000000000000000001916760100000000000000000000000000000000000000000000179055600091505b6003548210156107a5576004600060038481548110151561075457fe5b6000918252602080832090910154600160a060020a031683528201929092526040019020805490915060ff61010090910416151561079a57805461ff0019166101001781555b600190910190610737565b600380546107b591600291611033565b50600654600160a060020a0316156107fa57600680546005805473ffffffffffffffffffffffffffffffffffffffff19908116600160a060020a038416179091551690555b6007547501000000000000000000000000000000000000000000900460ff161561086f576007805475ff0000000000000000000000000000000000000000001974ff00000000000000000000000000000000000000001990911674010000000000000000000000000000000000000000171690555b7f8564cd629b15f47dc310d45bcbfc9bcf5420b0d51bf0659a16c67f91d2763253610898610b9c565b60408051602080825283518183015283519192839290830191858101910280838360005b838110156108d45781810151838201526020016108bc565b505050509050019250505060405180910390a15050565b60006108f5610a5d565b600160a060020a0316331461090957600080fd5b61091282610e1f565b1580610924575061092283610c81565b155b15610931575060006105e1565b61093c826000610e4a565b610947836000610cb9565b600554600160a060020a0383811691161415610986576006805473ffffffffffffffffffffffffffffffffffffffff1916600160a060020a0385161790555b6001430340600019167f55252fa6eee4741b4e24a74a70e9c11fd2c2281df8d6ea13126ff845f7825c89600360405180806020018281038252838181548152602001915080548015610a0157602002820191906000526020600020905b8154600160a060020a031681526001909101906020018083116109e3575b50509250505060405180910390a250600192915050565b600160a060020a03811660009081526004602052604081205460ff80821691610100900416818015610a475750805b949350505050565b600280548290811061044657fe5b60008060009054906101000a9004600160a060020a0316600160a060020a0316639a5737866040518163ffffffff167c0100000000000000000000000000000000000000000000000000000000028152600401602060405180830381600087803b158015610aca57600080fd5b505af1158015610ade573d6000803e3d6000fd5b505050506040513d6020811015610af457600080fd5b5051905090565b60075477010000000000000000000000000000000000000000000000900460ff1681565b60075460009074010000000000000000000000000000000000000000900460ff1615610b4e5750600254610464565b6002541515610b5f57506000610464565b506002546000190190565b600054600160a060020a031681565b600754760100000000000000000000000000000000000000000000900460ff1681565b606060028054806020026020016040519081016040528092919081815260200182805480156106a857602002820191906000526020600020908154600160a060020a0316815260019091019060200180831161068a575050505050905090565b600154600160a060020a031681565b600654600160a060020a031690565b6000610c24610a5d565b600160a060020a03163314610c3857600080fd5b610c4183610e1f565b156105dd576105d58383610e4a565b600554600160a060020a031690565b600160a060020a03811660009081526004602052604090205460ff165b919050565b6000600160a060020a0382161515610c9b57506000610c7c565b610ca482610c5f565b15610cb157506000610c7c565b506001919050565b6040805160608101825260018082526000602080840182815260038054868801908152600160a060020a038a16808652600490945296842095518654925115156101000261ff001991151560ff19909416939093171691909117855594519383019390935583549182018455929092527fc2575a0e9e593c00f959f8c92f12db2869c3395a3b0502d05e2516446f71f85b909101805473ffffffffffffffffffffffffffffffffffffffff191690911790556007805476ff00000000000000000000000000000000000000000000191690558015610e1b576001430340600019167f55252fa6eee4741b4e24a74a70e9c11fd2c2281df8d6ea13126ff845f7825c89600360405180806020018281038252838181548152602001915080548015610e0c57602002820191906000526020600020905b8154600160a060020a03168152600190910190602001808311610dee575b50509250505060405180910390a25b5050565b6003546000901515610e3357506000610c7c565b610e3c82610c5f565b1515610cb157506000610c7c565b600160a060020a03821660009081526004602052604081206001015460038054919260001983019290919083908110610e7f57fe5b60009182526020909120015460038054600160a060020a039092169250829185908110610ea857fe5b6000918252602080832091909101805473ffffffffffffffffffffffffffffffffffffffff1916600160a060020a0394851617905591831681526004909152604090206001018390556003805490610f04906000198301611083565b50600160a060020a03851660009081526004602052604081206001810191909155805461ffff191690556007805476ff0000000000000000000000000000000000000000000019169055831561102c57600554600160a060020a0386811691161415610fa2576007805475ff000000000000000000000000000000000000000000191675010000000000000000000000000000000000000000001790555b6001430340600019167f55252fa6eee4741b4e24a74a70e9c11fd2c2281df8d6ea13126ff845f7825c8960036040518080602001828103825283818154815260200191508054801561101d57602002820191906000526020600020905b8154600160a060020a03168152600190910190602001808311610fff575b50509250505060405180910390a25b5050505050565b8280548282559060005260206000209081019282156110735760005260206000209182015b82811115611073578254825591600101919060010190611058565b5061107f9291506110ac565b5090565b8154818355818111156110a7576000838152602090206110a79181019083016110dd565b505050565b61046491905b8082111561107f57805473ffffffffffffffffffffffffffffffffffffffff191681556001016110b2565b61046491905b8082111561107f57600081556001016110e35600a165627a7a7230582031f00861bd9e3739cadf7655d2d9c0347ae148642ae705e67830afcb1e12eea10029",
  "source": "pragma solidity ^0.4.24;\n\nimport \"./interfaces/IPoaNetworkConsensus.sol\";\nimport \"./interfaces/IProxyStorage.sol\";\n\n\ncontract PoaNetworkConsensus is IPoaNetworkConsensus {\n    /// Issue this log event to signal a desired change in validator set.\n    /// This will not lead to a change in active validator set until \n    /// finalizeChange is called.\n    ///\n    /// Only the last log event of any block can take effect.\n    /// If a signal is issued while another is being finalized it may never\n    /// take effect.\n    /// \n    /// parentHash here should be the parent block hash, or the\n    /// signal will not be recognized.\n    event InitiateChange(bytes32 indexed parentHash, address[] newSet);\n    event ChangeFinalized(address[] newSet);\n    event MoCInitializedProxyStorage(address proxyStorage);\n    \n    struct ValidatorState {\n        // Is this a validator.\n        bool isValidator;\n        // Is a validator finalized.\n        bool isValidatorFinalized;\n        // Index in the currentValidators.\n        uint256 index;\n    }\n    \n    IProxyStorage public proxyStorage;\n    address public systemAddress = 0xffffFFFfFFffffffffffffffFfFFFfffFFFfFFfE;\n    \n    address[] public currentValidators;\n    address[] public pendingList;\n    mapping(address => ValidatorState) public validatorsState;\n    \n    address internal _moc;\n    address internal _mocPending;\n    address internal _owner;\n\n    bool internal _isMoCRemoved = false;\n    bool internal _isMoCRemovedPending = false;\n\n    bool public finalized = false;\n    bool public wasProxyStorageSet = false;\n\n    modifier onlySystemAndNotFinalized() {\n        require(msg.sender == systemAddress && !finalized);\n        _;\n    }\n\n    modifier onlyKeysManager() {\n        require(msg.sender == getKeysManager());\n        _;\n    }\n\n    constructor(address _masterOfCeremony, address[] validators) public {\n        // TODO: When you deploy this contract, make sure you hardcode items below\n        // Make sure you have those addresses defined in spec.json\n        require(_masterOfCeremony != address(0));\n        _moc = _masterOfCeremony;\n        currentValidators = [_masterOfCeremony];\n        for (uint256 y = 0; y < validators.length; y++) {\n            require(validators[y] != address(0));\n            currentValidators.push(validators[y]);\n        }\n        for (uint256 i = 0; i < currentValidators.length; i++) {\n            address validator = currentValidators[i];\n            require(!isValidator(validator));\n            validatorsState[validator] = ValidatorState({\n                isValidator: true,\n                isValidatorFinalized: true,\n                index: i\n            });\n        }\n        pendingList = currentValidators;\n        _owner = msg.sender;\n    }\n\n    function isMasterOfCeremonyRemoved() public view returns(bool) {\n        return _isMoCRemoved;\n    }\n\n    function isMasterOfCeremonyRemovedPending() public view returns(bool) {\n        return _isMoCRemovedPending;\n    }\n\n    function masterOfCeremony() public view returns(address) {\n        return _moc;\n    }\n\n    function masterOfCeremonyPending() public view returns(address) {\n        return _mocPending;\n    }\n\n    /// Get current validator set (last enacted or initial if no changes ever made)\n    function getValidators() public view returns(address[]) {\n        return currentValidators;\n    }\n\n    function getPendingList() public view returns(address[]) {\n        return pendingList;\n    }\n\n    /// Called when an initiated change reaches finality and is activated. \n    /// Only valid when msg.sender == SUPER_USER (EIP96, 2**160 - 2)\n    ///\n    /// Also called when the contract is first enabled for consensus. In this case,\n    /// the \"change\" finalized is the activation of the initial set.\n    function finalizeChange() public onlySystemAndNotFinalized {\n        finalized = true;\n        for (uint256 i = 0; i < pendingList.length; i++) {\n            ValidatorState storage state = validatorsState[pendingList[i]];\n            if (!state.isValidatorFinalized) {\n                state.isValidatorFinalized = true;\n            }\n        }\n        currentValidators = pendingList;\n        if (_mocPending != address(0)) {\n            _moc = _mocPending;\n            _mocPending = address(0);\n        }\n        if (_isMoCRemovedPending) {\n            _isMoCRemoved = true;\n            _isMoCRemovedPending = false;\n        }\n        emit ChangeFinalized(getValidators());\n    }\n\n    function addValidator(address _validator, bool _shouldFireEvent)\n        public\n        onlyKeysManager\n        returns(bool)\n    {\n        if (_addValidatorAllowed(_validator)) {\n            _addValidator(_validator, _shouldFireEvent);\n            return true;\n        }\n        return false;\n    }\n\n    function removeValidator(\n        address _validator,\n        bool _shouldFireEvent\n    ) public onlyKeysManager returns(bool) {\n        if (_removeValidatorAllowed(_validator)) {\n            _removeValidator(_validator, _shouldFireEvent);\n            return true;\n        }\n        return false;\n    }\n\n    function swapValidatorKey(address _newKey, address _oldKey)\n        public\n        onlyKeysManager\n        returns(bool)\n    {\n        if (!_removeValidatorAllowed(_oldKey) || !_addValidatorAllowed(_newKey)) return false;\n        _removeValidator(_oldKey, false);\n        _addValidator(_newKey, false);\n        if (_oldKey == _moc) {\n            _mocPending = _newKey;\n        }\n        emit InitiateChange(blockhash(block.number - 1), pendingList);\n        return true;\n    }\n\n    function setProxyStorage(address _newAddress) public {\n        require(msg.sender == _moc && !_isMoCRemoved || msg.sender == _owner);\n        require(!wasProxyStorageSet);\n        require(_newAddress != address(0));\n        proxyStorage = IProxyStorage(_newAddress);\n        wasProxyStorageSet = true;\n        emit MoCInitializedProxyStorage(proxyStorage);\n    }\n\n    function isValidator(address _someone) public view returns(bool) {\n        return validatorsState[_someone].isValidator;\n    }\n\n    function isValidatorFinalized(address _someone) public view returns(bool) {\n        bool _isValidator = validatorsState[_someone].isValidator;\n        bool _isFinalized = validatorsState[_someone].isValidatorFinalized;\n        return _isValidator && _isFinalized;\n    }\n\n    function getKeysManager() public view returns(address) {\n        return proxyStorage.getKeysManager();\n    }\n\n    function getCurrentValidatorsLength() public view returns(uint256) {\n        return currentValidators.length;\n    }\n\n    function getCurrentValidatorsLengthWithoutMoC() public view returns(uint256) {\n        if (_isMoCRemoved) {\n            return currentValidators.length;\n        }\n        if (currentValidators.length == 0) {\n            return 0;\n        }\n        return currentValidators.length - 1; // exclude MoC\n    }\n\n    function _addValidatorAllowed(address _validator) private view returns(bool) {\n        if (_validator == address(0)) return false;\n        if (isValidator(_validator)) return false;\n        return true;\n    }\n\n    function _addValidator(address _validator, bool _shouldFireEvent) private {\n        validatorsState[_validator] = ValidatorState({\n            isValidator: true,\n            isValidatorFinalized: false,\n            index: pendingList.length\n        });\n        pendingList.push(_validator);\n        finalized = false;\n        if (_shouldFireEvent) {\n            emit InitiateChange(blockhash(block.number - 1), pendingList);\n        }\n    }\n\n    function _removeValidatorAllowed(address _validator) private view returns(bool) {\n        if (pendingList.length == 0) return false;\n        if (!isValidator(_validator)) return false;\n        return true;\n    }\n\n    function _removeValidator(address _validator, bool _shouldFireEvent) private {\n        uint256 removedIndex = validatorsState[_validator].index;\n        // Can not remove the last validator.\n        uint256 lastIndex = pendingList.length - 1;\n        address lastValidator = pendingList[lastIndex];\n        // Override the removed validator with the last one.\n        pendingList[removedIndex] = lastValidator;\n        // Update the index of the last validator.\n        validatorsState[lastValidator].index = removedIndex;\n        pendingList.length--;\n        validatorsState[_validator].index = 0;\n        validatorsState[_validator].isValidator = false;\n        validatorsState[_validator].isValidatorFinalized = false;\n        finalized = false;\n        if (_shouldFireEvent) {\n            if (_validator == _moc) {\n                _isMoCRemovedPending = true;\n            }\n            emit InitiateChange(blockhash(block.number - 1), pendingList);\n        }\n    }\n}",
  "sourcePath": "/Users/gabrielfournier1/Documents/POA_Network/building-network-open-eth/poco-deployement-rebase/repo-deployement-github-etc/poa-network-consensus-contracts/contracts/PoaNetworkConsensus.sol",
  "compiler": {
    "name": "solc",
    "version": "0.4.26+commit.4563c3fc.Emscripten.clang"
  },
  "schemaVersion": "2.0.3",
  "updatedAt": "2022-06-10T07:17:16.157Z"
}