{
  "contractName": "ValidatorMetadata",
  "abi": [
    {
      "anonymous": false,
      "inputs": [
        {
          "indexed": true,
          "name": "miningKey",
          "type": "address"
        }
      ],
      "name": "MetadataCleared",
      "type": "event"
    },
    {
      "anonymous": false,
      "inputs": [
        {
          "indexed": true,
          "name": "miningKey",
          "type": "address"
        }
      ],
      "name": "MetadataCreated",
      "type": "event"
    },
    {
      "anonymous": false,
      "inputs": [
        {
          "indexed": true,
          "name": "oldMiningKey",
          "type": "address"
        },
        {
          "indexed": true,
          "name": "newMiningKey",
          "type": "address"
        }
      ],
      "name": "MetadataMoved",
      "type": "event"
    },
    {
      "anonymous": false,
      "inputs": [
        {
          "indexed": true,
          "name": "miningKey",
          "type": "address"
        }
      ],
      "name": "ChangeRequestInitiated",
      "type": "event"
    },
    {
      "anonymous": false,
      "inputs": [
        {
          "indexed": true,
          "name": "miningKey",
          "type": "address"
        }
      ],
      "name": "CancelledRequest",
      "type": "event"
    },
    {
      "anonymous": false,
      "inputs": [
        {
          "indexed": true,
          "name": "miningKey",
          "type": "address"
        },
        {
          "indexed": false,
          "name": "votingSender",
          "type": "address"
        },
        {
          "indexed": false,
          "name": "votingSenderMiningKey",
          "type": "address"
        }
      ],
      "name": "Confirmed",
      "type": "event"
    },
    {
      "anonymous": false,
      "inputs": [
        {
          "indexed": true,
          "name": "miningKey",
          "type": "address"
        }
      ],
      "name": "FinalizedChange",
      "type": "event"
    },
    {
      "constant": false,
      "inputs": [
        {
          "name": "_miningKey",
          "type": "address"
        }
      ],
      "name": "clearMetadata",
      "outputs": [],
      "payable": false,
      "stateMutability": "nonpayable",
      "type": "function"
    },
    {
      "constant": false,
      "inputs": [
        {
          "name": "_oldMiningKey",
          "type": "address"
        },
        {
          "name": "_newMiningKey",
          "type": "address"
        }
      ],
      "name": "moveMetadata",
      "outputs": [],
      "payable": false,
      "stateMutability": "nonpayable",
      "type": "function"
    },
    {
      "constant": true,
      "inputs": [],
      "name": "proxyStorage",
      "outputs": [
        {
          "name": "",
          "type": "address"
        }
      ],
      "payable": false,
      "stateMutability": "view",
      "type": "function"
    },
    {
      "constant": true,
      "inputs": [
        {
          "name": "_miningKey",
          "type": "address"
        }
      ],
      "name": "getValidatorName",
      "outputs": [
        {
          "name": "firstName",
          "type": "bytes32"
        },
        {
          "name": "lastName",
          "type": "bytes32"
        }
      ],
      "payable": false,
      "stateMutability": "view",
      "type": "function"
    },
    {
      "constant": true,
      "inputs": [
        {
          "name": "_miningKey",
          "type": "address"
        }
      ],
      "name": "validators",
      "outputs": [
        {
          "name": "firstName",
          "type": "bytes32"
        },
        {
          "name": "lastName",
          "type": "bytes32"
        },
        {
          "name": "licenseId",
          "type": "bytes32"
        },
        {
          "name": "fullAddress",
          "type": "string"
        },
        {
          "name": "state",
          "type": "bytes32"
        },
        {
          "name": "zipcode",
          "type": "bytes32"
        },
        {
          "name": "expirationDate",
          "type": "uint256"
        },
        {
          "name": "createdDate",
          "type": "uint256"
        },
        {
          "name": "updatedDate",
          "type": "uint256"
        },
        {
          "name": "minThreshold",
          "type": "uint256"
        },
        {
          "name": "contactEmail",
          "type": "bytes32"
        },
        {
          "name": "isCompany",
          "type": "bool"
        }
      ],
      "payable": false,
      "stateMutability": "view",
      "type": "function"
    },
    {
      "constant": true,
      "inputs": [
        {
          "name": "_miningKey",
          "type": "address"
        }
      ],
      "name": "pendingChanges",
      "outputs": [
        {
          "name": "firstName",
          "type": "bytes32"
        },
        {
          "name": "lastName",
          "type": "bytes32"
        },
        {
          "name": "licenseId",
          "type": "bytes32"
        },
        {
          "name": "fullAddress",
          "type": "string"
        },
        {
          "name": "state",
          "type": "bytes32"
        },
        {
          "name": "zipcode",
          "type": "bytes32"
        },
        {
          "name": "expirationDate",
          "type": "uint256"
        },
        {
          "name": "createdDate",
          "type": "uint256"
        },
        {
          "name": "updatedDate",
          "type": "uint256"
        },
        {
          "name": "minThreshold",
          "type": "uint256"
        },
        {
          "name": "contactEmail",
          "type": "bytes32"
        },
        {
          "name": "isCompany",
          "type": "bool"
        }
      ],
      "payable": false,
      "stateMutability": "view",
      "type": "function"
    },
    {
      "constant": true,
      "inputs": [
        {
          "name": "_miningKey",
          "type": "address"
        }
      ],
      "name": "confirmations",
      "outputs": [
        {
          "name": "count",
          "type": "uint256"
        },
        {
          "name": "voters",
          "type": "address[]"
        }
      ],
      "payable": false,
      "stateMutability": "view",
      "type": "function"
    },
    {
      "constant": true,
      "inputs": [],
      "name": "initMetadataDisabled",
      "outputs": [
        {
          "name": "",
          "type": "bool"
        }
      ],
      "payable": false,
      "stateMutability": "view",
      "type": "function"
    },
    {
      "constant": false,
      "inputs": [
        {
          "name": "_firstName",
          "type": "bytes32"
        },
        {
          "name": "_lastName",
          "type": "bytes32"
        },
        {
          "name": "_licenseId",
          "type": "bytes32"
        },
        {
          "name": "_fullAddress",
          "type": "string"
        },
        {
          "name": "_state",
          "type": "bytes32"
        },
        {
          "name": "_zipcode",
          "type": "bytes32"
        },
        {
          "name": "_expirationDate",
          "type": "uint256"
        },
        {
          "name": "_createdDate",
          "type": "uint256"
        },
        {
          "name": "_updatedDate",
          "type": "uint256"
        },
        {
          "name": "_minThreshold",
          "type": "uint256"
        },
        {
          "name": "_miningKey",
          "type": "address"
        }
      ],
      "name": "initMetadata",
      "outputs": [],
      "payable": false,
      "stateMutability": "nonpayable",
      "type": "function"
    },
    {
      "constant": false,
      "inputs": [],
      "name": "initMetadataDisable",
      "outputs": [],
      "payable": false,
      "stateMutability": "nonpayable",
      "type": "function"
    },
    {
      "constant": false,
      "inputs": [
        {
          "name": "_firstName",
          "type": "bytes32"
        },
        {
          "name": "_lastName",
          "type": "bytes32"
        },
        {
          "name": "_licenseId",
          "type": "bytes32"
        },
        {
          "name": "_fullAddress",
          "type": "string"
        },
        {
          "name": "_state",
          "type": "bytes32"
        },
        {
          "name": "_zipcode",
          "type": "bytes32"
        },
        {
          "name": "_expirationDate",
          "type": "uint256"
        },
        {
          "name": "_contactEmail",
          "type": "bytes32"
        },
        {
          "name": "_isCompany",
          "type": "bool"
        }
      ],
      "name": "createMetadata",
      "outputs": [],
      "payable": false,
      "stateMutability": "nonpayable",
      "type": "function"
    },
    {
      "constant": false,
      "inputs": [
        {
          "name": "_firstName",
          "type": "bytes32"
        },
        {
          "name": "_lastName",
          "type": "bytes32"
        },
        {
          "name": "_licenseId",
          "type": "bytes32"
        },
        {
          "name": "_fullAddress",
          "type": "string"
        },
        {
          "name": "_state",
          "type": "bytes32"
        },
        {
          "name": "_zipcode",
          "type": "bytes32"
        },
        {
          "name": "_expirationDate",
          "type": "uint256"
        },
        {
          "name": "_contactEmail",
          "type": "bytes32"
        },
        {
          "name": "_isCompany",
          "type": "bool"
        }
      ],
      "name": "changeRequest",
      "outputs": [],
      "payable": false,
      "stateMutability": "nonpayable",
      "type": "function"
    },
    {
      "constant": false,
      "inputs": [],
      "name": "cancelPendingChange",
      "outputs": [
        {
          "name": "",
          "type": "bool"
        }
      ],
      "payable": false,
      "stateMutability": "nonpayable",
      "type": "function"
    },
    {
      "constant": true,
      "inputs": [
        {
          "name": "_miningKey",
          "type": "address"
        },
        {
          "name": "_voterMiningKey",
          "type": "address"
        }
      ],
      "name": "isValidatorAlreadyVoted",
      "outputs": [
        {
          "name": "",
          "type": "bool"
        }
      ],
      "payable": false,
      "stateMutability": "view",
      "type": "function"
    },
    {
      "constant": false,
      "inputs": [
        {
          "name": "_miningKey",
          "type": "address"
        }
      ],
      "name": "confirmPendingChange",
      "outputs": [],
      "payable": false,
      "stateMutability": "nonpayable",
      "type": "function"
    },
    {
      "constant": false,
      "inputs": [
        {
          "name": "_miningKey",
          "type": "address"
        }
      ],
      "name": "finalize",
      "outputs": [],
      "payable": false,
      "stateMutability": "nonpayable",
      "type": "function"
    },
    {
      "constant": true,
      "inputs": [],
      "name": "getTime",
      "outputs": [
        {
          "name": "",
          "type": "uint256"
        }
      ],
      "payable": false,
      "stateMutability": "view",
      "type": "function"
    },
    {
      "constant": true,
      "inputs": [],
      "name": "getMinThreshold",
      "outputs": [
        {
          "name": "",
          "type": "uint256"
        }
      ],
      "payable": false,
      "stateMutability": "view",
      "type": "function"
    }
  ],
  "bytecode": "0x608060405234801561001057600080fd5b50613e1a806100206000396000f3006080604052600436106100e25763ffffffff60e060020a600035041663022c254a81146100e75780634ecb35c4146101e05780634ef39b751461025c578063557ed1ba1461027f57806380a9c974146102a6578063885c69b5146103225780638ae881a6146103435780639c715535146103d2578063a6662a3c146103f3578063ae4b1b5b1461041c578063af2e2da91461044d578063c2d0916f14610487578063c8fa153d146104ae578063e6bbe9dd1461052a578063f0174a251461053f578063f73294b814610554578063f94c12cb1461057b578063fa52c7d814610590575b600080fd5b3480156100f357600080fd5b50610108600160a060020a03600435166105b1565b604080518d815260208082018e90529181018c9052608081018a905260a0810189905260c0810188905260e08101879052610100810186905261012081018590526101408101849052821515610160820152610180606082018181528c51918301919091528b51919290916101a08401918d019080838360005b8381101561019a578181015183820152602001610182565b50505050905090810190601f1680156101c75780820380516001836020036101000a031916815260200191505b509d505050505050505050505050505060405180910390f35b3480156101ec57600080fd5b50610201600160a060020a03600435166105f6565b6040518083815260200180602001828103825283818151815260200191508051906020019060200280838360005b8381101561024757818101518382015260200161022f565b50505050905001935050505060405180910390f35b34801561026857600080fd5b5061027d600160a060020a036004351661060e565b005b34801561028b57600080fd5b50610294610828565b60408051918252519081900360200190f35b3480156102b257600080fd5b50604080516020601f60643560048181013592830184900484028501840190955281845261027d948035946024803595604435953695608494930191819084018382808284375094975050843595505050602083013592604081013592506060810135915060800135151561082d565b34801561032e57600080fd5b5061027d600160a060020a03600435166109e2565b34801561034f57600080fd5b50604080516020601f60643560048181013592830184900484028501840190955281845261027d948035946024803595604435953695608494930191819084018382808284375094975050843595505050602083013592604081013592506060810135915060808101359060a08101359060c00135600160a060020a0316610a59565b3480156103de57600080fd5b5061027d600160a060020a0360043516610b9b565b3480156103ff57600080fd5b50610408610dd2565b604080519115158252519081900360200190f35b34801561042857600080fd5b50610431610e16565b60408051600160a060020a039092168252519081900360200190f35b34801561045957600080fd5b5061046e600160a060020a0360043516610e60565b6040805192835260208301919091528051918290030190f35b34801561049357600080fd5b5061027d600160a060020a0360043581169060243516610e82565b3480156104ba57600080fd5b50604080516020601f60643560048181013592830184900484028501840190955281845261027d9480359460248035956044359536956084949301918190840183828082843750949750508435955050506020830135926040810135925060608101359150608001351515610f08565b34801561053657600080fd5b50610294611156565b34801561054b57600080fd5b5061027d6111da565b34801561056057600080fd5b50610408600160a060020a0360043581169060243516611278565b34801561058757600080fd5b506104086113d8565b34801561059c57600080fd5b50610108600160a060020a036004351661154d565b600080600060606000806000806000806000806105cf60018e611567565b9b509b509b509b509b509b509b509b509b509b509b509b5091939597999b5091939597999b565b600060606106038361161a565b905080519150915091565b6000803361061a61175c565b600160a060020a03166362b46d64826040518263ffffffff1660e060020a0281526004018082600160a060020a0316600160a060020a03168152602001915050602060405180830381600087803b15801561067457600080fd5b505af1158015610688573d6000803e3d6000fd5b505050506040513d602081101561069e57600080fd5b505115156106ab57600080fd5b6106b4846117a3565b15156106bf57600080fd5b6106c88461161a565b5192506106d66001856117b8565b9150818310156106e557600080fd5b6106fb6000856106f66001886118f6565b61197f565b61071160008561070c600188611abd565b611b46565b610727600085610722600188611bce565b611c57565b61073d600085610738600188611cdf565b611d68565b61075360008561074e600188611df0565b611fd0565b61076960008561076460018861212e565b6121b7565b61077f60008561077a60018861223f565b6122c8565b610795600085610790600188612350565b6123d9565b6107ab6000856107a6600188612461565b6124ea565b6107b760008584612572565b6107cd6000856107c86001886125fa565b612683565b6107e36000856107de60018861270b565b61284c565b6107ee600185612996565b604051600160a060020a038516907fccf0f685803f0fba33ec88246b35d75b758b1e77c3d65ef5658f7e630f36b85b90600090a250505050565b425b90565b60003361083861175c565b600160a060020a03166362b46d64826040518263ffffffff1660e060020a0281526004018082600160a060020a0316600160a060020a03168152602001915050602060405180830381600087803b15801561089257600080fd5b505af11580156108a6573d6000803e3d6000fd5b505050506040513d60208110156108bc57600080fd5b505115156108c957600080fd5b6108d161175c565b600160a060020a0316632d260227336040518263ffffffff1660e060020a0281526004018082600160a060020a0316600160a060020a03168152602001915050602060405180830381600087803b15801561092b57600080fd5b505af115801561093f573d6000803e3d6000fd5b505050506040513d602081101561095557600080fd5b505191506109896001838d8d8d8d8d8d8d610971600089612350565b610979610828565b61098460008f6117b8565b613833565b61099560018386612683565b6109a16001838561284c565b604051600160a060020a038316907f6ec0e3afd4b29a1fe1c688cb1e6474d9e2c6a1032858c3add0ff32b7ba95f32f90600090a25050505050505050505050565b6109ea61175c565b600160a060020a031633146109fe57600080fd5b610a07816117a3565b15610a1757610a17600182612996565b610a22600082612996565b604051600160a060020a038216907f1928e25e316bab82325e01eaf5b4a29f7b2d5e3d77fc0b6ac959eb95112f3ee990600090a250565b604080517f6f776e65720000000000000000000000000000000000000000000000000000008152815190819003600501902060009081526004602052205433600160a060020a0390911614610aad57600080fd5b610ab561175c565b600160a060020a0316639bc91c22826040518263ffffffff1660e060020a0281526004018082600160a060020a0316600160a060020a03168152602001915050602060405180830381600087803b158015610b0f57600080fd5b505af1158015610b23573d6000803e3d6000fd5b505050506040513d6020811015610b3957600080fd5b50511515610b4657600080fd5b610b51600082612350565b15610b5b57600080fd5b831515610b6757600080fd5b610b6f610dd2565b15610b7957600080fd5b610b8e6000828d8d8d8d8d8d8d8d8d8d613833565b5050505050505050505050565b60008033610ba761175c565b600160a060020a03166362b46d64826040518263ffffffff1660e060020a0281526004018082600160a060020a0316600160a060020a03168152602001915050602060405180830381600087803b158015610c0157600080fd5b505af1158015610c15573d6000803e3d6000fd5b505050506040513d6020811015610c2b57600080fd5b50511515610c3857600080fd5b610c4061175c565b600160a060020a0316632d260227336040518263ffffffff1660e060020a0281526004018082600160a060020a0316600160a060020a03168152602001915050602060405180830381600087803b158015610c9a57600080fd5b505af1158015610cae573d6000803e3d6000fd5b505050506040513d6020811015610cc457600080fd5b50519250600160a060020a038084169085161415610ce157600080fd5b610ceb8484611278565b15610cf557600080fd5b610cfd6138be565b600160a060020a031663936736206040518163ffffffff1660e060020a028152600401602060405180830381600087803b158015610d3a57600080fd5b505af1158015610d4e573d6000803e3d6000fd5b505050506040513d6020811015610d6457600080fd5b5051915081610d728561161a565b5110610d7d57600080fd5b610d878484613905565b60408051338152600160a060020a0385811660208301528251908716927f603c57ecb4a9802537649ceb6523e5d48c939e7856768ce6f9b3128a889a5cfe928290030190a250505050565b604080517f696e69744d6574616461746144697361626c65640000000000000000000000008152815190819003601401902060009081526006602052205460ff1690565b604080517f70726f787953746f7261676500000000000000000000000000000000000000008152815190819003600c019020600090815260046020522054600160a060020a031690565b600080610e6e6000846118f6565b9150610e7b600084611abd565b9050915091565b610e8a61175c565b600160a060020a03163314610e9e57600080fd5b610ea7826117a3565b15610eb857610eb860018383613a2e565b610ec460008383613a2e565b80600160a060020a031682600160a060020a03167f6a3e5f5cc14de86bb3be87bc976b74890ecd0c8fa0cfca2fe3fefe55c9b47dde60405160405180910390a35050565b600033610f1361175c565b600160a060020a03166362b46d64826040518263ffffffff1660e060020a0281526004018082600160a060020a0316600160a060020a03168152602001915050602060405180830381600087803b158015610f6d57600080fd5b505af1158015610f81573d6000803e3d6000fd5b505050506040513d6020811015610f9757600080fd5b50511515610fa457600080fd5b336000610faf61175c565b600160a060020a0316632d260227836040518263ffffffff1660e060020a0281526004018082600160a060020a0316600160a060020a03168152602001915050602060405180830381600087803b15801561100957600080fd5b505af115801561101d573d6000803e3d6000fd5b505050506040513d602081101561103357600080fd5b50519050611042600082612350565b1561104c57600080fd5b61105461175c565b600160a060020a0316632d260227336040518263ffffffff1660e060020a0281526004018082600160a060020a0316600160a060020a03168152602001915050602060405180830381600087803b1580156110ae57600080fd5b505af11580156110c2573d6000803e3d6000fd5b505050506040513d60208110156110d857600080fd5b505193506110fb6000858f8f8f8f8f8f8f6110f1610828565b6000610984611156565b61110760008588612683565b6111136000858761284c565b604051600160a060020a038516907f76a10cc0839d166c55eec8dba39ff22f75470574ede5014b744b45cebea5fc7e90600090a250505050505050505050505050565b60006111606138be565b600160a060020a03166345e23b5360026040518263ffffffff1660e060020a02815260040180828152602001915050602060405180830381600087803b1580156111a957600080fd5b505af11580156111bd573d6000803e3d6000fd5b505050506040513d60208110156111d357600080fd5b5051905090565b604080517f6f776e65720000000000000000000000000000000000000000000000000000008152815190819003600501902060009081526004602052205433600160a060020a039091161461122e57600080fd5b604080517f696e69744d6574616461746144697361626c6564000000000000000000000000815281519081900360140190206000908152600660205220805460ff19166001179055565b60008060008060008061128961175c565b945086935084600160a060020a031663b9bdaa076040518163ffffffff1660e060020a028152600401602060405180830381600087803b1580156112cc57600080fd5b505af11580156112e0573d6000803e3d6000fd5b505050506040513d60208110156112f657600080fd5b50519250600091505b828210156113c8576113118885613acf565b1561131f57600195506113cd565b84600160a060020a031663a5a36dee856040518263ffffffff1660e060020a0281526004018082600160a060020a0316600160a060020a03168152602001915050602060405180830381600087803b15801561137a57600080fd5b505af115801561138e573d6000803e3d6000fd5b505050506040513d60208110156113a457600080fd5b50519050600160a060020a03811615156113bd576113c8565b9250600101826112ff565b600095505b505050505092915050565b600080336113e461175c565b600160a060020a03166362b46d64826040518263ffffffff1660e060020a0281526004018082600160a060020a0316600160a060020a03168152602001915050602060405180830381600087803b15801561143e57600080fd5b505af1158015611452573d6000803e3d6000fd5b505050506040513d602081101561146857600080fd5b5051151561147557600080fd5b61147d61175c565b600160a060020a0316632d260227336040518263ffffffff1660e060020a0281526004018082600160a060020a0316600160a060020a03168152602001915050602060405180830381600087803b1580156114d757600080fd5b505af11580156114eb573d6000803e3d6000fd5b505050506040513d602081101561150157600080fd5b50519150611510600183612996565b604051600160a060020a038316907f5a1dcc05b2a41ad121a798e749b9ba9584177c68a4047ee52ef37d4ca76ce08c90600090a260019250505090565b600080600060606000806000806000806000806105cf60008e5b600080600060606000806000806000806000806115848e8e6118f6565b9b506115908e8e611abd565b9a5061159c8e8e611bce565b99506115a88e8e611df0565b98506115b48e8e611cdf565b97506115c08e8e61212e565b96506115cc8e8e61223f565b95506115d88e8e612350565b94506115e48e8e612461565b93506115f08e8e6117b8565b92506115fc8e8e6125fa565b91506116088e8e61270b565b90509295989b509295989b509295989b565b604080517f636f6e6669726d6174696f6e7300000000000000000000000000000000000000602080830191909152600160a060020a038416828401527f766f74657273000000000000000000000000000000000000000000000000000060608381019190915283518084038201815260809093019384905282519093600b93600093909282918401908083835b602083106116c65780518252601f1990920191602091820191016116a7565b51815160209384036101000a60001901801990921691161790526040805192909401829003909120865285810196909652509283016000208054845181870281018701909552808552939490939250840190508282801561175057602002820191906000526020600020905b8154600160a060020a03168152600190910190602001808311611732575b50505050509050919050565b6000611766610e16565b600160a060020a0316639a5737866040518163ffffffff1660e060020a028152600401602060405180830381600087803b1580156111a957600080fd5b6000806117b1600184612350565b1192915050565b6000600260006117c785613b41565b60408051600160a060020a038716918101919091527f6d696e5468726573686f6c640000000000000000000000000000000000000000606080830182905260208084019182528451608085015284518994839260a0909101919087019080838360005b8381101561184257818101518382015260200161182a565b50505050905090810190601f16801561186f5780820380516001836020036101000a031916815260200191505b509450505050506040516020818303038152906040526040518082805190602001908083835b602083106118b45780518252601f199092019160209182019101611895565b51815160209384036101000a60001901801990921691161790526040805192909401829003909120865285019590955292909201600020549695505050505050565b60006008600061190585613b41565b60408051600160a060020a038716918101919091527f66697273744e616d650000000000000000000000000000000000000000000000606080830182905260208084019182528451608085015284518994839260a0909101919087019080838360008381101561184257818101518382015260200161182a565b806008600061198d86613b41565b60408051600160a060020a038816918101919091527f66697273744e616d650000000000000000000000000000000000000000000000606080830182905260208084019182528451608085015284518a94839260a0909101919087019080838360005b83811015611a085781810151838201526020016119f0565b50505050905090810190601f168015611a355780820380516001836020036101000a031916815260200191505b509450505050506040516020818303038152906040526040518082805190602001908083835b60208310611a7a5780518252601f199092019160209182019101611a5b565b51815160209384036101000a6000190180199092169116179052604080519290940182900390912086528501959095529290920160002093909355505050505050565b600060086000611acc85613b41565b60408051600160a060020a038716918101919091527f6c6173744e616d65000000000000000000000000000000000000000000000000606080830182905260208084019182528451608085015284518994839260a0909101919087019080838360008381101561184257818101518382015260200161182a565b8060086000611b5486613b41565b60408051600160a060020a038816918101919091527f6c6173744e616d65000000000000000000000000000000000000000000000000606080830182905260208084019182528451608085015284518a94839260a09091019190870190808383600083811015611a085781810151838201526020016119f0565b600060086000611bdd85613b41565b60408051600160a060020a038716918101919091527f6c6963656e736549640000000000000000000000000000000000000000000000606080830182905260208084019182528451608085015284518994839260a0909101919087019080838360008381101561184257818101518382015260200161182a565b8060086000611c6586613b41565b60408051600160a060020a038816918101919091527f6c6963656e736549640000000000000000000000000000000000000000000000606080830182905260208084019182528451608085015284518a94839260a09091019190870190808383600083811015611a085781810151838201526020016119f0565b600060086000611cee85613b41565b60408051600160a060020a038716918101919091527f7374617465000000000000000000000000000000000000000000000000000000606080830182905260208084019182528451608085015284518994839260a0909101919087019080838360008381101561184257818101518382015260200161182a565b8060086000611d7686613b41565b60408051600160a060020a038816918101919091527f7374617465000000000000000000000000000000000000000000000000000000606080830182905260208084019182528451608085015284518a94839260a09091019190870190808383600083811015611a085781810151838201526020016119f0565b606060036000611dff85613b41565b60408051600160a060020a038716918101919091527f66756c6c41646472657373000000000000000000000000000000000000000000606080830182905260208084019182528451608085015284518994839260a0909101919087019080838360005b83811015611e7a578181015183820152602001611e62565b50505050905090810190601f168015611ea75780820380516001836020036101000a031916815260200191505b509450505050506040516020818303038152906040526040518082805190602001908083835b60208310611eec5780518252601f199092019160209182019101611ecd565b6001836020036101000a0380198251168184511680821785525050505050509050019150506040518091039020600019166000191681526020019081526020016000208054600181600116156101000203166002900480601f016020809104026020016040519081016040528092919081815260200182805460018160011615610100020316600290048015611fc35780601f10611f9857610100808354040283529160200191611fc3565b820191906000526020600020905b815481529060010190602001808311611fa657829003601f168201915b5050505050905092915050565b805160c81015611fdf57600080fd5b8060036000611fed86613b41565b60408051600160a060020a038816918101919091527f66756c6c41646472657373000000000000000000000000000000000000000000606080830182905260208084019182528451608085015284518a94839260a0909101919087019080838360005b83811015612068578181015183820152602001612050565b50505050905090810190601f1680156120955780820380516001836020036101000a031916815260200191505b509450505050506040516020818303038152906040526040518082805190602001908083835b602083106120da5780518252601f1990920191602091820191016120bb565b51815160001960209485036101000a01908116901991909116179052604080519490920184900390932086528583019690965250929093016000208451612128959194509201919050613cf8565b50505050565b60006008600061213d85613b41565b60408051600160a060020a038716918101919091527f7a6970636f646500000000000000000000000000000000000000000000000000606080830182905260208084019182528451608085015284518994839260a0909101919087019080838360008381101561184257818101518382015260200161182a565b80600860006121c586613b41565b60408051600160a060020a038816918101919091527f7a6970636f646500000000000000000000000000000000000000000000000000606080830182905260208084019182528451608085015284518a94839260a09091019190870190808383600083811015611a085781810151838201526020016119f0565b60006002600061224e85613b41565b60408051600160a060020a038716918101919091527f65787069726174696f6e44617465000000000000000000000000000000000000606080830182905260208084019182528451608085015284518994839260a0909101919087019080838360008381101561184257818101518382015260200161182a565b80600260006122d686613b41565b60408051600160a060020a038816918101919091527f65787069726174696f6e44617465000000000000000000000000000000000000606080830182905260208084019182528451608085015284518a94839260a09091019190870190808383600083811015611a085781810151838201526020016119f0565b60006002600061235f85613b41565b60408051600160a060020a038716918101919091527f6372656174656444617465000000000000000000000000000000000000000000606080830182905260208084019182528451608085015284518994839260a0909101919087019080838360008381101561184257818101518382015260200161182a565b80600260006123e786613b41565b60408051600160a060020a038816918101919091527f6372656174656444617465000000000000000000000000000000000000000000606080830182905260208084019182528451608085015284518a94839260a09091019190870190808383600083811015611a085781810151838201526020016119f0565b60006002600061247085613b41565b60408051600160a060020a038716918101919091527f7570646174656444617465000000000000000000000000000000000000000000606080830182905260208084019182528451608085015284518994839260a0909101919087019080838360008381101561184257818101518382015260200161182a565b80600260006124f886613b41565b60408051600160a060020a038816918101919091527f7570646174656444617465000000000000000000000000000000000000000000606080830182905260208084019182528451608085015284518a94839260a09091019190870190808383600083811015611a085781810151838201526020016119f0565b806002600061258086613b41565b60408051600160a060020a038816918101919091527f6d696e5468726573686f6c640000000000000000000000000000000000000000606080830182905260208084019182528451608085015284518a94839260a09091019190870190808383600083811015611a085781810151838201526020016119f0565b60006008600061260985613b41565b60408051600160a060020a038716918101919091527f636f6e74616374456d61696c0000000000000000000000000000000000000000606080830182905260208084019182528451608085015284518994839260a0909101919087019080838360008381101561184257818101518382015260200161182a565b806008600061269186613b41565b60408051600160a060020a038816918101919091527f636f6e74616374456d61696c0000000000000000000000000000000000000000606080830182905260208084019182528451608085015284518a94839260a09091019190870190808383600083811015611a085781810151838201526020016119f0565b60006006600061271a85613b41565b60408051600160a060020a038716918101919091527f6973436f6d70616e790000000000000000000000000000000000000000000000606080830182905260208084019182528451608085015284518994839260a0909101919087019080838360005b8381101561279557818101518382015260200161277d565b50505050905090810190601f1680156127c25780820380516001836020036101000a031916815260200191505b509450505050506040516020818303038152906040526040518082805190602001908083835b602083106128075780518252601f1990920191602091820191016127e8565b51815160209384036101000a600019018019909216911617905260408051929094018290039091208652850195909552929092016000205460ff169695505050505050565b806006600061285a86613b41565b60408051600160a060020a038816918101919091527f6973436f6d70616e790000000000000000000000000000000000000000000000606080830182905260208084019182528451608085015284518a94839260a0909101919087019080838360005b838110156128d55781810151838201526020016128bd565b50505050905090810190601f1680156129025780820380516001836020036101000a031916815260200191505b509450505050506040516020818303038152906040526040518082805190602001908083835b602083106129475780518252601f199092019160209182019101612928565b51815160209384036101000a60001901801990921691161790526040805192909401829003909120865285019590955292909201600020805460ff191694151594909417909355505050505050565b60606129a183613b41565b90506008600082847f66697273744e616d650000000000000000000000000000000000000000000000604051602001808060200184600160a060020a0316600160a060020a031681526020018360001916600019168152602001828103825285818151815260200191508051906020019080838360005b83811015612a30578181015183820152602001612a18565b50505050905090810190601f168015612a5d5780820380516001836020036101000a031916815260200191505b509450505050506040516020818303038152906040526040518082805190602001908083835b60208310612aa25780518252601f199092019160209182019101612a83565b51815160001960209485036101000a0190811690199190911617905260408051949092018490039093208652858301969096525092840160009081208190558451600160a060020a038816958101959095527f6c6173744e616d65000000000000000000000000000000000000000000000000606080870182905286860190815287516080880152875160089793968996508a955092939192839260a00191908701908083838b5b83811015612b62578181015183820152602001612b4a565b50505050905090810190601f168015612b8f5780820380516001836020036101000a031916815260200191505b509450505050506040516020818303038152906040526040518082805190602001908083835b60208310612bd45780518252601f199092019160209182019101612bb5565b51815160001960209485036101000a0190811690199190911617905260408051949092018490039093208652858301969096525092840160009081208190558451600160a060020a038816958101959095527f6c6963656e736549640000000000000000000000000000000000000000000000606080870182905286860190815287516080880152875160089793968996508a955092939192839260a00191908701908083838b5b83811015612c94578181015183820152602001612c7c565b50505050905090810190601f168015612cc15780820380516001836020036101000a031916815260200191505b509450505050506040516020818303038152906040526040518082805190602001908083835b60208310612d065780518252601f199092019160209182019101612ce7565b51815160001960209485036101000a0190811690199190911617905260408051949092018490039093208652858301969096525092840160009081208190558451600160a060020a038816958101959095527f7374617465000000000000000000000000000000000000000000000000000000606080870182905286860190815287516080880152875160089793968996508a955092939192839260a00191908701908083838b5b83811015612dc6578181015183820152602001612dae565b50505050905090810190601f168015612df35780820380516001836020036101000a031916815260200191505b509450505050506040516020818303038152906040526040518082805190602001908083835b60208310612e385780518252601f199092019160209182019101612e19565b51815160001960209485036101000a0190811690199190911617905260408051949092018490039093208652858301969096525092840160009081208190558451600160a060020a038816958101959095527f66756c6c41646472657373000000000000000000000000000000000000000000606080870182905286860190815287516080880152875160039793968996508a955092939192839260a00191908701908083838b5b83811015612ef8578181015183820152602001612ee0565b50505050905090810190601f168015612f255780820380516001836020036101000a031916815260200191505b509450505050506040516020818303038152906040526040518082805190602001908083835b60208310612f6a5780518252601f199092019160209182019101612f4b565b51815160209384036101000a600019018019909216911617905260408051929094018290039091208652850195909552929092016000908120612fb1945092509050613d76565b6008600082847f7a6970636f646500000000000000000000000000000000000000000000000000604051602001808060200184600160a060020a0316600160a060020a031681526020018360001916600019168152602001828103825285818151815260200191508051906020019080838360005b8381101561303e578181015183820152602001613026565b50505050905090810190601f16801561306b5780820380516001836020036101000a031916815260200191505b509450505050506040516020818303038152906040526040518082805190602001908083835b602083106130b05780518252601f199092019160209182019101613091565b51815160001960209485036101000a0190811690199190911617905260408051949092018490039093208652858301969096525092840160009081208190558451600160a060020a038816958101959095527f65787069726174696f6e44617465000000000000000000000000000000000000606080870182905286860190815287516080880152875160029793968996508a955092939192839260a00191908701908083838b5b83811015613170578181015183820152602001613158565b50505050905090810190601f16801561319d5780820380516001836020036101000a031916815260200191505b509450505050506040516020818303038152906040526040518082805190602001908083835b602083106131e25780518252601f1990920191602091820191016131c3565b51815160001960209485036101000a0190811690199190911617905260408051949092018490039093208652858301969096525092840160009081208190558451600160a060020a038816958101959095527f6372656174656444617465000000000000000000000000000000000000000000606080870182905286860190815287516080880152875160029793968996508a955092939192839260a00191908701908083838b5b838110156132a257818101518382015260200161328a565b50505050905090810190601f1680156132cf5780820380516001836020036101000a031916815260200191505b509450505050506040516020818303038152906040526040518082805190602001908083835b602083106133145780518252601f1990920191602091820191016132f5565b51815160001960209485036101000a0190811690199190911617905260408051949092018490039093208652858301969096525092840160009081208190558451600160a060020a038816958101959095527f7570646174656444617465000000000000000000000000000000000000000000606080870182905286860190815287516080880152875160029793968996508a955092939192839260a00191908701908083838b5b838110156133d45781810151838201526020016133bc565b50505050905090810190601f1680156134015780820380516001836020036101000a031916815260200191505b509450505050506040516020818303038152906040526040518082805190602001908083835b602083106134465780518252601f199092019160209182019101613427565b51815160001960209485036101000a0190811690199190911617905260408051949092018490039093208652858301969096525092840160009081208190558451600160a060020a038816958101959095527f6d696e5468726573686f6c640000000000000000000000000000000000000000606080870182905286860190815287516080880152875160029793968996508a955092939192839260a00191908701908083838b5b838110156135065781810151838201526020016134ee565b50505050905090810190601f1680156135335780820380516001836020036101000a031916815260200191505b509450505050506040516020818303038152906040526040518082805190602001908083835b602083106135785780518252601f199092019160209182019101613559565b51815160001960209485036101000a0190811690199190911617905260408051949092018490039093208652858301969096525092840160009081208190558451600160a060020a038816958101959095527f636f6e74616374456d61696c0000000000000000000000000000000000000000606080870182905286860190815287516080880152875160089793968996508a955092939192839260a00191908701908083838b5b83811015613638578181015183820152602001613620565b50505050905090810190601f1680156136655780820380516001836020036101000a031916815260200191505b509450505050506040516020818303038152906040526040518082805190602001908083835b602083106136aa5780518252601f19909201916020918201910161368b565b51815160001960209485036101000a0190811690199190911617905260408051949092018490039093208652858301969096525092840160009081208190558451600160a060020a038816958101959095527f6973436f6d70616e790000000000000000000000000000000000000000000000606080870182905286860190815287516080880152875160069793968996508a955092939192839260a00191908701908083838b5b8381101561376a578181015183820152602001613752565b50505050905090810190601f1680156137975780820380516001836020036101000a031916815260200191505b509450505050506040516020818303038152906040526040518082805190602001908083835b602083106137dc5780518252601f1990920191602091820191016137bd565b51815160209384036101000a60001901801990921691161790526040805192909401829003909120865285019590955292909201600020805460ff1916905550508315905061382e5761382e82613bbc565b505050565b61383e8c8c8c61197f565b6138498c8c8b611b46565b6138548c8c8a611c57565b61385f8c8c88611d68565b61386a8c8c89611fd0565b6138758c8c876121b7565b6138808c8c866122c8565b61388b8c8c856123d9565b6138968c8c846124ea565b6138a18c8c83612572565b8b156138b0576138b08b613bbc565b505050505050505050505050565b60006138c8610e16565b600160a060020a03166336ee77736040518163ffffffff1660e060020a028152600401602060405180830381600087803b1580156111a957600080fd5b604080517f636f6e6669726d6174696f6e7300000000000000000000000000000000000000602080830191909152600160a060020a038516828401527f766f746572730000000000000000000000000000000000000000000000000000606080840191909152835180840390910181526080909201928390528151600b9360009392909182918401908083835b602083106139b15780518252601f199092019160209182019101613992565b51815160209384036101000a60001901801990921691161790526040805192909401829003909120865285810196909652509290920160009081208054600181018255908252939020909201805473ffffffffffffffffffffffffffffffffffffffff1916600160a060020a039490941693909317909255505050565b613a978382613a3d86866118f6565b613a478787611abd565b613a518888611bce565b613a5b8989611df0565b613a658a8a611cdf565b613a6f8b8b61212e565b613a798c8c61223f565b613a838d8d612350565b613a8d8e8e612461565b6109848f8f6117b8565b613aa683826107c886866125fa565b613ab583826107de868661270b565b8215613ac557613ac58282613cb2565b61382e8383612996565b60008060606000613adf866105f6565b9093509150600090505b82811015613b335784600160a060020a03168282815181101515613b0957fe5b90602001906020020151600160a060020a03161415613b2b5760019350613b38565b600101613ae9565b600093505b50505092915050565b606081613b815760408051808201909152600a81527f76616c696461746f7273000000000000000000000000000000000000000000006020820152613bb6565b60408051808201909152600e81527f70656e64696e674368616e67657300000000000000000000000000000000000060208201525b92915050565b604080517f636f6e6669726d6174696f6e7300000000000000000000000000000000000000602080830191909152600160a060020a038416828401527f766f746572730000000000000000000000000000000000000000000000000000606080840191909152835180840390910181526080909201928390528151600b9360009392909182918401908083835b60208310613c685780518252601f199092019160209182019101613c49565b51815160209384036101000a600019018019909216911617905260408051929094018290039091208652850195909552929092016000908120613caf945092509050613dba565b50565b60606000613cbf8461161a565b9150600090505b815181101561212857613cf0838383815181101515613ce157fe5b90602001906020020151613905565b600101613cc6565b828054600181600116156101000203166002900490600052602060002090601f016020900481019282601f10613d3957805160ff1916838001178555613d66565b82800160010185558215613d66579182015b82811115613d66578251825591602001919060010190613d4b565b50613d72929150613dd4565b5090565b50805460018160011615610100020316600290046000825580601f10613d9c5750613caf565b601f016020900490600052602060002090810190613caf9190613dd4565b5080546000825590600052602060002090810190613caf91905b61082a91905b80821115613d725760008155600101613dda5600a165627a7a723058205c9fdc4c71e1300488379ab324a19e1c1e7a2053dc2311d13a09961dc97d54140029",
  "source": "pragma solidity ^0.4.24;\n\nimport \"./libs/SafeMath.sol\";\nimport \"./interfaces/IBallotsStorage.sol\";\nimport \"./interfaces/IProxyStorage.sol\";\nimport \"./interfaces/IKeysManager.sol\";\nimport \"./interfaces/IValidatorMetadata.sol\";\nimport \"./eternal-storage/EternalStorage.sol\";\nimport \"./abstracts/EnumThresholdTypes.sol\";\n\n\ncontract ValidatorMetadata is EternalStorage, EnumThresholdTypes, IValidatorMetadata {\n    using SafeMath for uint256;\n\n    bytes32 internal constant INIT_METADATA_DISABLED = keccak256(\"initMetadataDisabled\");\n    bytes32 internal constant OWNER = keccak256(\"owner\");\n    bytes32 internal constant PROXY_STORAGE = keccak256(\"proxyStorage\");\n\n    bytes32 internal constant CONFIRMATIONS = \"confirmations\";\n    bytes32 internal constant CONTACT_EMAIL = \"contactEmail\";\n    bytes32 internal constant CREATED_DATE = \"createdDate\";\n    bytes32 internal constant EXPIRATION_DATE = \"expirationDate\";\n    bytes32 internal constant FIRST_NAME = \"firstName\";\n    bytes32 internal constant FULL_ADDRESS = \"fullAddress\";\n    bytes32 internal constant IS_COMPANY = \"isCompany\";\n    bytes32 internal constant LAST_NAME = \"lastName\";\n    bytes32 internal constant LICENSE_ID = \"licenseId\";\n    bytes32 internal constant MIN_THRESHOLD = \"minThreshold\";\n    bytes32 internal constant STATE = \"state\";\n    bytes32 internal constant UPDATED_DATE = \"updatedDate\";\n    bytes32 internal constant VOTERS = \"voters\";\n    bytes32 internal constant ZIP_CODE = \"zipcode\";\n\n    event MetadataCleared(address indexed miningKey);\n    event MetadataCreated(address indexed miningKey);\n    event MetadataMoved(address indexed oldMiningKey, address indexed newMiningKey);\n    event ChangeRequestInitiated(address indexed miningKey);\n    event CancelledRequest(address indexed miningKey);\n    event Confirmed(address indexed miningKey, address votingSender, address votingSenderMiningKey);\n    event FinalizedChange(address indexed miningKey);\n\n    modifier onlyValidVotingKey(address _votingKey) {\n        require(_getKeysManager().isVotingActive(_votingKey));\n        _;\n    }\n\n    modifier onlyFirstTime(address _votingKey) {\n        address miningKey = _getKeysManager().getMiningKeyByVoting(_votingKey);\n        require(_getCreatedDate(false, miningKey) == 0);\n        _;\n    }\n\n    modifier onlyOwner() {\n        require(msg.sender == addressStorage[OWNER]);\n        _;\n    }\n\n    modifier onlyKeysManager() {\n        require(msg.sender == address(_getKeysManager()));\n        _;\n    }\n\n    function clearMetadata(address _miningKey)\n        external\n        onlyKeysManager\n    {\n        if (_ifPendingExist(_miningKey)) {\n            _deleteMetadata(true, _miningKey);\n        }\n        _deleteMetadata(false, _miningKey);\n        emit MetadataCleared(_miningKey);\n    }\n\n    function moveMetadata(address _oldMiningKey, address _newMiningKey)\n        external\n        onlyKeysManager\n    {\n        if (_ifPendingExist(_oldMiningKey)) {\n            _moveMetadata(true, _oldMiningKey, _newMiningKey);\n        }\n        _moveMetadata(false, _oldMiningKey, _newMiningKey);\n        emit MetadataMoved(_oldMiningKey, _newMiningKey);\n    }\n\n    function proxyStorage() public view returns (address) {\n        return addressStorage[PROXY_STORAGE];\n    }\n\n    function getValidatorName(address _miningKey) public view returns (\n        bytes32 firstName,\n        bytes32 lastName\n    ) {\n        firstName = _getFirstName(false, _miningKey);\n        lastName = _getLastName(false, _miningKey);\n    }\n\n    function validators(address _miningKey) public view returns (\n        bytes32 firstName,\n        bytes32 lastName,\n        bytes32 licenseId,\n        string fullAddress,\n        bytes32 state,\n        bytes32 zipcode,\n        uint256 expirationDate,\n        uint256 createdDate,\n        uint256 updatedDate,\n        uint256 minThreshold,\n        bytes32 contactEmail,\n        bool isCompany\n    ) {\n        return _validators(false, _miningKey);\n    }\n\n    function pendingChanges(address _miningKey) public view returns (\n        bytes32 firstName,\n        bytes32 lastName,\n        bytes32 licenseId,\n        string fullAddress,\n        bytes32 state,\n        bytes32 zipcode,\n        uint256 expirationDate,\n        uint256 createdDate,\n        uint256 updatedDate,\n        uint256 minThreshold,\n        bytes32 contactEmail,\n        bool isCompany\n    ) {\n        return _validators(true, _miningKey);\n    }\n\n    function confirmations(address _miningKey) public view returns (\n        uint256 count,\n        address[] voters\n    ) {\n        voters = _getConfirmationsVoters(_miningKey);\n        count = voters.length;\n    }\n\n    function initMetadataDisabled() public view returns(bool) {\n        return boolStorage[INIT_METADATA_DISABLED];\n    }\n\n    function initMetadata( // used for migration from v1.0 contracts\n        bytes32 _firstName,\n        bytes32 _lastName,\n        bytes32 _licenseId,\n        string _fullAddress,\n        bytes32 _state,\n        bytes32 _zipcode,\n        uint256 _expirationDate,\n        uint256 _createdDate,\n        uint256 _updatedDate,\n        uint256 _minThreshold,\n        address _miningKey\n    ) public onlyOwner {\n        require(_getKeysManager().isMiningActive(_miningKey));\n        require(_getCreatedDate(false, _miningKey) == 0);\n        require(_createdDate != 0);\n        require(!initMetadataDisabled());\n        _setMetadata(\n            false,\n            _miningKey,\n            _firstName,\n            _lastName,\n            _licenseId,\n            _fullAddress,\n            _state,\n            _zipcode,\n            _expirationDate,\n            _createdDate,\n            _updatedDate,\n            _minThreshold\n        );\n    }\n\n    function initMetadataDisable() public onlyOwner {\n        boolStorage[INIT_METADATA_DISABLED] = true;\n    }\n\n    function createMetadata(\n        bytes32 _firstName,\n        bytes32 _lastName,\n        bytes32 _licenseId,\n        string _fullAddress,\n        bytes32 _state,\n        bytes32 _zipcode,\n        uint256 _expirationDate,\n        bytes32 _contactEmail,\n        bool _isCompany\n    )\n        public\n        onlyValidVotingKey(msg.sender)\n        onlyFirstTime(msg.sender)\n    {\n        address miningKey = _getKeysManager().getMiningKeyByVoting(msg.sender);\n        _setMetadata(\n            false,\n            miningKey,\n            _firstName,\n            _lastName,\n            _licenseId,\n            _fullAddress,\n            _state,\n            _zipcode,\n            _expirationDate,\n            getTime(),\n            0,\n            getMinThreshold()\n        );\n        _setContactEmail(false, miningKey, _contactEmail);\n        _setIsCompany(false, miningKey, _isCompany);\n        emit MetadataCreated(miningKey);\n    }\n\n    function changeRequest(\n        bytes32 _firstName,\n        bytes32 _lastName,\n        bytes32 _licenseId,\n        string _fullAddress,\n        bytes32 _state,\n        bytes32 _zipcode,\n        uint256 _expirationDate,\n        bytes32 _contactEmail,\n        bool _isCompany\n    )\n        public\n        onlyValidVotingKey(msg.sender)\n    {\n        address miningKey = _getKeysManager().getMiningKeyByVoting(msg.sender);\n        _setMetadata(\n            true,\n            miningKey,\n            _firstName,\n            _lastName,\n            _licenseId,\n            _fullAddress,\n            _state,\n            _zipcode,\n            _expirationDate,\n            _getCreatedDate(false, miningKey),\n            getTime(),\n            _getMinThreshold(false, miningKey)\n        );\n        _setContactEmail(true, miningKey, _contactEmail);\n        _setIsCompany(true, miningKey, _isCompany);\n        emit ChangeRequestInitiated(miningKey);\n    }\n\n    function cancelPendingChange() public onlyValidVotingKey(msg.sender) returns(bool) {\n        address miningKey = _getKeysManager().getMiningKeyByVoting(msg.sender);\n        _deleteMetadata(true, miningKey);\n        emit CancelledRequest(miningKey);\n        return true;\n    }\n\n    function isValidatorAlreadyVoted(address _miningKey, address _voterMiningKey)\n        public\n        view\n        returns(bool)\n    {\n        IKeysManager keysManager = _getKeysManager();\n        address historyVoterMiningKey = _voterMiningKey;\n        uint256 maxDeep = keysManager.maxOldMiningKeysDeepCheck();\n\n        for (uint256 i = 0; i < maxDeep; i++) {\n            if (_isValidatorAlreadyVoted(_miningKey, historyVoterMiningKey)) {\n                return true;\n            }\n            address oldMiningKey = keysManager.getMiningKeyHistory(historyVoterMiningKey);\n            if (oldMiningKey == address(0)) {\n                break;\n            }\n            historyVoterMiningKey = oldMiningKey;\n        }\n\n        return false;\n    }\n\n    function confirmPendingChange(address _miningKey)\n        public\n        onlyValidVotingKey(msg.sender)\n    {\n        address voterMiningKey = _getKeysManager().getMiningKeyByVoting(msg.sender);\n        require(voterMiningKey != _miningKey);\n        require(!isValidatorAlreadyVoted(_miningKey, voterMiningKey));\n\n        uint256 confirmationsLimit = _getBallotsStorage().metadataChangeConfirmationsLimit();\n        require(_getConfirmationsVoters(_miningKey).length < confirmationsLimit);\n\n        _confirmationsVoterAdd(_miningKey, voterMiningKey);\n        emit Confirmed(_miningKey, msg.sender, voterMiningKey);\n    }\n\n    function finalize(address _miningKey) public onlyValidVotingKey(msg.sender) {\n        require(_ifPendingExist(_miningKey));\n        uint256 count = _getConfirmationsVoters(_miningKey).length;\n        uint256 minThreshold = _getMinThreshold(true, _miningKey);\n        require(count >= minThreshold);\n        _setFirstName(false, _miningKey, _getFirstName(true, _miningKey));\n        _setLastName(false, _miningKey, _getLastName(true, _miningKey));\n        _setLicenseId(false, _miningKey, _getLicenseId(true, _miningKey));\n        _setState(false, _miningKey, _getState(true, _miningKey));\n        _setFullAddress(false, _miningKey, _getFullAddress(true, _miningKey));\n        _setZipcode(false, _miningKey, _getZipcode(true, _miningKey));\n        _setExpirationDate(false, _miningKey, _getExpirationDate(true, _miningKey));\n        _setCreatedDate(false, _miningKey, _getCreatedDate(true, _miningKey));\n        _setUpdatedDate(false, _miningKey, _getUpdatedDate(true, _miningKey));\n        _setMinThreshold(false, _miningKey, minThreshold);\n        _setContactEmail(false, _miningKey, _getContactEmail(true, _miningKey));\n        _setIsCompany(false, _miningKey, _getIsCompany(true, _miningKey));\n        _deleteMetadata(true, _miningKey);\n        emit FinalizedChange(_miningKey);\n    }\n\n    function getTime() public view returns(uint256) {\n        return now;\n    }\n\n    function getMinThreshold() public view returns(uint256) {\n        return _getBallotsStorage().getBallotThreshold(uint256(ThresholdTypes.MetadataChange));\n    }\n\n    function _storeName(bool _pending) private pure returns(string) {\n        return _pending ? \"pendingChanges\" : \"validators\";\n    }\n\n    function _getBallotsStorage() private view returns(IBallotsStorage) {\n        return IBallotsStorage(IProxyStorage(proxyStorage()).getBallotsStorage());\n    }\n\n    function _getContactEmail(bool _pending, address _miningKey)\n        private\n        view\n        returns(bytes32)\n    {\n        return bytes32Storage[keccak256(abi.encode(\n            _storeName(_pending), _miningKey, CONTACT_EMAIL\n        ))];\n    }\n\n    function _getFirstName(bool _pending, address _miningKey)\n        private\n        view\n        returns(bytes32)\n    {\n        return bytes32Storage[keccak256(abi.encode(\n            _storeName(_pending), _miningKey, FIRST_NAME\n        ))];\n    }\n\n    function _getIsCompany(bool _pending, address _miningKey)\n        private\n        view\n        returns(bool)\n    {\n        return boolStorage[keccak256(abi.encode(\n            _storeName(_pending), _miningKey, IS_COMPANY\n        ))];\n    }\n\n    function _getLastName(bool _pending, address _miningKey)\n        private\n        view\n        returns(bytes32)\n    {\n        return bytes32Storage[keccak256(abi.encode(\n            _storeName(_pending), _miningKey, LAST_NAME\n        ))];\n    }\n\n    function _getLicenseId(bool _pending, address _miningKey)\n        private\n        view\n        returns(bytes32)\n    {\n        return bytes32Storage[keccak256(abi.encode(\n            _storeName(_pending), _miningKey, LICENSE_ID\n        ))];\n    }\n\n    function _getFullAddress(bool _pending, address _miningKey)\n        private\n        view\n        returns(string)\n    {\n        return stringStorage[keccak256(abi.encode(\n            _storeName(_pending), _miningKey, FULL_ADDRESS\n        ))];\n    }\n\n    function _getState(bool _pending, address _miningKey)\n        private\n        view\n        returns(bytes32)\n    {\n        return bytes32Storage[keccak256(abi.encode(\n            _storeName(_pending), _miningKey, STATE\n        ))];\n    }\n\n    function _getZipcode(bool _pending, address _miningKey)\n        private\n        view\n        returns(bytes32)\n    {\n        return bytes32Storage[keccak256(abi.encode(\n            _storeName(_pending), _miningKey, ZIP_CODE\n        ))];\n    }\n\n    function _getExpirationDate(bool _pending, address _miningKey)\n        private\n        view\n        returns(uint256)\n    {\n        return uintStorage[keccak256(abi.encode(\n            _storeName(_pending), _miningKey, EXPIRATION_DATE\n        ))];\n    }\n\n    function _getCreatedDate(bool _pending, address _miningKey)\n        private\n        view\n        returns(uint256)\n    {\n        return uintStorage[keccak256(abi.encode(\n            _storeName(_pending), _miningKey, CREATED_DATE\n        ))];\n    }\n\n    function _getUpdatedDate(bool _pending, address _miningKey)\n        private\n        view\n        returns(uint256)\n    {\n        return uintStorage[keccak256(abi.encode(\n            _storeName(_pending), _miningKey, UPDATED_DATE\n        ))];\n    }\n\n    function _getMinThreshold(bool _pending, address _miningKey)\n        private\n        view\n        returns(uint256)\n    {\n        return uintStorage[keccak256(abi.encode(\n            _storeName(_pending), _miningKey, MIN_THRESHOLD\n        ))];\n    }\n\n    function _getConfirmationsVoters(address _miningKey)\n        private\n        view\n        returns(address[] voters)\n    {\n        voters = addressArrayStorage[keccak256(abi.encode(\n            CONFIRMATIONS, _miningKey, VOTERS\n        ))];\n    }\n\n    function _getKeysManager() private view returns(IKeysManager) {\n        return IKeysManager(IProxyStorage(proxyStorage()).getKeysManager());\n    }\n\n    function _ifPendingExist(address _miningKey) private view returns(bool) {\n        return _getCreatedDate(true, _miningKey) > 0;\n    }\n\n    function _isValidatorAlreadyVoted(address _miningKey, address _voterMiningKey)\n        private\n        view\n        returns(bool)\n    {\n        uint256 count;\n        address[] memory voters;\n        (count, voters) = confirmations(_miningKey);\n        for (uint256 i = 0; i < count; i++) {\n            if (voters[i] == _voterMiningKey) {\n                return true;\n            }\n        }\n        return false;\n    }\n\n    function _deleteMetadata(bool _pending, address _miningKey) private {\n        string memory _store = _storeName(_pending);\n        delete bytes32Storage[keccak256(abi.encode(_store, _miningKey, FIRST_NAME))];\n        delete bytes32Storage[keccak256(abi.encode(_store, _miningKey, LAST_NAME))];\n        delete bytes32Storage[keccak256(abi.encode(_store, _miningKey, LICENSE_ID))];\n        delete bytes32Storage[keccak256(abi.encode(_store, _miningKey, STATE))];\n        delete stringStorage[keccak256(abi.encode(_store, _miningKey, FULL_ADDRESS))];\n        delete bytes32Storage[keccak256(abi.encode(_store, _miningKey, ZIP_CODE))];\n        delete uintStorage[keccak256(abi.encode(_store, _miningKey, EXPIRATION_DATE))];\n        delete uintStorage[keccak256(abi.encode(_store, _miningKey, CREATED_DATE))];\n        delete uintStorage[keccak256(abi.encode(_store, _miningKey, UPDATED_DATE))];\n        delete uintStorage[keccak256(abi.encode(_store, _miningKey, MIN_THRESHOLD))];\n        delete bytes32Storage[keccak256(abi.encode(_store, _miningKey, CONTACT_EMAIL))];\n        delete boolStorage[keccak256(abi.encode(_store, _miningKey, IS_COMPANY))];\n        if (_pending) {\n            _confirmationsVotersClear(_miningKey);\n        }\n    }\n\n    function _moveMetadata(bool _pending, address _oldMiningKey, address _newMiningKey) private {\n        _setMetadata(\n            _pending,\n            _newMiningKey,\n            _getFirstName(_pending, _oldMiningKey),\n            _getLastName(_pending, _oldMiningKey),\n            _getLicenseId(_pending, _oldMiningKey),\n            _getFullAddress(_pending, _oldMiningKey),\n            _getState(_pending, _oldMiningKey),\n            _getZipcode(_pending, _oldMiningKey),\n            _getExpirationDate(_pending, _oldMiningKey),\n            _getCreatedDate(_pending, _oldMiningKey),\n            _getUpdatedDate(_pending, _oldMiningKey),\n            _getMinThreshold(_pending, _oldMiningKey)\n        );\n        _setContactEmail(_pending, _newMiningKey, _getContactEmail(_pending, _oldMiningKey));\n        _setIsCompany(_pending, _newMiningKey, _getIsCompany(_pending, _oldMiningKey));\n\n        if (_pending) {\n            _confirmationsVotersCopy(_oldMiningKey, _newMiningKey);\n        }\n\n        _deleteMetadata(_pending, _oldMiningKey);\n    }\n\n    function _setContactEmail(bool _pending, address _miningKey, bytes32 _contactEmail) private {\n        bytes32Storage[keccak256(abi.encode(\n            _storeName(_pending),\n            _miningKey,\n            CONTACT_EMAIL\n        ))] = _contactEmail;\n    }\n\n    function _setFirstName(bool _pending, address _miningKey, bytes32 _firstName) private {\n        bytes32Storage[keccak256(abi.encode(\n            _storeName(_pending),\n            _miningKey,\n            FIRST_NAME\n        ))] = _firstName;\n    }\n\n    function _setIsCompany(bool _pending, address _miningKey, bool _isCompany) private {\n        boolStorage[keccak256(abi.encode(\n            _storeName(_pending),\n            _miningKey,\n            IS_COMPANY\n        ))] = _isCompany;\n    }\n\n    function _setLastName(bool _pending, address _miningKey, bytes32 _lastName) private {\n        bytes32Storage[keccak256(abi.encode(\n            _storeName(_pending),\n            _miningKey,\n            LAST_NAME\n        ))] = _lastName;\n    }\n\n    function _setLicenseId(bool _pending, address _miningKey, bytes32 _licenseId) private {\n        bytes32Storage[keccak256(abi.encode(\n            _storeName(_pending),\n            _miningKey,\n            LICENSE_ID\n        ))] = _licenseId;\n    }\n\n    function _setState(bool _pending, address _miningKey, bytes32 _state) private {\n        bytes32Storage[keccak256(abi.encode(\n            _storeName(_pending),\n            _miningKey,\n            STATE\n        ))] = _state;\n    }\n\n    function _setFullAddress(\n        bool _pending,\n        address _miningKey,\n        string _fullAddress\n    ) private {\n        require(bytes(_fullAddress).length <= 200);\n        stringStorage[keccak256(abi.encode(\n            _storeName(_pending),\n            _miningKey,\n            FULL_ADDRESS\n        ))] = _fullAddress;\n    }\n\n    function _setZipcode(bool _pending, address _miningKey, bytes32 _zipcode) private {\n        bytes32Storage[keccak256(abi.encode(\n            _storeName(_pending),\n            _miningKey,\n            ZIP_CODE\n        ))] = _zipcode;\n    }\n\n    function _setExpirationDate(\n        bool _pending,\n        address _miningKey,\n        uint256 _expirationDate\n    ) private {\n        uintStorage[keccak256(abi.encode(\n            _storeName(_pending),\n            _miningKey,\n            EXPIRATION_DATE\n        ))] = _expirationDate;\n    }\n\n    function _setCreatedDate(\n        bool _pending,\n        address _miningKey,\n        uint256 _createdDate\n    ) private {\n        uintStorage[keccak256(abi.encode(\n            _storeName(_pending),\n            _miningKey,\n            CREATED_DATE\n        ))] = _createdDate;\n    }\n\n    function _setUpdatedDate(\n        bool _pending,\n        address _miningKey,\n        uint256 _updatedDate\n    ) private {\n        uintStorage[keccak256(abi.encode(\n            _storeName(_pending),\n            _miningKey,\n            UPDATED_DATE\n        ))] = _updatedDate;\n    }\n\n    function _setMetadata(\n        bool _pending,\n        address _miningKey,\n        bytes32 _firstName,\n        bytes32 _lastName,\n        bytes32 _licenseId,\n        string _fullAddress,\n        bytes32 _state,\n        bytes32 _zipcode,\n        uint256 _expirationDate,\n        uint256 _createdDate,\n        uint256 _updatedDate,\n        uint256 _minThreshold\n    ) private {\n        _setFirstName(_pending, _miningKey, _firstName);\n        _setLastName(_pending, _miningKey, _lastName);\n        _setLicenseId(_pending, _miningKey, _licenseId);\n        _setState(_pending, _miningKey, _state);\n        _setFullAddress(_pending, _miningKey, _fullAddress);\n        _setZipcode(_pending, _miningKey, _zipcode);\n        _setExpirationDate(_pending, _miningKey, _expirationDate);\n        _setCreatedDate(_pending, _miningKey, _createdDate);\n        _setUpdatedDate(_pending, _miningKey, _updatedDate);\n        _setMinThreshold(_pending, _miningKey, _minThreshold);\n        if (_pending) {\n            _confirmationsVotersClear(_miningKey);\n        }\n    }\n\n    function _setMinThreshold(\n        bool _pending,\n        address _miningKey,\n        uint256 _minThreshold\n    ) private {\n        uintStorage[keccak256(abi.encode(\n            _storeName(_pending),\n            _miningKey,\n            MIN_THRESHOLD\n        ))] = _minThreshold;\n    }\n\n    function _confirmationsVoterAdd(address _miningKey, address _voterMiningKey) private {\n        addressArrayStorage[keccak256(abi.encode(\n            CONFIRMATIONS, _miningKey, VOTERS\n        ))].push(_voterMiningKey);\n    }\n\n    function _confirmationsVotersClear(address _miningKey) private {\n        delete addressArrayStorage[keccak256(abi.encode(\n            CONFIRMATIONS, _miningKey, VOTERS\n        ))];\n    }\n\n    function _confirmationsVotersCopy(address _oldMiningKey, address _newMiningKey) private {\n        address[] memory voters = _getConfirmationsVoters(_oldMiningKey);\n        for (uint256 i = 0; i < voters.length; i++) {\n            _confirmationsVoterAdd(_newMiningKey, voters[i]);\n        }\n    }\n\n    function _validators(bool _pending, address _miningKey) private view returns (\n        bytes32 firstName,\n        bytes32 lastName,\n        bytes32 licenseId,\n        string fullAddress,\n        bytes32 state,\n        bytes32 zipcode,\n        uint256 expirationDate,\n        uint256 createdDate,\n        uint256 updatedDate,\n        uint256 minThreshold,\n        bytes32 contactEmail,\n        bool isCompany\n    ) {\n        firstName = _getFirstName(_pending, _miningKey);\n        lastName = _getLastName(_pending, _miningKey);\n        licenseId = _getLicenseId(_pending, _miningKey);\n        fullAddress = _getFullAddress(_pending, _miningKey);\n        state = _getState(_pending, _miningKey);\n        zipcode = _getZipcode(_pending, _miningKey);\n        expirationDate = _getExpirationDate(_pending, _miningKey);\n        createdDate = _getCreatedDate(_pending, _miningKey);\n        updatedDate = _getUpdatedDate(_pending, _miningKey);\n        minThreshold = _getMinThreshold(_pending, _miningKey);\n        contactEmail = _getContactEmail(_pending, _miningKey);\n        isCompany = _getIsCompany(_pending, _miningKey);\n    }\n\n}",
  "sourcePath": "/Users/gabrielfournier1/Documents/POA_Network/building-network-open-eth/poco-deployement-rebase/repo-deployement-github-etc/poa-network-consensus-contracts/contracts/ValidatorMetadata.sol",
  "compiler": {
    "name": "solc",
    "version": "0.4.26+commit.4563c3fc.Emscripten.clang"
  },
  "schemaVersion": "2.0.3",
  "updatedAt": "2022-06-10T07:17:16.239Z"
}