{
  "contractName": "VotingToChangeKeys",
  "abi": [
    {
      "constant": true,
      "inputs": [
        {
          "name": "_id",
          "type": "uint256"
        }
      ],
      "name": "canBeFinalizedNow",
      "outputs": [
        {
          "name": "",
          "type": "bool"
        }
      ],
      "payable": false,
      "stateMutability": "view",
      "type": "function"
    },
    {
      "constant": true,
      "inputs": [],
      "name": "minBallotDuration",
      "outputs": [
        {
          "name": "",
          "type": "uint256"
        }
      ],
      "payable": false,
      "stateMutability": "view",
      "type": "function"
    },
    {
      "constant": false,
      "inputs": [
        {
          "name": "_id",
          "type": "uint256"
        }
      ],
      "name": "finalize",
      "outputs": [],
      "payable": false,
      "stateMutability": "nonpayable",
      "type": "function"
    },
    {
      "constant": true,
      "inputs": [
        {
          "name": "_id",
          "type": "uint256"
        }
      ],
      "name": "getQuorumState",
      "outputs": [
        {
          "name": "",
          "type": "uint256"
        }
      ],
      "payable": false,
      "stateMutability": "view",
      "type": "function"
    },
    {
      "constant": true,
      "inputs": [
        {
          "name": "_id",
          "type": "uint256"
        },
        {
          "name": "_votingKey",
          "type": "address"
        }
      ],
      "name": "isValidVote",
      "outputs": [
        {
          "name": "",
          "type": "bool"
        }
      ],
      "payable": false,
      "stateMutability": "view",
      "type": "function"
    },
    {
      "constant": true,
      "inputs": [
        {
          "name": "_index",
          "type": "uint256"
        }
      ],
      "name": "activeBallots",
      "outputs": [
        {
          "name": "",
          "type": "uint256"
        }
      ],
      "payable": false,
      "stateMutability": "view",
      "type": "function"
    },
    {
      "constant": true,
      "inputs": [],
      "name": "initDisabled",
      "outputs": [
        {
          "name": "",
          "type": "bool"
        }
      ],
      "payable": false,
      "stateMutability": "view",
      "type": "function"
    },
    {
      "constant": true,
      "inputs": [],
      "name": "getTime",
      "outputs": [
        {
          "name": "",
          "type": "uint256"
        }
      ],
      "payable": false,
      "stateMutability": "view",
      "type": "function"
    },
    {
      "constant": true,
      "inputs": [],
      "name": "activeBallotsLength",
      "outputs": [
        {
          "name": "",
          "type": "uint256"
        }
      ],
      "payable": false,
      "stateMutability": "view",
      "type": "function"
    },
    {
      "constant": true,
      "inputs": [
        {
          "name": "_id",
          "type": "uint256"
        }
      ],
      "name": "isActive",
      "outputs": [
        {
          "name": "",
          "type": "bool"
        }
      ],
      "payable": false,
      "stateMutability": "view",
      "type": "function"
    },
    {
      "constant": true,
      "inputs": [
        {
          "name": "_id",
          "type": "uint256"
        }
      ],
      "name": "getIndex",
      "outputs": [
        {
          "name": "",
          "type": "uint256"
        }
      ],
      "payable": false,
      "stateMutability": "view",
      "type": "function"
    },
    {
      "constant": true,
      "inputs": [],
      "name": "maxBallotDuration",
      "outputs": [
        {
          "name": "",
          "type": "uint256"
        }
      ],
      "payable": false,
      "stateMutability": "pure",
      "type": "function"
    },
    {
      "constant": true,
      "inputs": [],
      "name": "migrateDisabled",
      "outputs": [
        {
          "name": "",
          "type": "bool"
        }
      ],
      "payable": false,
      "stateMutability": "view",
      "type": "function"
    },
    {
      "constant": false,
      "inputs": [],
      "name": "migrateDisable",
      "outputs": [],
      "payable": false,
      "stateMutability": "nonpayable",
      "type": "function"
    },
    {
      "constant": true,
      "inputs": [],
      "name": "proxyStorage",
      "outputs": [
        {
          "name": "",
          "type": "address"
        }
      ],
      "payable": false,
      "stateMutability": "view",
      "type": "function"
    },
    {
      "constant": false,
      "inputs": [
        {
          "name": "_id",
          "type": "uint256"
        },
        {
          "name": "_choice",
          "type": "uint256"
        }
      ],
      "name": "vote",
      "outputs": [],
      "payable": false,
      "stateMutability": "nonpayable",
      "type": "function"
    },
    {
      "constant": true,
      "inputs": [
        {
          "name": "_id",
          "type": "uint256"
        }
      ],
      "name": "getMinThresholdOfVoters",
      "outputs": [
        {
          "name": "",
          "type": "uint256"
        }
      ],
      "payable": false,
      "stateMutability": "view",
      "type": "function"
    },
    {
      "constant": true,
      "inputs": [
        {
          "name": "_id",
          "type": "uint256"
        },
        {
          "name": "_votingKey",
          "type": "address"
        }
      ],
      "name": "hasAlreadyVoted",
      "outputs": [
        {
          "name": "",
          "type": "bool"
        }
      ],
      "payable": false,
      "stateMutability": "view",
      "type": "function"
    },
    {
      "constant": true,
      "inputs": [
        {
          "name": "_id",
          "type": "uint256"
        },
        {
          "name": "_miningKey",
          "type": "address"
        }
      ],
      "name": "areOldMiningKeysVoted",
      "outputs": [
        {
          "name": "",
          "type": "bool"
        }
      ],
      "payable": false,
      "stateMutability": "view",
      "type": "function"
    },
    {
      "constant": true,
      "inputs": [],
      "name": "nextBallotId",
      "outputs": [
        {
          "name": "",
          "type": "uint256"
        }
      ],
      "payable": false,
      "stateMutability": "view",
      "type": "function"
    },
    {
      "constant": true,
      "inputs": [
        {
          "name": "_miningKey",
          "type": "address"
        }
      ],
      "name": "validatorActiveBallots",
      "outputs": [
        {
          "name": "",
          "type": "uint256"
        }
      ],
      "payable": false,
      "stateMutability": "view",
      "type": "function"
    },
    {
      "constant": false,
      "inputs": [
        {
          "name": "_prevVotingToChange",
          "type": "address"
        }
      ],
      "name": "migrateBasicAll",
      "outputs": [],
      "payable": false,
      "stateMutability": "nonpayable",
      "type": "function"
    },
    {
      "anonymous": false,
      "inputs": [
        {
          "indexed": true,
          "name": "id",
          "type": "uint256"
        },
        {
          "indexed": true,
          "name": "ballotType",
          "type": "uint256"
        },
        {
          "indexed": true,
          "name": "creator",
          "type": "address"
        }
      ],
      "name": "BallotCreated",
      "type": "event"
    },
    {
      "anonymous": false,
      "inputs": [
        {
          "indexed": true,
          "name": "id",
          "type": "uint256"
        },
        {
          "indexed": true,
          "name": "voter",
          "type": "address"
        }
      ],
      "name": "BallotFinalized",
      "type": "event"
    },
    {
      "anonymous": false,
      "inputs": [
        {
          "indexed": true,
          "name": "id",
          "type": "uint256"
        },
        {
          "indexed": false,
          "name": "decision",
          "type": "uint256"
        },
        {
          "indexed": true,
          "name": "voter",
          "type": "address"
        },
        {
          "indexed": false,
          "name": "time",
          "type": "uint256"
        },
        {
          "indexed": false,
          "name": "voterMiningKey",
          "type": "address"
        }
      ],
      "name": "Vote",
      "type": "event"
    },
    {
      "constant": false,
      "inputs": [
        {
          "name": "_startTime",
          "type": "uint256"
        },
        {
          "name": "_endTime",
          "type": "uint256"
        },
        {
          "name": "_ballotType",
          "type": "uint256"
        },
        {
          "name": "_affectedKeyType",
          "type": "uint256"
        },
        {
          "name": "_memo",
          "type": "string"
        },
        {
          "name": "_affectedKey",
          "type": "address"
        },
        {
          "name": "_miningKey",
          "type": "address"
        }
      ],
      "name": "createBallot",
      "outputs": [
        {
          "name": "",
          "type": "uint256"
        }
      ],
      "payable": false,
      "stateMutability": "nonpayable",
      "type": "function"
    },
    {
      "constant": false,
      "inputs": [
        {
          "name": "_startTime",
          "type": "uint256"
        },
        {
          "name": "_endTime",
          "type": "uint256"
        },
        {
          "name": "_memo",
          "type": "string"
        },
        {
          "name": "_newMiningKey",
          "type": "address"
        },
        {
          "name": "_newVotingKey",
          "type": "address"
        },
        {
          "name": "_newPayoutKey",
          "type": "address"
        }
      ],
      "name": "createBallotToAddNewValidator",
      "outputs": [
        {
          "name": "",
          "type": "uint256"
        }
      ],
      "payable": false,
      "stateMutability": "nonpayable",
      "type": "function"
    },
    {
      "constant": true,
      "inputs": [
        {
          "name": "_id",
          "type": "uint256"
        }
      ],
      "name": "getBallotInfo",
      "outputs": [
        {
          "name": "startTime",
          "type": "uint256"
        },
        {
          "name": "endTime",
          "type": "uint256"
        },
        {
          "name": "affectedKey",
          "type": "address"
        },
        {
          "name": "affectedKeyType",
          "type": "uint256"
        },
        {
          "name": "newVotingKey",
          "type": "address"
        },
        {
          "name": "newPayoutKey",
          "type": "address"
        },
        {
          "name": "miningKey",
          "type": "address"
        },
        {
          "name": "totalVoters",
          "type": "uint256"
        },
        {
          "name": "progress",
          "type": "int256"
        },
        {
          "name": "isFinalized",
          "type": "bool"
        },
        {
          "name": "ballotType",
          "type": "uint256"
        },
        {
          "name": "creator",
          "type": "address"
        },
        {
          "name": "memo",
          "type": "string"
        },
        {
          "name": "canBeFinalizedNow",
          "type": "bool"
        }
      ],
      "payable": false,
      "stateMutability": "view",
      "type": "function"
    },
    {
      "constant": false,
      "inputs": [
        {
          "name": "_minBallotDuration",
          "type": "uint256"
        }
      ],
      "name": "init",
      "outputs": [],
      "payable": false,
      "stateMutability": "nonpayable",
      "type": "function"
    },
    {
      "constant": false,
      "inputs": [
        {
          "name": "_id",
          "type": "uint256"
        },
        {
          "name": "_prevVotingToChange",
          "type": "address"
        },
        {
          "name": "_voters",
          "type": "address[]"
        }
      ],
      "name": "migrateBasicOne",
      "outputs": [],
      "payable": false,
      "stateMutability": "nonpayable",
      "type": "function"
    }
  ],
  "bytecode": "0x608060405234801561001057600080fd5b50614df1806100206000396000f3006080604052600436106101445763ffffffff60e060020a6000350416629b38fa811461014957806302a99b9d1461017557806305261aea1461019c57806308dbb18e146101b6578063141bd92a146101ce578063288fa7391461031b5780633bf05e951461033f57806347e82f311461035757806352a36938146103d1578063557ed1ba146103e65780636ccc0234146103fb57806373ece1001461041057806382afd23b146104775780638e7cb6e11461048f57806396bc6ef0146104a75780639fc18d4b146104bc578063a3ac1eb1146104d1578063a896f64b146104e6578063ae4b1b5b14610567578063b384abef14610598578063b7b0422d146105b3578063c088003d146105cb578063c14bfd29146105e3578063c7dea77714610607578063dc6bfbb51461062b578063f49774ee14610640578063f71de2ed14610661575b600080fd5b34801561015557600080fd5b50610161600435610682565b604080519115158252519081900360200190f35b34801561018157600080fd5b5061018a610693565b60408051918252519081900360200190f35b3480156101a857600080fd5b506101b46004356106d5565b005b3480156101c257600080fd5b5061018a600435610790565b3480156101da57600080fd5b506101e6600435610864565b604051808f81526020018e81526020018d600160a060020a0316600160a060020a031681526020018c81526020018b600160a060020a0316600160a060020a031681526020018a600160a060020a0316600160a060020a0316815260200189600160a060020a0316600160a060020a031681526020018881526020018781526020018615151515815260200185815260200184600160a060020a0316600160a060020a031681526020018060200183151515158152602001828103825284818151815260200191508051906020019080838360005b838110156102d35781810151838201526020016102bb565b50505050905090810190601f1680156103005780820380516001836020036101000a031916815260200191505b509f5050505050505050505050505050505060405180910390f35b34801561032757600080fd5b50610161600435600160a060020a0360243516610925565b34801561034b57600080fd5b5061018a6004356109f9565b34801561036357600080fd5b50604080516020600460443581810135601f810184900484028501840190955284845261018a94823594602480359536959460649492019190819084018382808284375094975050600160a060020a03853581169650602086013581169560400135169350610a4492505050565b3480156103dd57600080fd5b50610161610c3f565b3480156103f257600080fd5b5061018a610c83565b34801561040757600080fd5b5061018a610c87565b34801561041c57600080fd5b5060408051602060046044358181013583810280860185019096528085526101b49583359560248035600160a060020a031696369695606495939492019291829185019084908082843750949750610cb69650505050505050565b34801561048357600080fd5b50610161600435611537565b34801561049b57600080fd5b5061018a60043561156c565b3480156104b357600080fd5b5061018a6115fe565b3480156104c857600080fd5b50610161611605565b3480156104dd57600080fd5b506101b4611649565b3480156104f257600080fd5b50604080516020601f60843560048181013592830184900484028501840190955281845261018a948035946024803595604435956064359536959460a494909391019190819084018382808284375094975050600160a060020a0385358116965060209095013590941693506116f792505050565b34801561057357600080fd5b5061057c6117eb565b60408051600160a060020a039092168252519081900360200190f35b3480156105a457600080fd5b506101b4600435602435611835565b3480156105bf57600080fd5b506101b4600435611a63565b3480156105d757600080fd5b5061018a600435611a6f565b3480156105ef57600080fd5b50610161600435600160a060020a0360243516611b01565b34801561061357600080fd5b50610161600435600160a060020a0360243516611bc1565b34801561063757600080fd5b5061018a611d20565b34801561064c57600080fd5b5061018a600160a060020a0360043516611d61565b34801561066d57600080fd5b506101b4600160a060020a0360043516611de2565b600061068d8261221c565b92915050565b604080517f6d696e42616c6c6f744475726174696f6e000000000000000000000000000000815281519081900360110190206000908152600260205220545b90565b336106de6123e4565b600160a060020a03166362b46d64826040518263ffffffff1660e060020a0281526004018082600160a060020a0316600160a060020a03168152602001915050602060405180830381600087803b15801561073857600080fd5b505af115801561074c573d6000803e3d6000fd5b505050506040513d602081101561076257600080fd5b5051151561076f57600080fd5b6107788261221c565b151561078357600080fd5b61078c8261245c565b5050565b60408051600080516020614da68339815191526020808301919091528183018490527f71756f72756d53746174650000000000000000000000000000000000000000006060808401919091528351808403909101815260809092019283905281516000936002938593909282918401908083835b602083106108235780518252601f199092019160209182019101610804565b51815160209384036101000a600019018019909216911617905260408051929094018290039091208652850195909552929092016000205495945050505050565b600080600080600080600080600080600080606060006108838f612522565b9d5061088e8f6125b4565b9c506108998f612646565b9b506108a48f612723565b9a506108af8f6127b5565b99506108ba8f612847565b98506108c58f6128d9565b97506108d08f61296b565b96506108db8f6129fd565b95506108e68f612a8f565b94506108f18f612b66565b93506108fc8f612bf8565b92506109078f612c8a565b91506109128f61221c565b905091939597999b9d5091939597999b9d565b6000806000806109336123e4565b600160a060020a0316632d260227866040518263ffffffff1660e060020a0281526004018082600160a060020a0316600160a060020a03168152602001915050602060405180830381600087803b15801561098d57600080fd5b505af11580156109a1573d6000803e3d6000fd5b505050506040513d60208110156109b757600080fd5b505192506109c58684612dff565b1591506109d28684611bc1565b1590508180156109e657506109e686611537565b80156109ef5750805b9695505050505050565b60408051600080516020614d868339815191528152815190819003600d01902060009081526009602052908120805483908110610a3257fe5b90600052602060002001549050919050565b6000806000610a516123e4565b91506000600160a060020a031682600160a060020a031663fa46eacd876040518263ffffffff1660e060020a0281526004018082600160a060020a0316600160a060020a03168152602001915050602060405180830381600087803b158015610ab957600080fd5b505af1158015610acd573d6000803e3d6000fd5b505050506040513d6020811015610ae357600080fd5b5051600160a060020a031614610af857600080fd5b604080517fc04455b5000000000000000000000000000000000000000000000000000000008152600160a060020a038681166004830152915160009285169163c04455b591602480830192602092919082900301818787803b158015610b5d57600080fd5b505af1158015610b71573d6000803e3d6000fd5b505050506040513d6020811015610b8757600080fd5b5051600160a060020a031614610b9c57600080fd5b600160a060020a038581169087161415610bb557600080fd5b600160a060020a038481169087161415610bce57600080fd5b600160a060020a03851615801590610bee5750600160a060020a03841615155b15610c0c57600160a060020a038581169085161415610c0c57600080fd5b610c1d89896001808b8b60006116f7565b9050610c298186612ee6565b610c338185612fe3565b98975050505050505050565b604080517f696e697444697361626c656400000000000000000000000000000000000000008152815190819003600c01902060009081526006602052205460ff1690565b4290565b60408051600080516020614d868339815191528152815190819003600d01902060009081526009602052205490565b6040805160d960020a6437bbb732b902815281519081900360050190206000908152600460205290812054819081908190819081906060908290819033600160a060020a0390911614610d0857600080fd5b600160a060020a038b161515610d1d57600080fd5b610d25610c3f565b1515610d3057600080fd5b610d38611605565b15610d4257600080fd5b8a9850895189600160a060020a03166343d3a4c18e6040518263ffffffff1660e060020a02815260040180828152602001915050602060405180830381600087803b158015610d9057600080fd5b505af1158015610da4573d6000803e3d6000fd5b505050506040513d6020811015610dba57600080fd5b505114610dc657600080fd5b88600160a060020a0316639067b6778d6040518263ffffffff1660e060020a02815260040180828152602001915050602060405180830381600087803b158015610e0f57600080fd5b505af1158015610e23573d6000803e3d6000fd5b505050506040513d6020811015610e3957600080fd5b50518a51909850610e4b908d90613075565b610ec98c8a600160a060020a03166323e1a0a88f6040518263ffffffff1660e060020a02815260040180828152602001915050602060405180830381600087803b158015610e9857600080fd5b505af1158015610eac573d6000803e3d6000fd5b505050506040513d6020811015610ec257600080fd5b505161314a565b610f478c8a600160a060020a031663c088003d8f6040518263ffffffff1660e060020a02815260040180828152602001915050602060405180830381600087803b158015610f1657600080fd5b505af1158015610f2a573d6000803e3d6000fd5b505050506040513d6020811015610f4057600080fd5b505161322b565b610fc58c8a600160a060020a031663bc2be1be8f6040518263ffffffff1660e060020a02815260040180828152602001915050602060405180830381600087803b158015610f9457600080fd5b505af1158015610fa8573d6000803e3d6000fd5b505050506040513d6020811015610fbe57600080fd5b50516132bd565b610fcf8c8961334f565b88600160a060020a031663ff84c45f8d6040518263ffffffff1660e060020a02815260040180828152602001915050600060405180830381600087803b15801561101857600080fd5b505af115801561102c573d6000803e3d6000fd5b505050506040513d6000823e601f3d908101601f191682016040526101c081101561105657600080fd5b8151602083015160408401516060850151608086015160a087015160c088015160e08901516101008a01516101208b01516101408c01516101608d01516101808e01516101a08f0180519d9f9c9e9b9d9a9c999b989a979996989597949693959294919392830192916401000000008111156110d157600080fd5b820160208101848111156110e457600080fd5b81516401000000008111828201871017156110fe57600080fd5b50509291905050509f509f50509e50509d50509c505050505050506111238c886133e1565b6111308c8760ff16613473565b61113a8c86613505565b6111448c85613597565b61114e8c84613629565b6111cc8c8a600160a060020a031663ce21986b8f6040518263ffffffff1660e060020a02815260040180828152602001915050602060405180830381600087803b15801561119b57600080fd5b505af11580156111af573d6000803e3d6000fd5b505050506040513d60208110156111c557600080fd5b505161370f565b61124a8c8a600160a060020a031663905f5ce88f6040518263ffffffff1660e060020a02815260040180828152602001915050602060405180830381600087803b15801561121957600080fd5b505af115801561122d573d6000803e3d6000fd5b505050506040513d602081101561124357600080fd5b50516137a1565b6112c88c8a600160a060020a0316635dfbf9e98f6040518263ffffffff1660e060020a02815260040180828152602001915050602060405180830381600087803b15801561129757600080fd5b505af11580156112ab573d6000803e3d6000fd5b505050506040513d60208110156112c157600080fd5b5051613833565b6113468c8a600160a060020a0316632d23bced8f6040518263ffffffff1660e060020a02815260040180828152602001915050602060405180830381600087803b15801561131557600080fd5b505af1158015611329573d6000803e3d6000fd5b505050506040513d602081101561133f57600080fd5b50516138c5565b88600160a060020a0316639a5737866040518163ffffffff1660e060020a028152600401602060405180830381600087803b15801561138457600080fd5b505af1158015611398573d6000803e3d6000fd5b505050506040513d60208110156113ae57600080fd5b50519150600090505b895181101561152957876113c9610c83565b116115005788600160a060020a031663c14bfd298d84600160a060020a0316632befe2e18e868151811015156113fb57fe5b906020019060200201516040518263ffffffff1660e060020a0281526004018082600160a060020a0316600160a060020a03168152602001915050602060405180830381600087803b15801561145057600080fd5b505af1158015611464573d6000803e3d6000fd5b505050506040513d602081101561147a57600080fd5b50516040805160e060020a63ffffffff86160281526004810193909352600160a060020a0390911660248301525160448083019260209291908290030181600087803b1580156114c957600080fd5b505af11580156114dd573d6000803e3d6000fd5b505050506040513d60208110156114f357600080fd5b5051151561150057600080fd5b6115218c8b8381518110151561151257fe5b90602001906020020151613957565b6001016113b7565b505050505050505050505050565b6000611541610c83565b61154a83612522565b1115801561068d575061155c826125b4565b611564610c83565b111592915050565b60408051600080516020614da68339815191526020808301919091528183018490527f696e646578000000000000000000000000000000000000000000000000000000606080840191909152835180840390910181526080909201928390528151600093600293859390928291840190808383602083106108235780518252601f199092019160209182019101610804565b6212750090565b604080517f6d69677261746544697361626c656400000000000000000000000000000000008152815190819003600f01902060009081526006602052205460ff1690565b6040805160d960020a6437bbb732b9028152815190819003600501902060009081526004602052205433600160a060020a039091161461168857600080fd5b611690610c3f565b151561169b57600080fd5b6116a3611605565b156116ad57600080fd5b604080517f6d69677261746544697361626c656400000000000000000000000000000000008152815190819003600f0190206000908152600660205220805460ff19166001179055565b6000806117026139f9565b604080517f3fd626d4000000000000000000000000000000000000000000000000000000008152600481018a905260248101899052600160a060020a038781166044830152868116606483015291519290911691633fd626d4916084808201926020929091908290030181600087803b15801561177e57600080fd5b505af1158015611792573d6000803e3d6000fd5b505050506040513d60208110156117a857600080fd5b505115156117b557600080fd5b6117c1878a8a88613a40565b90506117cd81856137a1565b6117d78187613833565b6117e181846138c5565b610c33818861370f565b604080517f70726f787953746f7261676500000000000000000000000000000000000000008152815190819003600c019020600090815260046020522054600160a060020a031690565b6000336118406123e4565b600160a060020a03166362b46d64826040518263ffffffff1660e060020a0281526004018082600160a060020a0316600160a060020a03168152602001915050602060405180830381600087803b15801561189a57600080fd5b505af11580156118ae573d6000803e3d6000fd5b505050506040513d60208110156118c457600080fd5b505115156118d157600080fd5b6118d9611605565b15156118e457600080fd5b6118ed84612a8f565b156118f757600080fd5b6118ff6123e4565b600160a060020a0316632d260227336040518263ffffffff1660e060020a0281526004018082600160a060020a0316600160a060020a03168152602001915050602060405180830381600087803b15801561195957600080fd5b505af115801561196d573d6000803e3d6000fd5b505050506040513d602081101561198357600080fd5b505191506119918433610925565b151561199c57600080fd5b60018314156119bf576119ba846119b2866129fd565b6001016133e1565b6119dd565b6002831415610144576119ba8460016119d7876129fd565b036133e1565b6119e78483613957565b611a0a84611a0560016119f98861296b565b9063ffffffff613beb16565b613075565b33847f1fad44b452b708aff155b3190058d690f8a0f2e2463fc757b96d1ce1877d0ccc85611a36610c83565b604080519283526020830191909152600160a060020a03871682820152519081900360600190a350505050565b611a6c81613c01565b50565b60408051600080516020614da68339815191526020808301919091528183018490527f6d696e5468726573686f6c644f66566f74657273000000000000000000000000606080840191909152835180840390910181526080909201928390528151600093600293859390928291840190808383602083106108235780518252601f199092019160209182019101610804565b600080600160a060020a0383161515611b1d5760009150611bba565b611b256123e4565b600160a060020a0316632d260227846040518263ffffffff1660e060020a0281526004018082600160a060020a0316600160a060020a03168152602001915050602060405180830381600087803b158015611b7f57600080fd5b505af1158015611b93573d6000803e3d6000fd5b505050506040513d6020811015611ba957600080fd5b50519050611bb78482612dff565b91505b5092915050565b60008181808080611bd06123e4565b935083600160a060020a031663b9bdaa076040518163ffffffff1660e060020a028152600401602060405180830381600087803b158015611c1057600080fd5b505af1158015611c24573d6000803e3d6000fd5b505050506040513d6020811015611c3a57600080fd5b50519250600091505b82821015611d105783600160a060020a031663a5a36dee866040518263ffffffff1660e060020a0281526004018082600160a060020a0316600160a060020a03168152602001915050602060405180830381600087803b158015611ca657600080fd5b505af1158015611cba573d6000803e3d6000fd5b505050506040513d6020811015611cd057600080fd5b50519050600160a060020a0381161515611ced5760009550611d15565b611cf78882612dff565b15611d055760019550611d15565b935060010183611c43565b600095505b505050505092915050565b604080517f6e65787442616c6c6f74496400000000000000000000000000000000000000008152815190819003600c01902060009081526002602052205490565b604080517f76616c696461746f7241637469766542616c6c6f747300000000000000000000602080830191909152600160a060020a038416828401528251808303840181526060909201928390528151600093600293859390928291840190808383602083106108235780518252601f199092019160209182019101610804565b6040805160d960020a6437bbb732b90281528151908190036005019020600090815260046020529081205481908190819081908190819033600160a060020a0390911614611e2f57600080fd5b600160a060020a0388161515611e4457600080fd5b611e4c610c3f565b1515611e5757600080fd5b611e5f611605565b15611e6957600080fd5b879650611e746117eb565b600160a060020a0316638b8414c46040518163ffffffff1660e060020a028152600401602060405180830381600087803b158015611eb157600080fd5b505af1158015611ec5573d6000803e3d6000fd5b505050506040513d6020811015611edb57600080fd5b5051604080517fdc6bfbb50000000000000000000000000000000000000000000000000000000081529051919750611f7091600160a060020a038a169163dc6bfbb59160048083019260209291908290030181600087803b158015611f3f57600080fd5b505af1158015611f53573d6000803e3d6000fd5b505050506040513d6020811015611f6957600080fd5b5051613c5b565b86600160a060020a0316636ccc02346040518163ffffffff1660e060020a028152600401602060405180830381600087803b158015611fae57600080fd5b505af1158015611fc2573d6000803e3d6000fd5b505050506040513d6020811015611fd857600080fd5b50519350611fe4613c9b565b600094505b838510156120795761206e87600160a060020a0316633bf05e95876040518263ffffffff1660e060020a02815260040180828152602001915050602060405180830381600087803b15801561203d57600080fd5b505af1158015612051573d6000803e3d6000fd5b505050506040513d602081101561206757600080fd5b5051613cd3565b600190940193611fe9565b85600160a060020a0316630eaba26a6040518163ffffffff1660e060020a028152600401602060405180830381600087803b1580156120b757600080fd5b505af11580156120cb573d6000803e3d6000fd5b505050506040513d60208110156120e157600080fd5b50516000955092505b828510156122125785600160a060020a031663900eb5a8866040518263ffffffff1660e060020a02815260040180828152602001915050602060405180830381600087803b15801561213b57600080fd5b505af115801561214f573d6000803e3d6000fd5b505050506040513d602081101561216557600080fd5b5051604080517ff49774ee000000000000000000000000000000000000000000000000000000008152600160a060020a03808416600483015291519294509089169163f49774ee916024808201926020929091908290030181600087803b1580156121cf57600080fd5b505af11580156121e3573d6000803e3d6000fd5b505050506040513d60208110156121f957600080fd5b505190506122078282613d14565b6001909401936120ea565b5050505050505050565b600080600080600061222c611605565b151561223b57600094506123db565b612243610c83565b935061224e86612522565b9250612258611d20565b861061226757600094506123db565b8383111561227857600094506123db565b61228186612a8f565b1561228f57600094506123db565b6122976117eb565b600160a060020a0316638b8414c46040518163ffffffff1660e060020a028152600401602060405180830381600087803b1580156122d457600080fd5b505af11580156122e8573d6000803e3d6000fd5b505050506040513d60208110156122fe57600080fd5b5051604080517fa87563370000000000000000000000000000000000000000000000000000000081529051600160a060020a039092169163a8756337916004808201926020929091908290030181600087803b15801561235d57600080fd5b505af1158015612371573d6000803e3d6000fd5b505050506040513d602081101561238757600080fd5b5051915081151561239b57600094506123db565b816123a58761296b565b10156123bc576123b486611537565b1594506123db565b6123cc848463ffffffff613d9516565b90506123d6610693565b811194505b50505050919050565b60006123ee6117eb565b600160a060020a0316639a5737866040518163ffffffff1660e060020a028152600401602060405180830381600087803b15801561242b57600080fd5b505af115801561243f573d6000803e3d6000fd5b505050506040513d602081101561245557600080fd5b5051905090565b61246581613da7565b151561247d5761247481613e20565b61247d81613e4f565b6000612488826129fd565b1380156124a5575061249981611a6f565b6124a28261296b565b10155b156124d3576124b381613f17565b156124c9576124c48160025b613473565b6124ce565b611a6c565b6124de565b6124de8160036124bf565b6124e781613f6d565b6124f281600161314a565b604051339082907f3b208472607d900e1f689c976139d1147afc463fa00df525e9aff8b0604d298490600090a350565b60408051600080516020614da68339815191526020808301919091528183018490527f737461727454696d650000000000000000000000000000000000000000000000606080840191909152835180840390910181526080909201928390528151600093600293859390928291840190808383602083106108235780518252601f199092019160209182019101610804565b60408051600080516020614da68339815191526020808301919091528183018490527f656e6454696d6500000000000000000000000000000000000000000000000000606080840191909152835180840390910181526080909201928390528151600093600293859390928291840190808383602083106108235780518252601f199092019160209182019101610804565b60408051600080516020614da68339815191526020808301919091528183018490527f61666665637465644b65790000000000000000000000000000000000000000006060808401919091528351808403909101815260809092019283905281516000936004938593909282918401908083835b602083106126d95780518252601f1990920191602091820191016126ba565b51815160209384036101000a6000190180199092169116179052604080519290940182900390912086528501959095529290920160002054600160a060020a031695945050505050565b60408051600080516020614da68339815191526020808301919091528183018490527f61666665637465644b6579547970650000000000000000000000000000000000606080840191909152835180840390910181526080909201928390528151600093600293859390928291840190808383602083106108235780518252601f199092019160209182019101610804565b60408051600080516020614da68339815191526020808301919091528183018490527f6e6577566f74696e674b65790000000000000000000000000000000000000000606080840191909152835180840390910181526080909201928390528151600093600493859390928291840190808383602083106126d95780518252601f1990920191602091820191016126ba565b60408051600080516020614da68339815191526020808301919091528183018490527f6e65775061796f75744b65790000000000000000000000000000000000000000606080840191909152835180840390910181526080909201928390528151600093600493859390928291840190808383602083106126d95780518252601f1990920191602091820191016126ba565b60408051600080516020614da68339815191526020808301919091528183018490527f6d696e696e674b65790000000000000000000000000000000000000000000000606080840191909152835180840390910181526080909201928390528151600093600493859390928291840190808383602083106126d95780518252601f1990920191602091820191016126ba565b60408051600080516020614da68339815191526020808301919091528183018490527f746f74616c566f74657273000000000000000000000000000000000000000000606080840191909152835180840390910181526080909201928390528151600093600293859390928291840190808383602083106108235780518252601f199092019160209182019101610804565b60408051600080516020614da68339815191526020808301919091528183018490527f70726f6772657373000000000000000000000000000000000000000000000000606080840191909152835180840390910181526080909201928390528151600093600793859390928291840190808383602083106108235780518252601f199092019160209182019101610804565b60408051600080516020614da68339815191526020808301919091528183018490527f697346696e616c697a65640000000000000000000000000000000000000000006060808401919091528351808403909101815260809092019283905281516000936006938593909282918401908083835b60208310612b225780518252601f199092019160209182019101612b03565b51815160209384036101000a600019018019909216911617905260408051929094018290039091208652850195909552929092016000205460ff1695945050505050565b60408051600080516020614da68339815191526020808301919091528183018490527f62616c6c6f745479706500000000000000000000000000000000000000000000606080840191909152835180840390910181526080909201928390528151600093600293859390928291840190808383602083106108235780518252601f199092019160209182019101610804565b60408051600080516020614da68339815191526020808301919091528183018490527f63726561746f7200000000000000000000000000000000000000000000000000606080840191909152835180840390910181526080909201928390528151600093600493859390928291840190808383602083106126d95780518252601f1990920191602091820191016126ba565b60408051600080516020614da68339815191526020808301919091528183018490527f6d656d6f0000000000000000000000000000000000000000000000000000000060608381019190915283518084038201815260809093019384905282519093600393600093909282918401908083835b60208310612d1c5780518252601f199092019160209182019101612cfd565b6001836020036101000a0380198251168184511680821785525050505050509050019150506040518091039020600019166000191681526020019081526020016000208054600181600116156101000203166002900480601f016020809104026020016040519081016040528092919081815260200182805460018160011615610100020316600290048015612df35780601f10612dc857610100808354040283529160200191612df3565b820191906000526020600020905b815481529060010190602001808311612dd657829003601f168201915b50505050509050919050565b60408051600080516020614da68339815191526020808301919091528183018590527f766f7465727300000000000000000000000000000000000000000000000000006060830152600160a060020a0384166080808401919091528351808403909101815260a09092019283905281516000936006938593909282918401908083835b60208310612ea15780518252601f199092019160209182019101612e82565b51815160209384036101000a600019018019909216911617905260408051929094018290039091208652850195909552929092016000205460ff169695505050505050565b60408051600080516020614da68339815191526020808301919091528183018590527f6e6577566f74696e674b657900000000000000000000000000000000000000006060808401919091528351808403909101815260809092019283905281518493600493600093909282918401908083835b60208310612f795780518252601f199092019160209182019101612f5a565b51815160209384036101000a60001901801990921691161790526040805192909401829003909120865285019590955292909201600020805473ffffffffffffffffffffffffffffffffffffffff1916600160a060020a0395909516949094179093555050505050565b60408051600080516020614da68339815191526020808301919091528183018590527f6e65775061796f75744b6579000000000000000000000000000000000000000060608084019190915283518084039091018152608090920192839052815184936004936000939092829184019080838360208310612f795780518252601f199092019160209182019101612f5a565b60408051600080516020614da68339815191526020808301919091528183018590527f746f74616c566f746572730000000000000000000000000000000000000000006060808401919091528351808403909101815260809092019283905281518493600293600093909282918401908083835b602083106131085780518252601f1990920191602091820191016130e9565b51815160209384036101000a60001901801990921691161790526040805192909401829003909120865285019590955292909201600020939093555050505050565b60408051600080516020614da68339815191526020808301919091528183018590527f697346696e616c697a65640000000000000000000000000000000000000000006060808401919091528351808403909101815260809092019283905281518493600693600093909282918401908083835b602083106131dd5780518252601f1990920191602091820191016131be565b51815160209384036101000a60001901801990921691161790526040805192909401829003909120865285019590955292909201600020805460ff1916941515949094179093555050505050565b60408051600080516020614da68339815191526020808301919091528183018590527f6d696e5468726573686f6c644f66566f74657273000000000000000000000000606080840191909152835180840390910181526080909201928390528151849360029360009390928291840190808383602083106131085780518252601f1990920191602091820191016130e9565b60408051600080516020614da68339815191526020808301919091528183018590527f737461727454696d650000000000000000000000000000000000000000000000606080840191909152835180840390910181526080909201928390528151849360029360009390928291840190808383602083106131085780518252601f1990920191602091820191016130e9565b60408051600080516020614da68339815191526020808301919091528183018590527f656e6454696d6500000000000000000000000000000000000000000000000000606080840191909152835180840390910181526080909201928390528151849360029360009390928291840190808383602083106131085780518252601f1990920191602091820191016130e9565b60408051600080516020614da68339815191526020808301919091528183018590527f70726f6772657373000000000000000000000000000000000000000000000000606080840191909152835180840390910181526080909201928390528151849360079360009390928291840190808383602083106131085780518252601f1990920191602091820191016130e9565b60408051600080516020614da68339815191526020808301919091528183018590527f71756f72756d5374617465000000000000000000000000000000000000000000606080840191909152835180840390910181526080909201928390528151849360029360009390928291840190808383602083106131085780518252601f1990920191602091820191016130e9565b60408051600080516020614da68339815191526020808301919091528183018590527f696e646578000000000000000000000000000000000000000000000000000000606080840191909152835180840390910181526080909201928390528151849360029360009390928291840190808383602083106131085780518252601f1990920191602091820191016130e9565b60408051600080516020614da68339815191526020808301919091528183018590527f63726561746f720000000000000000000000000000000000000000000000000060608084019190915283518084039091018152608090920192839052815184936004936000939092829184019080838360208310612f795780518252601f199092019160209182019101612f5a565b60408051600080516020614da68339815191526020808301919091528183018590527f6d656d6f000000000000000000000000000000000000000000000000000000006060808401919091528351808403909101815260809092019283905281518493600393600093909282918401908083835b602083106136bc5780518252601f19909201916020918201910161369d565b51815160001960209485036101000a0190811690199190911617905260408051949092018490039093208652858301969096525092909301600020845161370a959194509201919050614caf565b505050565b60408051600080516020614da68339815191526020808301919091528183018590527f62616c6c6f745479706500000000000000000000000000000000000000000000606080840191909152835180840390910181526080909201928390528151849360029360009390928291840190808383602083106131085780518252601f1990920191602091820191016130e9565b60408051600080516020614da68339815191526020808301919091528183018590527f61666665637465644b657900000000000000000000000000000000000000000060608084019190915283518084039091018152608090920192839052815184936004936000939092829184019080838360208310612f795780518252601f199092019160209182019101612f5a565b60408051600080516020614da68339815191526020808301919091528183018590527f61666665637465644b6579547970650000000000000000000000000000000000606080840191909152835180840390910181526080909201928390528151849360029360009390928291840190808383602083106131085780518252601f1990920191602091820191016130e9565b60408051600080516020614da68339815191526020808301919091528183018590527f6d696e696e674b6579000000000000000000000000000000000000000000000060608084019190915283518084039091018152608090920192839052815184936004936000939092829184019080838360208310612f795780518252601f199092019160209182019101612f5a565b60408051600080516020614da68339815191526020808301919091528183018590527f766f7465727300000000000000000000000000000000000000000000000000006060830152600160a060020a0384166080808401919091528351808403909101815260a090920192839052815160019360069360009390928291840190808383602083106131dd5780518252601f1990920191602091820191016131be565b6000613a036117eb565b600160a060020a03166336ee77736040518163ffffffff1660e060020a028152600401602060405180830381600087803b15801561242b57600080fd5b600080600033613a4e6123e4565b600160a060020a03166362b46d64826040518263ffffffff1660e060020a0281526004018082600160a060020a0316600160a060020a03168152602001915050602060405180830381600087803b158015613aa857600080fd5b505af1158015613abc573d6000803e3d6000fd5b505050506040513d6020811015613ad257600080fd5b50511515613adf57600080fd5b613ae7611605565b1515613af257600080fd5b613afa6123e4565b600160a060020a0316632d260227336040518263ffffffff1660e060020a0281526004018082600160a060020a0316600160a060020a03168152602001915050602060405180830381600087803b158015613b5457600080fd5b505af1158015613b68573d6000803e3d6000fd5b505050506040513d6020811015613b7e57600080fd5b50519250613b8b83613fc2565b1515613b9657600080fd5b613ba588888888600188613fdc565b9150613bb2826000613075565b613bbd8260006133e1565b613bce82613bc9610c87565b613505565b613bd782613cd3565b613be083614118565b509695505050505050565b600082820183811015613bfa57fe5b9392505050565b6040805160d960020a6437bbb732b9028152815190819003600501902060009081526004602052205433600160a060020a0390911614613c4057600080fd5b613c48611605565b15613c5257600080fd5b611a6c8161412f565b604080517f6e65787442616c6c6f74496400000000000000000000000000000000000000008152815190819003600c019020600090815260026020522055565b60408051600080516020614d868339815191528152815190819003600d01902060009081526009602052908120613cd191614d2d565b565b60408051600080516020614d868339815191528152815190819003600d01902060009081526009602090815291812080546001810182559082529190200155565b604080517f76616c696461746f7241637469766542616c6c6f747300000000000000000000602080830191909152600160a060020a038516828401528251808303840181526060909201928390528151849360029360009390928291840190808383602083106131085780518252601f1990920191602091820191016130e9565b600082821115613da157fe5b50900390565b604080517f66696e616c697a6543616c6c6564000000000000000000000000000000000000602080830191909152818301849052825180830384018152606090920192839052815160009360069385939092829184019080838360208310612b225780518252601f199092019160209182019101612b03565b600080613e2c83612bf8565b9150613e3782611d61565b9050600081111561370a5761370a8260018303613d14565b604080517f66696e616c697a6543616c6c65640000000000000000000000000000000000006020808301919091528183018490528251808303840181526060909201928390528151600193600693600093909282918401908083835b60208310613eca5780518252601f199092019160209182019101613eab565b51815160209384036101000a60001901801990921691161790526040805192909401829003909120865285019590955292909201600020805460ff19169415159490941790935550505050565b600080613f2383612b66565b90506001811415613f3e57613f378361421d565b9150613f67565b6002811415613f5057613f37836147e2565b6003811415613f6257613f37836148e9565b600091505b50919050565b6000806000613f7b8461156c565b92506001613f87610c87565b039150613f93826109f9565b9050613f9f8382614b7f565b613fa98184613505565b613fb4826000614b7f565b613fbc614bc9565b50505050565b6000613fcc614c15565b613fd583611d61565b1092915050565b600080868660008083118015613ff25750600082115b1515613ffd57600080fd5b8282118015614012575061400f610c83565b83115b151561401d57600080fd5b61402d828463ffffffff613d9516565b9050614037610693565b811161404257600080fd5b61404a6115fe565b81111561405657600080fd5b61405e610c3f565b151561406957600080fd5b614071611d20565b935061408c61408785600163ffffffff613beb16565b613c5b565b614096848b6132bd565b6140a0848a61334f565b6140ab84600061314a565b6140b58488613473565b6140c6846140c1614c5c565b61322b565b6140d08487613597565b6140da8489613629565b60405133908c9086907fd1ba591c76ef71222e2d30b8277758713cc6eef1de29efaf98a716744ac2420b90600090a450919998505050505050505050565b611a6c8161412a60016119f985611d61565b613d14565b6040805160d960020a6437bbb732b9028152815190819003600501902060009081526004602052205433600160a060020a039091161461416e57600080fd5b614176610c3f565b1561418057600080fd5b6141886115fe565b811061419357600080fd5b604080517f6d696e42616c6c6f744475726174696f6e00000000000000000000000000000081528151908190036011018120600090815260026020908152838220949094557f696e697444697361626c656400000000000000000000000000000000000000008252825191829003600c01909120815260069092529020805460ff19166001179055565b60008060008060008061422e6123e4565b945061423987612646565b935061424487612723565b925060018314156145a857614258876127b5565b91506000600160a060020a031685600160a060020a031663fa46eacd846040518263ffffffff1660e060020a0281526004018082600160a060020a0316600160a060020a03168152602001915050602060405180830381600087803b1580156142c057600080fd5b505af11580156142d4573d6000803e3d6000fd5b505050506040513d60208110156142ea57600080fd5b5051600160a060020a03161461430357600095506147d8565b61430c87612847565b90506000600160a060020a031685600160a060020a031663c04455b5836040518263ffffffff1660e060020a0281526004018082600160a060020a0316600160a060020a03168152602001915050602060405180830381600087803b15801561437457600080fd5b505af1158015614388573d6000803e3d6000fd5b505050506040513d602081101561439e57600080fd5b5051600160a060020a0316146143b757600095506147d8565b84600160a060020a03166338949514856040518263ffffffff1660e060020a0281526004018082600160a060020a0316600160a060020a03168152602001915050602060405180830381600087803b15801561441257600080fd5b505af1158015614426573d6000803e3d6000fd5b505050506040513d602081101561443c57600080fd5b5051151561444d57600095506147d8565b600160a060020a038216156144f657604080517f9503ab72000000000000000000000000000000000000000000000000000000008152600160a060020a0384811660048301528681166024830152915191871691639503ab72916044808201926020929091908290030181600087803b1580156144c957600080fd5b505af11580156144dd573d6000803e3d6000fd5b505050506040513d60208110156144f357600080fd5b50505b600160a060020a0381161561459f57604080517f651ebb5f000000000000000000000000000000000000000000000000000000008152600160a060020a038381166004830152868116602483015291519187169163651ebb5f916044808201926020929091908290030181600087803b15801561457257600080fd5b505af1158015614586573d6000803e3d6000fd5b505050506040513d602081101561459c57600080fd5b50505b600195506147d8565b600283141561470957604080517ffa46eacd000000000000000000000000000000000000000000000000000000008152600160a060020a038681166004830152915160009288169163fa46eacd91602480830192602092919082900301818787803b15801561461657600080fd5b505af115801561462a573d6000803e3d6000fd5b505050506040513d602081101561464057600080fd5b5051600160a060020a03161461465957600095506147d8565b84600160a060020a0316639503ab72856146728a6128d9565b6040518363ffffffff1660e060020a0281526004018083600160a060020a0316600160a060020a0316815260200182600160a060020a0316600160a060020a0316815260200192505050602060405180830381600087803b1580156146d657600080fd5b505af11580156146ea573d6000803e3d6000fd5b505050506040513d602081101561470057600080fd5b505195506147d8565b60038314156147d357604080517fc04455b5000000000000000000000000000000000000000000000000000000008152600160a060020a038681166004830152915160009288169163c04455b591602480830192602092919082900301818787803b15801561477757600080fd5b505af115801561478b573d6000803e3d6000fd5b505050506040513d60208110156147a157600080fd5b5051600160a060020a0316146147ba57600095506147d8565b84600160a060020a031663651ebb5f856146728a6128d9565b600095505b5050505050919050565b60008060006147ef6123e4565b91506147fa84612723565b9050600181141561489b5781600160a060020a0316637ebf43fc61481d86612646565b6040518263ffffffff1660e060020a0281526004018082600160a060020a0316600160a060020a03168152602001915050602060405180830381600087803b15801561486857600080fd5b505af115801561487c573d6000803e3d6000fd5b505050506040513d602081101561489257600080fd5b505192506148e2565b60028114156148bc5781600160a060020a0316632a968f4961481d866128d9565b60038114156148dd5781600160a060020a0316631e534e7161481d866128d9565b600092505b5050919050565b60008060008060006148f96123e4565b935061490486612723565b925060018314156149c75783600160a060020a031663d44379cf61492788612646565b614930896128d9565b6040518363ffffffff1660e060020a0281526004018083600160a060020a0316600160a060020a0316815260200182600160a060020a0316600160a060020a0316815260200192505050602060405180830381600087803b15801561499457600080fd5b505af11580156149a8573d6000803e3d6000fd5b505050506040513d60208110156149be57600080fd5b505194506123db565b6002831415614a9d576149d986612646565b91506000600160a060020a031684600160a060020a031663fa46eacd846040518263ffffffff1660e060020a0281526004018082600160a060020a0316600160a060020a03168152602001915050602060405180830381600087803b158015614a4157600080fd5b505af1158015614a55573d6000803e3d6000fd5b505050506040513d6020811015614a6b57600080fd5b5051600160a060020a031614614a8457600094506123db565b83600160a060020a031663d33eb5ae83614930896128d9565b6003831415614b7357614aaf86612646565b90506000600160a060020a031684600160a060020a031663c04455b5836040518263ffffffff1660e060020a0281526004018082600160a060020a0316600160a060020a03168152602001915050602060405180830381600087803b158015614b1757600080fd5b505af1158015614b2b573d6000803e3d6000fd5b505050506040513d6020811015614b4157600080fd5b5051600160a060020a031614614b5a57600094506123db565b83600160a060020a031663771ae29982614930896128d9565b50600095945050505050565b60408051600080516020614d868339815191528152815190819003600d0190206000908152600960205220805482919084908110614bb957fe5b6000918252602090912001555050565b6000614bd3610c87565b1115613cd15760408051600080516020614d868339815191528152815190819003600d0190206000908152600960205220805490611a6c906000198301614d4b565b6000614c1f6139f9565b600160a060020a031663fcff021c6040518163ffffffff1660e060020a028152600401602060405180830381600087803b15801561242b57600080fd5b6000614c666139f9565b600160a060020a03166345e23b5360016040518263ffffffff1660e060020a02815260040180828152602001915050602060405180830381600087803b15801561242b57600080fd5b828054600181600116156101000203166002900490600052602060002090601f016020900481019282601f10614cf057805160ff1916838001178555614d1d565b82800160010185558215614d1d579182015b82811115614d1d578251825591602001919060010190614d02565b50614d29929150614d6b565b5090565b5080546000825590600052602060002090810190611a6c9190614d6b565b81548183558181111561370a5760008381526020902061370a9181019083015b6106d291905b80821115614d295760008155600101614d71560061637469766542616c6c6f747300000000000000000000000000000000000000766f74696e675374617465000000000000000000000000000000000000000000a165627a7a72305820541f268bc426fde086a6a8b2960d97577424cbc63b8c6317c6539385c05e4c800029",
  "source": "pragma solidity ^0.4.24;\n\nimport \"./interfaces/IKeysManager.sol\";\nimport \"./interfaces/IVotingToChangeKeysPrev.sol\";\nimport \"./abstracts/VotingToChange.sol\";\nimport \"./abstracts/EnumKeyTypes.sol\";\n\n\ncontract VotingToChangeKeys is VotingToChange, EnumKeyTypes {\n    bytes32 internal constant AFFECTED_KEY = \"affectedKey\";\n    bytes32 internal constant AFFECTED_KEY_TYPE = \"affectedKeyType\";\n    bytes32 internal constant BALLOT_TYPE = \"ballotType\";\n    bytes32 internal constant MINING_KEY = \"miningKey\";\n    bytes32 internal constant NEW_PAYOUT_KEY = \"newPayoutKey\";\n    bytes32 internal constant NEW_VOTING_KEY = \"newVotingKey\";\n\n    function createBallot(\n        uint256 _startTime,\n        uint256 _endTime,\n        uint256 _ballotType,\n        uint256 _affectedKeyType,\n        string _memo,\n        address _affectedKey,\n        address _miningKey\n    ) public returns(uint256) {\n        require(_getBallotsStorage().areKeysBallotParamsValid(\n            _ballotType,\n            _affectedKeyType,\n            _affectedKey,\n            _miningKey\n        ));\n        uint256 ballotId = super._createBallot(_ballotType, _startTime, _endTime, _memo);\n        _setAffectedKey(ballotId, _affectedKey);\n        _setAffectedKeyType(ballotId, _affectedKeyType);\n        _setMiningKey(ballotId, _miningKey);\n        _setBallotType(ballotId, _ballotType);\n        return ballotId;\n    }\n\n    function createBallotToAddNewValidator(\n        uint256 _startTime,\n        uint256 _endTime,\n        string _memo,\n        address _newMiningKey,\n        address _newVotingKey,\n        address _newPayoutKey\n    ) public returns(uint256) {\n        IKeysManager keysManager = _getKeysManager();\n        require(keysManager.miningKeyByVoting(_newVotingKey) == address(0));\n        require(keysManager.miningKeyByPayout(_newPayoutKey) == address(0));\n        require(_newVotingKey != _newMiningKey);\n        require(_newPayoutKey != _newMiningKey);\n        if (_newVotingKey != address(0) && _newPayoutKey != address(0)) {\n            require(_newVotingKey != _newPayoutKey);\n        }\n        uint256 ballotId = createBallot(\n            _startTime,\n            _endTime,\n            uint256(BallotTypes.KeyAdding), // _ballotType\n            uint256(KeyTypes.MiningKey), // _affectedKeyType\n            _memo,\n            _newMiningKey, // _affectedKey\n            address(0) // _miningKey\n        );\n        _setNewVotingKey(ballotId, _newVotingKey);\n        _setNewPayoutKey(ballotId, _newPayoutKey);\n        return ballotId;\n    }\n\n    function getBallotInfo(uint256 _id) public view returns(\n        uint256 startTime,\n        uint256 endTime,\n        address affectedKey,\n        uint256 affectedKeyType,\n        address newVotingKey,\n        address newPayoutKey,\n        address miningKey,\n        uint256 totalVoters,\n        int256 progress,\n        bool isFinalized,\n        uint256 ballotType,\n        address creator,\n        string memo,\n        bool canBeFinalizedNow\n    ) {\n        startTime = _getStartTime(_id);\n        endTime = _getEndTime(_id);\n        affectedKey = _getAffectedKey(_id);\n        affectedKeyType = _getAffectedKeyType(_id);\n        newVotingKey = _getNewVotingKey(_id);\n        newPayoutKey = _getNewPayoutKey(_id);\n        miningKey = _getMiningKey(_id);\n        totalVoters = _getTotalVoters(_id);\n        progress = _getProgress(_id);\n        isFinalized = _getIsFinalized(_id);\n        ballotType = _getBallotType(_id);\n        creator = _getCreator(_id);\n        memo = _getMemo(_id);\n        canBeFinalizedNow = _canBeFinalizedNow(_id);\n    }\n\n    function init(uint256 _minBallotDuration) public {\n        _init(_minBallotDuration);\n    }\n\n    function migrateBasicOne(\n        uint256 _id,\n        address _prevVotingToChange,\n        address[] _voters\n    ) public onlyOwner {\n        require(_prevVotingToChange != address(0));\n        require(initDisabled());\n        require(!migrateDisabled());\n        IVotingToChangeKeysPrev prev = IVotingToChangeKeysPrev(_prevVotingToChange);\n        require(prev.getTotalVoters(_id) == _voters.length);\n\n        uint256 endTime = prev.getEndTime(_id);\n\n        _setTotalVoters(_id, _voters.length);\n        _setIsFinalized(_id, prev.getIsFinalized(_id));\n        _setMinThresholdOfVoters(_id, prev.getMinThresholdOfVoters(_id));\n        _setStartTime(_id, prev.getStartTime(_id));\n        _setEndTime(_id, endTime);\n\n        // solhint-disable indent\n        (\n            , , , , , ,\n            int progress, ,\n            uint8 quorumState, ,\n            uint256 index, ,\n            address creator,\n            string memory memo\n        ) = prev.votingState(_id);\n        // solhint-enable indent\n        _setProgress(_id, progress);\n        _setQuorumState(_id, quorumState);\n        _setIndex(_id, index);\n        _setCreator(_id, creator);\n        _setMemo(_id, memo);\n\n        _setBallotType(_id, prev.getBallotType(_id));\n        _setAffectedKey(_id, prev.getAffectedKey(_id));\n        _setAffectedKeyType(_id, prev.getAffectedKeyType(_id));\n        _setMiningKey(_id, prev.getMiningKey(_id));\n        //_setNewVotingKey(_id, prev.getNewVotingKey(_id));\n        //_setNewPayoutKey(_id, prev.getNewPayoutKey(_id));\n\n        IKeysManager prevKeysManager = IKeysManager(prev.getKeysManager());\n        for (uint256 i = 0; i < _voters.length; i++) {\n            if (getTime() <= endTime) {\n                require(prev.hasAlreadyVoted(_id, prevKeysManager.getVotingByMining(_voters[i])));\n            }\n            _votersAdd(_id, _voters[i]);\n        }\n    }\n\n    // solhint-disable code-complexity\n    function _finalizeAdding(uint256 _id) internal returns(bool) {\n        IKeysManager keysManager = _getKeysManager();\n\n        address affectedKey = _getAffectedKey(_id);\n        uint256 affectedKeyType = _getAffectedKeyType(_id);\n        \n        if (affectedKeyType == uint256(KeyTypes.MiningKey)) {\n            address newVotingKey = _getNewVotingKey(_id);\n            if (keysManager.miningKeyByVoting(newVotingKey) != address(0)) {\n                return false;\n            }\n\n            address newPayoutKey = _getNewPayoutKey(_id);\n            if (keysManager.miningKeyByPayout(newPayoutKey) != address(0)) {\n                return false;\n            }\n\n            if (!keysManager.addMiningKey(affectedKey)) {\n                return false;\n            }\n\n            if (newVotingKey != address(0)) {\n                keysManager.addVotingKey(newVotingKey, affectedKey);\n            }\n\n            if (newPayoutKey != address(0)) {\n                keysManager.addPayoutKey(newPayoutKey, affectedKey);\n            }\n\n            return true;\n        } else if (affectedKeyType == uint256(KeyTypes.VotingKey)) {\n            if (keysManager.miningKeyByVoting(affectedKey) != address(0)) {\n                return false;\n            }\n            return keysManager.addVotingKey(affectedKey, _getMiningKey(_id));\n        } else if (affectedKeyType == uint256(KeyTypes.PayoutKey)) {\n            if (keysManager.miningKeyByPayout(affectedKey) != address(0)) {\n                return false;\n            }\n            return keysManager.addPayoutKey(affectedKey, _getMiningKey(_id));\n        }\n        return false;\n    }\n    // solhint-enable code-complexity\n\n    function _finalizeBallotInner(uint256 _id) internal returns(bool) {\n        uint256 ballotType = _getBallotType(_id);\n        if (ballotType == uint256(BallotTypes.KeyAdding)) {\n            return _finalizeAdding(_id);\n        } else if (ballotType == uint256(BallotTypes.KeyRemoval)) {\n            return _finalizeRemoval(_id);\n        } else if (ballotType == uint256(BallotTypes.KeySwap)) {\n            return _finalizeSwap(_id);\n        }\n        return false;\n    }\n\n    function _finalizeRemoval(uint256 _id) internal returns(bool) {\n        IKeysManager keysManager = _getKeysManager();\n        uint256 affectedKeyType = _getAffectedKeyType(_id);\n        if (affectedKeyType == uint256(KeyTypes.MiningKey)) {\n            return keysManager.removeMiningKey(_getAffectedKey(_id));\n        } else if (affectedKeyType == uint256(KeyTypes.VotingKey)) {\n            return keysManager.removeVotingKey(_getMiningKey(_id));\n        } else if (affectedKeyType == uint256(KeyTypes.PayoutKey)) {\n            return keysManager.removePayoutKey(_getMiningKey(_id));\n        }\n        return false;\n    }\n\n    function _finalizeSwap(uint256 _id) internal returns(bool) {\n        IKeysManager keysManager = _getKeysManager();\n        uint256 affectedKeyType = _getAffectedKeyType(_id);\n        if (affectedKeyType == uint256(KeyTypes.MiningKey)) {\n            return keysManager.swapMiningKey(_getAffectedKey(_id), _getMiningKey(_id));\n        } else if (affectedKeyType == uint256(KeyTypes.VotingKey)) {\n            address newVotingKey = _getAffectedKey(_id);\n            if (keysManager.miningKeyByVoting(newVotingKey) != address(0)) {\n                return false;\n            }\n            return keysManager.swapVotingKey(newVotingKey, _getMiningKey(_id));\n        } else if (affectedKeyType == uint256(KeyTypes.PayoutKey)) {\n            address newPayoutKey = _getAffectedKey(_id);\n            if (keysManager.miningKeyByPayout(newPayoutKey) != address(0)) {\n                return false;\n            }\n            return keysManager.swapPayoutKey(newPayoutKey, _getMiningKey(_id));\n        }\n        return false;\n    }\n\n    function _getAffectedKey(uint256 _id) internal view returns(address) {\n        return addressStorage[\n            keccak256(abi.encode(VOTING_STATE, _id, AFFECTED_KEY))\n        ];\n    }\n\n    function _getAffectedKeyType(uint256 _id) internal view returns(uint256) {\n        return uintStorage[\n            keccak256(abi.encode(VOTING_STATE, _id, AFFECTED_KEY_TYPE))\n        ];\n    }\n\n    function _getBallotType(uint256 _id) internal view returns(uint256) {\n        return uintStorage[\n            keccak256(abi.encode(VOTING_STATE, _id, BALLOT_TYPE))\n        ];\n    }\n\n    function _getMiningKey(uint256 _id) internal view returns(address) {\n        return addressStorage[\n            keccak256(abi.encode(VOTING_STATE, _id, MINING_KEY))\n        ];\n    }\n\n    function _getNewPayoutKey(uint256 _id) internal view returns(address) {\n        return addressStorage[\n            keccak256(abi.encode(VOTING_STATE, _id, NEW_PAYOUT_KEY))\n        ];\n    }\n\n    function _getNewVotingKey(uint256 _id) internal view returns(address) {\n        return addressStorage[\n            keccak256(abi.encode(VOTING_STATE, _id, NEW_VOTING_KEY))\n        ];\n    }\n\n    function _setAffectedKey(uint256 _ballotId, address _value) internal {\n        addressStorage[\n            keccak256(abi.encode(VOTING_STATE, _ballotId, AFFECTED_KEY))\n        ] = _value;\n    }\n\n    function _setAffectedKeyType(uint256 _ballotId, uint256 _value) internal {\n        uintStorage[\n            keccak256(abi.encode(VOTING_STATE, _ballotId, AFFECTED_KEY_TYPE))\n        ] = _value;\n    }\n\n    function _setBallotType(uint256 _ballotId, uint256 _value) internal {\n        uintStorage[\n            keccak256(abi.encode(VOTING_STATE, _ballotId, BALLOT_TYPE))\n        ] = _value;\n    }\n\n    function _setMiningKey(uint256 _ballotId, address _value) internal {\n        addressStorage[\n            keccak256(abi.encode(VOTING_STATE, _ballotId, MINING_KEY))\n        ] = _value;\n    }\n\n    function _setNewPayoutKey(uint256 _ballotId, address _value) internal {\n        addressStorage[\n            keccak256(abi.encode(VOTING_STATE, _ballotId, NEW_PAYOUT_KEY))\n        ] = _value;\n    }\n\n    function _setNewVotingKey(uint256 _ballotId, address _value) internal {\n        addressStorage[\n            keccak256(abi.encode(VOTING_STATE, _ballotId, NEW_VOTING_KEY))\n        ] = _value;\n    }\n\n}\n",
  "sourcePath": "/Users/gabrielfournier1/Documents/POA_Network/building-network-open-eth/poco-deployement-rebase/repo-deployement-github-etc/poa-network-consensus-contracts/contracts/VotingToChangeKeys.sol",
  "compiler": {
    "name": "solc",
    "version": "0.4.26+commit.4563c3fc.Emscripten.clang"
  },
  "schemaVersion": "2.0.3",
  "updatedAt": "2022-06-10T07:17:16.222Z"
}