{
  "contractName": "VotingTo",
  "abi": [
    {
      "anonymous": false,
      "inputs": [
        {
          "indexed": true,
          "name": "id",
          "type": "uint256"
        },
        {
          "indexed": true,
          "name": "ballotType",
          "type": "uint256"
        },
        {
          "indexed": true,
          "name": "creator",
          "type": "address"
        }
      ],
      "name": "BallotCreated",
      "type": "event"
    },
    {
      "anonymous": false,
      "inputs": [
        {
          "indexed": true,
          "name": "id",
          "type": "uint256"
        },
        {
          "indexed": true,
          "name": "voter",
          "type": "address"
        }
      ],
      "name": "BallotFinalized",
      "type": "event"
    },
    {
      "anonymous": false,
      "inputs": [
        {
          "indexed": true,
          "name": "id",
          "type": "uint256"
        },
        {
          "indexed": false,
          "name": "decision",
          "type": "uint256"
        },
        {
          "indexed": true,
          "name": "voter",
          "type": "address"
        },
        {
          "indexed": false,
          "name": "time",
          "type": "uint256"
        },
        {
          "indexed": false,
          "name": "voterMiningKey",
          "type": "address"
        }
      ],
      "name": "Vote",
      "type": "event"
    },
    {
      "constant": true,
      "inputs": [
        {
          "name": "_id",
          "type": "uint256"
        },
        {
          "name": "_miningKey",
          "type": "address"
        }
      ],
      "name": "areOldMiningKeysVoted",
      "outputs": [
        {
          "name": "",
          "type": "bool"
        }
      ],
      "payable": false,
      "stateMutability": "view",
      "type": "function"
    },
    {
      "constant": true,
      "inputs": [
        {
          "name": "_id",
          "type": "uint256"
        }
      ],
      "name": "getMinThresholdOfVoters",
      "outputs": [
        {
          "name": "",
          "type": "uint256"
        }
      ],
      "payable": false,
      "stateMutability": "view",
      "type": "function"
    },
    {
      "constant": true,
      "inputs": [
        {
          "name": "_id",
          "type": "uint256"
        }
      ],
      "name": "getQuorumState",
      "outputs": [
        {
          "name": "",
          "type": "uint256"
        }
      ],
      "payable": false,
      "stateMutability": "view",
      "type": "function"
    },
    {
      "constant": true,
      "inputs": [],
      "name": "getTime",
      "outputs": [
        {
          "name": "",
          "type": "uint256"
        }
      ],
      "payable": false,
      "stateMutability": "view",
      "type": "function"
    },
    {
      "constant": true,
      "inputs": [
        {
          "name": "_id",
          "type": "uint256"
        },
        {
          "name": "_votingKey",
          "type": "address"
        }
      ],
      "name": "hasAlreadyVoted",
      "outputs": [
        {
          "name": "",
          "type": "bool"
        }
      ],
      "payable": false,
      "stateMutability": "view",
      "type": "function"
    },
    {
      "constant": true,
      "inputs": [],
      "name": "initDisabled",
      "outputs": [
        {
          "name": "",
          "type": "bool"
        }
      ],
      "payable": false,
      "stateMutability": "view",
      "type": "function"
    },
    {
      "constant": true,
      "inputs": [
        {
          "name": "_id",
          "type": "uint256"
        }
      ],
      "name": "isActive",
      "outputs": [
        {
          "name": "",
          "type": "bool"
        }
      ],
      "payable": false,
      "stateMutability": "view",
      "type": "function"
    },
    {
      "constant": true,
      "inputs": [
        {
          "name": "_id",
          "type": "uint256"
        },
        {
          "name": "_votingKey",
          "type": "address"
        }
      ],
      "name": "isValidVote",
      "outputs": [
        {
          "name": "",
          "type": "bool"
        }
      ],
      "payable": false,
      "stateMutability": "view",
      "type": "function"
    },
    {
      "constant": true,
      "inputs": [],
      "name": "nextBallotId",
      "outputs": [
        {
          "name": "",
          "type": "uint256"
        }
      ],
      "payable": false,
      "stateMutability": "view",
      "type": "function"
    },
    {
      "constant": true,
      "inputs": [],
      "name": "proxyStorage",
      "outputs": [
        {
          "name": "",
          "type": "address"
        }
      ],
      "payable": false,
      "stateMutability": "view",
      "type": "function"
    },
    {
      "constant": true,
      "inputs": [],
      "name": "maxBallotDuration",
      "outputs": [
        {
          "name": "",
          "type": "uint256"
        }
      ],
      "payable": false,
      "stateMutability": "pure",
      "type": "function"
    },
    {
      "constant": true,
      "inputs": [],
      "name": "minBallotDuration",
      "outputs": [
        {
          "name": "",
          "type": "uint256"
        }
      ],
      "payable": false,
      "stateMutability": "view",
      "type": "function"
    }
  ],
  "bytecode": "0x608060405234801561001057600080fd5b50610a92806100206000396000f3006080604052600436106100a05763ffffffff60e060020a60003504166302a99b9d81146100a557806308dbb18e146100cc578063288fa739146100e457806352a369381461011c578063557ed1ba1461013157806382afd23b1461014657806396bc6ef01461015e578063ae4b1b5b14610173578063c088003d146101a4578063c14bfd29146101bc578063c7dea777146101e0578063dc6bfbb514610204575b600080fd5b3480156100b157600080fd5b506100ba610219565b60408051918252519081900360200190f35b3480156100d857600080fd5b506100ba60043561025a565b3480156100f057600080fd5b50610108600435600160a060020a036024351661032e565b604080519115158252519081900360200190f35b34801561012857600080fd5b50610108610402565b34801561013d57600080fd5b506100ba610446565b34801561015257600080fd5b5061010860043561044a565b34801561016a57600080fd5b506100ba610480565b34801561017f57600080fd5b50610188610487565b60408051600160a060020a039092168252519081900360200190f35b3480156101b057600080fd5b506100ba6004356104d1565b3480156101c857600080fd5b50610108600435600160a060020a0360243516610563565b3480156101ec57600080fd5b50610108600435600160a060020a0360243516610623565b34801561021057600080fd5b506100ba610782565b604080517f6d696e42616c6c6f744475726174696f6e0000000000000000000000000000008152815190819003601101902060009081526002602052205490565b60408051600080516020610a478339815191526020808301919091528183018490527f71756f72756d53746174650000000000000000000000000000000000000000006060808401919091528351808403909101815260809092019283905281516000936002938593909282918401908083835b602083106102ed5780518252601f1990920191602091820191016102ce565b51815160209384036101000a600019018019909216911617905260408051929094018290039091208652850195909552929092016000205495945050505050565b60008060008061033c6107c3565b600160a060020a0316632d260227866040518263ffffffff1660e060020a0281526004018082600160a060020a0316600160a060020a03168152602001915050602060405180830381600087803b15801561039657600080fd5b505af11580156103aa573d6000803e3d6000fd5b505050506040513d60208110156103c057600080fd5b505192506103ce868461083b565b1591506103db8684610623565b1590508180156103ef57506103ef8661044a565b80156103f85750805b9695505050505050565b604080517f696e697444697361626c656400000000000000000000000000000000000000008152815190819003600c01902060009081526006602052205460ff1690565b4290565b6000610454610446565b61045d83610922565b1115801561047a575061046f826109b4565b610477610446565b11155b92915050565b6212750090565b604080517f70726f787953746f7261676500000000000000000000000000000000000000008152815190819003600c019020600090815260046020522054600160a060020a031690565b60408051600080516020610a478339815191526020808301919091528183018490527f6d696e5468726573686f6c644f66566f74657273000000000000000000000000606080840191909152835180840390910181526080909201928390528151600093600293859390928291840190808383602083106102ed5780518252601f1990920191602091820191016102ce565b600080600160a060020a038316151561057f576000915061061c565b6105876107c3565b600160a060020a0316632d260227846040518263ffffffff1660e060020a0281526004018082600160a060020a0316600160a060020a03168152602001915050602060405180830381600087803b1580156105e157600080fd5b505af11580156105f5573d6000803e3d6000fd5b505050506040513d602081101561060b57600080fd5b50519050610619848261083b565b91505b5092915050565b600081818080806106326107c3565b935083600160a060020a031663b9bdaa076040518163ffffffff1660e060020a028152600401602060405180830381600087803b15801561067257600080fd5b505af1158015610686573d6000803e3d6000fd5b505050506040513d602081101561069c57600080fd5b50519250600091505b828210156107725783600160a060020a031663a5a36dee866040518263ffffffff1660e060020a0281526004018082600160a060020a0316600160a060020a03168152602001915050602060405180830381600087803b15801561070857600080fd5b505af115801561071c573d6000803e3d6000fd5b505050506040513d602081101561073257600080fd5b50519050600160a060020a038116151561074f5760009550610777565b610759888261083b565b156107675760019550610777565b9350600101836106a5565b600095505b505050505092915050565b604080517f6e65787442616c6c6f74496400000000000000000000000000000000000000008152815190819003600c01902060009081526002602052205490565b60006107cd610487565b600160a060020a0316639a5737866040518163ffffffff1660e060020a028152600401602060405180830381600087803b15801561080a57600080fd5b505af115801561081e573d6000803e3d6000fd5b505050506040513d602081101561083457600080fd5b5051905090565b60408051600080516020610a478339815191526020808301919091528183018590527f766f7465727300000000000000000000000000000000000000000000000000006060830152600160a060020a0384166080808401919091528351808403909101815260a09092019283905281516000936006938593909282918401908083835b602083106108dd5780518252601f1990920191602091820191016108be565b51815160209384036101000a600019018019909216911617905260408051929094018290039091208652850195909552929092016000205460ff169695505050505050565b60408051600080516020610a478339815191526020808301919091528183018490527f737461727454696d650000000000000000000000000000000000000000000000606080840191909152835180840390910181526080909201928390528151600093600293859390928291840190808383602083106102ed5780518252601f1990920191602091820191016102ce565b60408051600080516020610a478339815191526020808301919091528183018490527f656e6454696d6500000000000000000000000000000000000000000000000000606080840191909152835180840390910181526080909201928390528151600093600293859390928291840190808383602083106102ed5780518252601f1990920191602091820191016102ce5600766f74696e675374617465000000000000000000000000000000000000000000a165627a7a72305820e70912742f785dcd094f9df228f86d251c6edf0acbee8912143ecd28291dbd380029",
  "source": "pragma solidity ^0.4.24;\n\nimport \"../libs/SafeMath.sol\";\nimport \"../interfaces/IBallotsStorage.sol\";\nimport \"../interfaces/IKeysManager.sol\";\nimport \"../interfaces/IProxyStorage.sol\";\nimport \"../abstracts/EnumBallotTypes.sol\";\nimport \"../abstracts/EnumThresholdTypes.sol\";\nimport \"../eternal-storage/EternalStorage.sol\";\n\n\ncontract VotingTo is EternalStorage, EnumBallotTypes, EnumThresholdTypes {\n    using SafeMath for uint256;\n\n    bytes32 internal constant OWNER = keccak256(\"owner\");\n    bytes32 internal constant INIT_DISABLED = keccak256(\"initDisabled\");\n    bytes32 internal constant MIN_BALLOT_DURATION = keccak256(\"minBallotDuration\");\n    bytes32 internal constant NEXT_BALLOT_ID = keccak256(\"nextBallotId\");\n    bytes32 internal constant PROXY_STORAGE = keccak256(\"proxyStorage\");\n\n    bytes32 internal constant CREATOR = \"creator\";\n    bytes32 internal constant END_TIME = \"endTime\";\n    bytes32 internal constant IS_FINALIZED = \"isFinalized\";\n    bytes32 internal constant MEMO = \"memo\";\n    bytes32 internal constant MIN_THRESHOLD_OF_VOTERS = \"minThresholdOfVoters\";\n    bytes32 internal constant QUORUM_STATE = \"quorumState\";\n    bytes32 internal constant START_TIME = \"startTime\";\n    bytes32 internal constant VOTERS = \"voters\";\n    bytes32 internal constant VOTING_STATE = \"votingState\";\n\n    event BallotCreated(\n        uint256 indexed id,\n        uint256 indexed ballotType,\n        address indexed creator\n    );\n    \n    event BallotFinalized(\n        uint256 indexed id,\n        address indexed voter\n    );\n    \n    event Vote(\n        uint256 indexed id,\n        uint256 decision,\n        address indexed voter,\n        uint256 time,\n        address voterMiningKey\n    );\n\n    modifier onlyOwner() {\n        require(msg.sender == addressStorage[OWNER]);\n        _;\n    }\n\n    modifier onlyValidVotingKey(address _votingKey) {\n        require(_getKeysManager().isVotingActive(_votingKey));\n        _;\n    }\n\n    modifier onlyValidTime(uint256 _startTime, uint256 _endTime) {\n        require(_startTime > 0 && _endTime > 0);\n        require(_endTime > _startTime && _startTime > getTime());\n        uint256 diffTime = _endTime.sub(_startTime);\n        require(diffTime > minBallotDuration());\n        require(diffTime <= maxBallotDuration());\n        _;\n    }\n\n    function areOldMiningKeysVoted(uint256 _id, address _miningKey)\n        public\n        view\n        returns(bool)\n    {\n        address miningKey = _miningKey;\n        IKeysManager keysManager = _getKeysManager();\n        uint256 maxDeep = keysManager.maxOldMiningKeysDeepCheck();\n        for (uint256 i = 0; i < maxDeep; i++) {\n            address oldMiningKey = keysManager.getMiningKeyHistory(miningKey);\n            if (oldMiningKey == address(0)) {\n                return false;\n            }\n            if (_hasMiningKeyAlreadyVoted(_id, oldMiningKey)) {\n                return true;\n            } else {\n                miningKey = oldMiningKey;\n            }\n        }\n        return false;\n    }\n\n    function getMinThresholdOfVoters(uint256 _id) public view returns(uint256) {\n        return uintStorage[\n            keccak256(abi.encode(VOTING_STATE, _id, MIN_THRESHOLD_OF_VOTERS))\n        ];\n    }\n\n    function getQuorumState(uint256 _id) public view returns(uint256) {\n        return uintStorage[\n            keccak256(abi.encode(VOTING_STATE, _id, QUORUM_STATE))\n        ];\n    }\n\n    function getTime() public view returns(uint256) {\n        return now;\n    }\n\n    function hasAlreadyVoted(uint256 _id, address _votingKey)\n        public\n        view\n        returns(bool)\n    {\n        if (_votingKey == address(0)) return false;\n        address miningKey = _getKeysManager().getMiningKeyByVoting(_votingKey);\n        return _hasMiningKeyAlreadyVoted(_id, miningKey);\n    }\n\n    function initDisabled() public view returns(bool) {\n        return boolStorage[INIT_DISABLED];\n    }\n\n    function isActive(uint256 _id) public view returns(bool) {\n        return _getStartTime(_id) <= getTime() && getTime() <= _getEndTime(_id);\n    }\n\n    function isValidVote(uint256 _id, address _votingKey)\n        public\n        view\n        returns(bool)\n    {\n        address miningKey = _getKeysManager().getMiningKeyByVoting(_votingKey);\n        bool notVoted = !_hasMiningKeyAlreadyVoted(_id, miningKey);\n        bool oldKeysNotVoted = !areOldMiningKeysVoted(_id, miningKey);\n        return notVoted && isActive(_id) && oldKeysNotVoted;\n    }\n\n    function nextBallotId() public view returns(uint256) {\n        return uintStorage[NEXT_BALLOT_ID];\n    }\n\n    function proxyStorage() public view returns(address) {\n        return addressStorage[PROXY_STORAGE];\n    }\n\n    function maxBallotDuration() public pure returns(uint256) {\n        return 14 days;\n    }\n\n    function minBallotDuration() public view returns(uint256) {\n        return uintStorage[MIN_BALLOT_DURATION];\n    }\n\n    function _init(uint256 _minBallotDuration) internal onlyOwner {\n        require(!initDisabled());\n        require(_minBallotDuration < maxBallotDuration());\n        uintStorage[MIN_BALLOT_DURATION] = _minBallotDuration;\n        boolStorage[INIT_DISABLED] = true;\n    }\n\n    function _createBallot(\n        uint256 _ballotType,\n        uint256 _startTime,\n        uint256 _endTime,\n        string _memo,\n        uint256 _quorumState,\n        address _creatorMiningKey\n    ) internal onlyValidTime(_startTime, _endTime) returns(uint256) {\n        require(initDisabled());\n        uint256 ballotId = nextBallotId();\n        _setNextBallotId(ballotId.add(1));\n        _setStartTime(ballotId, _startTime);\n        _setEndTime(ballotId, _endTime);\n        _setIsFinalized(ballotId, false);\n        _setQuorumState(ballotId, _quorumState);\n        _setMinThresholdOfVoters(ballotId, _getGlobalMinThresholdOfVoters());\n        _setCreator(ballotId, _creatorMiningKey);\n        _setMemo(ballotId, _memo);\n        emit BallotCreated(ballotId, _ballotType, msg.sender);\n        return ballotId;\n    }\n\n    function _getBallotsStorage() internal view returns(IBallotsStorage) {\n        return IBallotsStorage(IProxyStorage(proxyStorage()).getBallotsStorage());\n    }\n\n    function _getCreator(uint256 _id) internal view returns(address) {\n        return addressStorage[\n            keccak256(abi.encode(VOTING_STATE, _id, CREATOR))\n        ];\n    }\n\n    function _getEndTime(uint256 _id) internal view returns(uint256) {\n        return uintStorage[\n            keccak256(abi.encode(VOTING_STATE, _id, END_TIME))\n        ];\n    }\n\n    function _getGlobalMinThresholdOfVoters() internal view returns(uint256) {\n        return _getBallotsStorage().getBallotThreshold(uint256(ThresholdTypes.Keys));\n    }\n\n    function _getIsFinalized(uint256 _id) internal view returns(bool) {\n        return boolStorage[\n            keccak256(abi.encode(VOTING_STATE, _id, IS_FINALIZED))\n        ];\n    }\n\n    function _getKeysManager() internal view returns(IKeysManager) {\n        return IKeysManager(IProxyStorage(proxyStorage()).getKeysManager());\n    }\n\n    function _getMemo(uint256 _id) internal view returns(string) {\n        return stringStorage[\n            keccak256(abi.encode(VOTING_STATE, _id, MEMO))\n        ];\n    }\n\n    function _getStartTime(uint256 _id) internal view returns(uint256) {\n        return uintStorage[\n            keccak256(abi.encode(VOTING_STATE, _id, START_TIME))\n        ];\n    }\n\n    function _hasMiningKeyAlreadyVoted(uint256 _id, address _miningKey)\n        internal\n        view\n        returns(bool)\n    {\n        return boolStorage[\n            keccak256(abi.encode(VOTING_STATE, _id, VOTERS, _miningKey))\n        ];\n    }\n\n    function _setCreator(uint256 _ballotId, address _value) internal {\n        addressStorage[\n            keccak256(abi.encode(VOTING_STATE, _ballotId, CREATOR))\n        ] = _value;\n    }\n\n    function _setEndTime(uint256 _ballotId, uint256 _value) internal {\n        uintStorage[\n            keccak256(abi.encode(VOTING_STATE, _ballotId, END_TIME))\n        ] = _value;\n    }\n\n    function _setIsFinalized(uint256 _ballotId, bool _value) internal {\n        boolStorage[\n            keccak256(abi.encode(VOTING_STATE, _ballotId, IS_FINALIZED))\n        ] = _value;\n    }\n\n    function _setMemo(uint256 _ballotId, string _value) internal {\n        stringStorage[\n            keccak256(abi.encode(VOTING_STATE, _ballotId, MEMO))\n        ] = _value;\n    }\n\n    function _setMinThresholdOfVoters(uint256 _ballotId, uint256 _value) internal {\n        uintStorage[\n            keccak256(abi.encode(VOTING_STATE, _ballotId, MIN_THRESHOLD_OF_VOTERS))\n        ] = _value;\n    }\n\n    function _setNextBallotId(uint256 _id) internal {\n        uintStorage[NEXT_BALLOT_ID] = _id;\n    }\n\n    function _setQuorumState(uint256 _ballotId, uint256 _value) internal {\n        uintStorage[\n            keccak256(abi.encode(VOTING_STATE, _ballotId, QUORUM_STATE))\n        ] = _value;\n    }\n\n    function _setStartTime(uint256 _ballotId, uint256 _value) internal {\n        uintStorage[\n            keccak256(abi.encode(VOTING_STATE, _ballotId, START_TIME))\n        ] = _value;\n    }\n\n    function _votersAdd(uint256 _ballotId, address _miningKey) internal {\n        boolStorage[\n            keccak256(abi.encode(VOTING_STATE, _ballotId, VOTERS, _miningKey))\n        ] = true;\n    }\n}\n",
  "sourcePath": "/Users/gabrielfournier1/Documents/POA_Network/building-network-open-eth/poco-deployement-rebase/repo-deployement-github-etc/poa-network-consensus-contracts/contracts/abstracts/VotingTo.sol",
  "compiler": {
    "name": "solc",
    "version": "0.4.26+commit.4563c3fc.Emscripten.clang"
  },
  "schemaVersion": "2.0.3",
  "updatedAt": "2022-06-10T07:14:18.502Z"
}