{
  "contractName": "VotingToChangeMinThreshold",
  "abi": [
    {
      "constant": true,
      "inputs": [
        {
          "name": "_id",
          "type": "uint256"
        }
      ],
      "name": "canBeFinalizedNow",
      "outputs": [
        {
          "name": "",
          "type": "bool"
        }
      ],
      "payable": false,
      "stateMutability": "view",
      "type": "function"
    },
    {
      "constant": true,
      "inputs": [],
      "name": "minBallotDuration",
      "outputs": [
        {
          "name": "",
          "type": "uint256"
        }
      ],
      "payable": false,
      "stateMutability": "view",
      "type": "function"
    },
    {
      "constant": false,
      "inputs": [
        {
          "name": "_id",
          "type": "uint256"
        }
      ],
      "name": "finalize",
      "outputs": [],
      "payable": false,
      "stateMutability": "nonpayable",
      "type": "function"
    },
    {
      "constant": true,
      "inputs": [
        {
          "name": "_id",
          "type": "uint256"
        }
      ],
      "name": "getQuorumState",
      "outputs": [
        {
          "name": "",
          "type": "uint256"
        }
      ],
      "payable": false,
      "stateMutability": "view",
      "type": "function"
    },
    {
      "constant": true,
      "inputs": [
        {
          "name": "_id",
          "type": "uint256"
        },
        {
          "name": "_votingKey",
          "type": "address"
        }
      ],
      "name": "isValidVote",
      "outputs": [
        {
          "name": "",
          "type": "bool"
        }
      ],
      "payable": false,
      "stateMutability": "view",
      "type": "function"
    },
    {
      "constant": true,
      "inputs": [
        {
          "name": "_index",
          "type": "uint256"
        }
      ],
      "name": "activeBallots",
      "outputs": [
        {
          "name": "",
          "type": "uint256"
        }
      ],
      "payable": false,
      "stateMutability": "view",
      "type": "function"
    },
    {
      "constant": true,
      "inputs": [],
      "name": "initDisabled",
      "outputs": [
        {
          "name": "",
          "type": "bool"
        }
      ],
      "payable": false,
      "stateMutability": "view",
      "type": "function"
    },
    {
      "constant": true,
      "inputs": [],
      "name": "getTime",
      "outputs": [
        {
          "name": "",
          "type": "uint256"
        }
      ],
      "payable": false,
      "stateMutability": "view",
      "type": "function"
    },
    {
      "constant": true,
      "inputs": [],
      "name": "activeBallotsLength",
      "outputs": [
        {
          "name": "",
          "type": "uint256"
        }
      ],
      "payable": false,
      "stateMutability": "view",
      "type": "function"
    },
    {
      "constant": true,
      "inputs": [
        {
          "name": "_id",
          "type": "uint256"
        }
      ],
      "name": "isActive",
      "outputs": [
        {
          "name": "",
          "type": "bool"
        }
      ],
      "payable": false,
      "stateMutability": "view",
      "type": "function"
    },
    {
      "constant": true,
      "inputs": [
        {
          "name": "_id",
          "type": "uint256"
        }
      ],
      "name": "getIndex",
      "outputs": [
        {
          "name": "",
          "type": "uint256"
        }
      ],
      "payable": false,
      "stateMutability": "view",
      "type": "function"
    },
    {
      "constant": true,
      "inputs": [],
      "name": "maxBallotDuration",
      "outputs": [
        {
          "name": "",
          "type": "uint256"
        }
      ],
      "payable": false,
      "stateMutability": "pure",
      "type": "function"
    },
    {
      "constant": true,
      "inputs": [],
      "name": "migrateDisabled",
      "outputs": [
        {
          "name": "",
          "type": "bool"
        }
      ],
      "payable": false,
      "stateMutability": "view",
      "type": "function"
    },
    {
      "constant": false,
      "inputs": [],
      "name": "migrateDisable",
      "outputs": [],
      "payable": false,
      "stateMutability": "nonpayable",
      "type": "function"
    },
    {
      "constant": true,
      "inputs": [],
      "name": "proxyStorage",
      "outputs": [
        {
          "name": "",
          "type": "address"
        }
      ],
      "payable": false,
      "stateMutability": "view",
      "type": "function"
    },
    {
      "constant": false,
      "inputs": [
        {
          "name": "_id",
          "type": "uint256"
        },
        {
          "name": "_choice",
          "type": "uint256"
        }
      ],
      "name": "vote",
      "outputs": [],
      "payable": false,
      "stateMutability": "nonpayable",
      "type": "function"
    },
    {
      "constant": true,
      "inputs": [
        {
          "name": "_id",
          "type": "uint256"
        }
      ],
      "name": "getMinThresholdOfVoters",
      "outputs": [
        {
          "name": "",
          "type": "uint256"
        }
      ],
      "payable": false,
      "stateMutability": "view",
      "type": "function"
    },
    {
      "constant": true,
      "inputs": [
        {
          "name": "_id",
          "type": "uint256"
        },
        {
          "name": "_votingKey",
          "type": "address"
        }
      ],
      "name": "hasAlreadyVoted",
      "outputs": [
        {
          "name": "",
          "type": "bool"
        }
      ],
      "payable": false,
      "stateMutability": "view",
      "type": "function"
    },
    {
      "constant": true,
      "inputs": [
        {
          "name": "_id",
          "type": "uint256"
        },
        {
          "name": "_miningKey",
          "type": "address"
        }
      ],
      "name": "areOldMiningKeysVoted",
      "outputs": [
        {
          "name": "",
          "type": "bool"
        }
      ],
      "payable": false,
      "stateMutability": "view",
      "type": "function"
    },
    {
      "constant": true,
      "inputs": [],
      "name": "nextBallotId",
      "outputs": [
        {
          "name": "",
          "type": "uint256"
        }
      ],
      "payable": false,
      "stateMutability": "view",
      "type": "function"
    },
    {
      "constant": true,
      "inputs": [
        {
          "name": "_miningKey",
          "type": "address"
        }
      ],
      "name": "validatorActiveBallots",
      "outputs": [
        {
          "name": "",
          "type": "uint256"
        }
      ],
      "payable": false,
      "stateMutability": "view",
      "type": "function"
    },
    {
      "constant": false,
      "inputs": [
        {
          "name": "_prevVotingToChange",
          "type": "address"
        }
      ],
      "name": "migrateBasicAll",
      "outputs": [],
      "payable": false,
      "stateMutability": "nonpayable",
      "type": "function"
    },
    {
      "anonymous": false,
      "inputs": [
        {
          "indexed": true,
          "name": "id",
          "type": "uint256"
        },
        {
          "indexed": true,
          "name": "ballotType",
          "type": "uint256"
        },
        {
          "indexed": true,
          "name": "creator",
          "type": "address"
        }
      ],
      "name": "BallotCreated",
      "type": "event"
    },
    {
      "anonymous": false,
      "inputs": [
        {
          "indexed": true,
          "name": "id",
          "type": "uint256"
        },
        {
          "indexed": true,
          "name": "voter",
          "type": "address"
        }
      ],
      "name": "BallotFinalized",
      "type": "event"
    },
    {
      "anonymous": false,
      "inputs": [
        {
          "indexed": true,
          "name": "id",
          "type": "uint256"
        },
        {
          "indexed": false,
          "name": "decision",
          "type": "uint256"
        },
        {
          "indexed": true,
          "name": "voter",
          "type": "address"
        },
        {
          "indexed": false,
          "name": "time",
          "type": "uint256"
        },
        {
          "indexed": false,
          "name": "voterMiningKey",
          "type": "address"
        }
      ],
      "name": "Vote",
      "type": "event"
    },
    {
      "constant": false,
      "inputs": [
        {
          "name": "_startTime",
          "type": "uint256"
        },
        {
          "name": "_endTime",
          "type": "uint256"
        },
        {
          "name": "_proposedValue",
          "type": "uint256"
        },
        {
          "name": "_memo",
          "type": "string"
        }
      ],
      "name": "createBallot",
      "outputs": [],
      "payable": false,
      "stateMutability": "nonpayable",
      "type": "function"
    },
    {
      "constant": true,
      "inputs": [
        {
          "name": "_id",
          "type": "uint256"
        },
        {
          "name": "_votingKey",
          "type": "address"
        }
      ],
      "name": "getBallotInfo",
      "outputs": [
        {
          "name": "startTime",
          "type": "uint256"
        },
        {
          "name": "endTime",
          "type": "uint256"
        },
        {
          "name": "totalVoters",
          "type": "uint256"
        },
        {
          "name": "progress",
          "type": "int256"
        },
        {
          "name": "isFinalized",
          "type": "bool"
        },
        {
          "name": "proposedValue",
          "type": "uint256"
        },
        {
          "name": "creator",
          "type": "address"
        },
        {
          "name": "memo",
          "type": "string"
        },
        {
          "name": "canBeFinalizedNow",
          "type": "bool"
        },
        {
          "name": "alreadyVoted",
          "type": "bool"
        }
      ],
      "payable": false,
      "stateMutability": "view",
      "type": "function"
    },
    {
      "constant": false,
      "inputs": [
        {
          "name": "_minBallotDuration",
          "type": "uint256"
        },
        {
          "name": "_minPossibleThreshold",
          "type": "uint256"
        }
      ],
      "name": "init",
      "outputs": [],
      "payable": false,
      "stateMutability": "nonpayable",
      "type": "function"
    },
    {
      "constant": false,
      "inputs": [
        {
          "name": "_id",
          "type": "uint256"
        },
        {
          "name": "_prevVotingToChange",
          "type": "address"
        },
        {
          "name": "_voters",
          "type": "address[]"
        }
      ],
      "name": "migrateBasicOne",
      "outputs": [],
      "payable": false,
      "stateMutability": "nonpayable",
      "type": "function"
    },
    {
      "constant": true,
      "inputs": [],
      "name": "minPossibleThreshold",
      "outputs": [
        {
          "name": "",
          "type": "uint256"
        }
      ],
      "payable": false,
      "stateMutability": "view",
      "type": "function"
    }
  ],
  "bytecode": "0x608060405234801561001057600080fd5b50613ae3806100206000396000f3006080604052600436106101445763ffffffff60e060020a6000350416629b38fa811461014957806302a99b9d1461017557806305261aea1461019c57806308dbb18e146101b65780631700cc3c146101ce578063288fa739146102315780633bf05e951461025557806352a369381461026d578063557ed1ba146102825780636ccc02341461029757806373ece100146102ac57806382afd23b146103135780638c64a20d1461032b5780638e7cb6e11461042457806396bc6ef01461043c5780639fc18d4b14610451578063a3ac1eb114610466578063a5843f081461047b578063ae4b1b5b14610496578063b384abef146104c7578063b3ea87c4146104e2578063c088003d146104f7578063c14bfd291461050f578063c7dea77714610533578063dc6bfbb514610557578063f49774ee1461056c578063f71de2ed1461058d575b600080fd5b34801561015557600080fd5b506101616004356105ae565b604080519115158252519081900360200190f35b34801561018157600080fd5b5061018a6105bf565b60408051918252519081900360200190f35b3480156101a857600080fd5b506101b4600435610601565b005b3480156101c257600080fd5b5061018a6004356106bc565b3480156101da57600080fd5b50604080516020601f6064356004818101359283018490048402850184019095528184526101b494803594602480359560443595369560849493019181908401838280828437509497506107909650505050505050565b34801561023d57600080fd5b50610161600435600160a060020a0360243516610857565b34801561026157600080fd5b5061018a60043561092b565b34801561027957600080fd5b50610161610976565b34801561028e57600080fd5b5061018a6109ba565b3480156102a357600080fd5b5061018a6109be565b3480156102b857600080fd5b5060408051602060046044358181013583810280860185019096528085526101b49583359560248035600160a060020a0316963696956064959394920192918291850190849080828437509497506109ed9650505050505050565b34801561031f57600080fd5b506101616004356110d9565b34801561033757600080fd5b5061034f600435600160a060020a036024351661110e565b604051808b81526020018a81526020018981526020018881526020018715151515815260200186815260200185600160a060020a0316600160a060020a03168152602001806020018415151515815260200183151515158152602001828103825285818151815260200191508051906020019080838360005b838110156103e05781810151838201526020016103c8565b50505050905090810190601f16801561040d5780820380516001836020036101000a031916815260200191505b509b50505050505050505050505060405180910390f35b34801561043057600080fd5b5061018a60043561119c565b34801561044857600080fd5b5061018a61122e565b34801561045d57600080fd5b50610161611235565b34801561047257600080fd5b506101b4611279565b34801561048757600080fd5b506101b4600435602435611327565b3480156104a257600080fd5b506104ab61137e565b60408051600160a060020a039092168252519081900360200190f35b3480156104d357600080fd5b506101b46004356024356113c8565b3480156104ee57600080fd5b5061018a6115f6565b34801561050357600080fd5b5061018a600435611637565b34801561051b57600080fd5b50610161600435600160a060020a03602435166116c9565b34801561053f57600080fd5b50610161600435600160a060020a0360243516611789565b34801561056357600080fd5b5061018a6118e8565b34801561057857600080fd5b5061018a600160a060020a0360043516611929565b34801561059957600080fd5b506101b4600160a060020a03600435166119aa565b60006105b982611de4565b92915050565b604080517f6d696e42616c6c6f744475726174696f6e000000000000000000000000000000815281519081900360110190206000908152600260205220545b90565b3361060a611fac565b600160a060020a03166362b46d64826040518263ffffffff1660e060020a0281526004018082600160a060020a0316600160a060020a03168152602001915050602060405180830381600087803b15801561066457600080fd5b505af1158015610678573d6000803e3d6000fd5b505050506040513d602081101561068e57600080fd5b5051151561069b57600080fd5b6106a482611de4565b15156106af57600080fd5b6106b882612024565b5050565b60408051600080516020613a988339815191526020808301919091528183018490527f71756f72756d53746174650000000000000000000000000000000000000000006060808401919091528351808403909101815260809092019283905281516000936002938593909282918401908083835b6020831061074f5780518252601f199092019160209182019101610730565b51815160209384036101000a600019018019909216911617905260408051929094018290039091208652850195909552929092016000205495945050505050565b600061079a6115f6565b8310156107a657600080fd5b6107ae6120eb565b8314156107ba57600080fd5b6107c261213e565b600160a060020a031663eecd10796040518163ffffffff1660e060020a028152600401602060405180830381600087803b1580156107ff57600080fd5b505af1158015610813573d6000803e3d6000fd5b505050506040513d602081101561082957600080fd5b505183111561083757600080fd5b6108446004868685612185565b90506108508184612330565b5050505050565b600080600080610865611fac565b600160a060020a0316632d260227866040518263ffffffff1660e060020a0281526004018082600160a060020a0316600160a060020a03168152602001915050602060405180830381600087803b1580156108bf57600080fd5b505af11580156108d3573d6000803e3d6000fd5b505050506040513d60208110156108e957600080fd5b505192506108f78684612405565b1591506109048684611789565b1590508180156109185750610918866110d9565b80156109215750805b9695505050505050565b60408051600080516020613a788339815191528152815190819003600d0190206000908152600960205290812080548390811061096457fe5b90600052602060002001549050919050565b604080517f696e697444697361626c656400000000000000000000000000000000000000008152815190819003600c01902060009081526006602052205460ff1690565b4290565b60408051600080516020613a788339815191528152815190819003600d01902060009081526009602052205490565b6040805160d960020a6437bbb732b902815281519081900360050190206000908152600460205290812054819081908190819081906060908290819033600160a060020a0390911614610a3f57600080fd5b600160a060020a038b161515610a5457600080fd5b610a5c610976565b1515610a6757600080fd5b610a6f611235565b15610a7957600080fd5b8a9850895189600160a060020a03166343d3a4c18e6040518263ffffffff1660e060020a02815260040180828152602001915050602060405180830381600087803b158015610ac757600080fd5b505af1158015610adb573d6000803e3d6000fd5b505050506040513d6020811015610af157600080fd5b505114610afd57600080fd5b88600160a060020a0316639067b6778d6040518263ffffffff1660e060020a02815260040180828152602001915050602060405180830381600087803b158015610b4657600080fd5b505af1158015610b5a573d6000803e3d6000fd5b505050506040513d6020811015610b7057600080fd5b50518a51909850610b82908d906124ec565b610c008c8a600160a060020a03166323e1a0a88f6040518263ffffffff1660e060020a02815260040180828152602001915050602060405180830381600087803b158015610bcf57600080fd5b505af1158015610be3573d6000803e3d6000fd5b505050506040513d6020811015610bf957600080fd5b505161257e565b610c7e8c8a600160a060020a031663c088003d8f6040518263ffffffff1660e060020a02815260040180828152602001915050602060405180830381600087803b158015610c4d57600080fd5b505af1158015610c61573d6000803e3d6000fd5b505050506040513d6020811015610c7757600080fd5b505161265f565b610cfc8c8a600160a060020a031663bc2be1be8f6040518263ffffffff1660e060020a02815260040180828152602001915050602060405180830381600087803b158015610ccb57600080fd5b505af1158015610cdf573d6000803e3d6000fd5b505050506040513d6020811015610cf557600080fd5b50516126f1565b610d068c89612783565b88600160a060020a031663ff84c45f8d6040518263ffffffff1660e060020a02815260040180828152602001915050600060405180830381600087803b158015610d4f57600080fd5b505af1158015610d63573d6000803e3d6000fd5b505050506040513d6000823e601f3d908101601f19168201604052610160811015610d8d57600080fd5b8151602083015160408401516060850151608086015160a087015160c088015160e08901516101008a01516101208b01516101408c0180519a9c999b989a97999698959794969395929491939283019291640100000000811115610df057600080fd5b82016020810184811115610e0357600080fd5b8151640100000000811182820187101715610e1d57600080fd5b50509291905050509c509c5050509a509a50509950505050610e3f8c88612815565b610e4c8c8760ff166128a7565b610e568c86612939565b610e608c856129cb565b610e6a8c84612ac8565b610ee88c8a600160a060020a031663d6edcb388f6040518263ffffffff1660e060020a02815260040180828152602001915050602060405180830381600087803b158015610eb757600080fd5b505af1158015610ecb573d6000803e3d6000fd5b505050506040513d6020811015610ee157600080fd5b5051612330565b88600160a060020a0316639a5737866040518163ffffffff1660e060020a028152600401602060405180830381600087803b158015610f2657600080fd5b505af1158015610f3a573d6000803e3d6000fd5b505050506040513d6020811015610f5057600080fd5b50519150600090505b89518110156110cb5787610f6b6109ba565b116110a25788600160a060020a031663c14bfd298d84600160a060020a0316632befe2e18e86815181101515610f9d57fe5b906020019060200201516040518263ffffffff1660e060020a0281526004018082600160a060020a0316600160a060020a03168152602001915050602060405180830381600087803b158015610ff257600080fd5b505af1158015611006573d6000803e3d6000fd5b505050506040513d602081101561101c57600080fd5b50516040805160e060020a63ffffffff86160281526004810193909352600160a060020a0390911660248301525160448083019260209291908290030181600087803b15801561106b57600080fd5b505af115801561107f573d6000803e3d6000fd5b505050506040513d602081101561109557600080fd5b505115156110a257600080fd5b6110c38c8b838151811015156110b457fe5b90602001906020020151612bae565b600101610f59565b505050505050505050505050565b60006110e36109ba565b6110ec83612c50565b111580156105b957506110fe82612ce2565b6111066109ba565b111592915050565b600080600080600080600060606000806111278c612c50565b99506111328c612ce2565b985061113d8c612d74565b97506111488c612e06565b96506111538c612e98565b955061115e8c612f6f565b94506111698c613001565b93506111748c6130de565b925061117f8c611de4565b915061118b8c8c6116c9565b90509295989b9194979a5092959850565b60408051600080516020613a988339815191526020808301919091528183018490527f696e6465780000000000000000000000000000000000000000000000000000006060808401919091528351808403909101815260809092019283905281516000936002938593909282918401908083836020831061074f5780518252601f199092019160209182019101610730565b6212750090565b604080517f6d69677261746544697361626c656400000000000000000000000000000000008152815190819003600f01902060009081526006602052205460ff1690565b6040805160d960020a6437bbb732b9028152815190819003600501902060009081526004602052205433600160a060020a03909116146112b857600080fd5b6112c0610976565b15156112cb57600080fd5b6112d3611235565b156112dd57600080fd5b604080517f6d69677261746544697361626c656400000000000000000000000000000000008152815190819003600f0190206000908152600660205220805460ff19166001179055565b6000811161133457600080fd5b61133d82613253565b604080517f6d696e506f737369626c655468726573686f6c640000000000000000000000008152815190819003601401902060009081526002602052205550565b604080517f70726f787953746f7261676500000000000000000000000000000000000000008152815190819003600c019020600090815260046020522054600160a060020a031690565b6000336113d3611fac565b600160a060020a03166362b46d64826040518263ffffffff1660e060020a0281526004018082600160a060020a0316600160a060020a03168152602001915050602060405180830381600087803b15801561142d57600080fd5b505af1158015611441573d6000803e3d6000fd5b505050506040513d602081101561145757600080fd5b5051151561146457600080fd5b61146c611235565b151561147757600080fd5b61148084612e98565b1561148a57600080fd5b611492611fac565b600160a060020a0316632d260227336040518263ffffffff1660e060020a0281526004018082600160a060020a0316600160a060020a03168152602001915050602060405180830381600087803b1580156114ec57600080fd5b505af1158015611500573d6000803e3d6000fd5b505050506040513d602081101561151657600080fd5b505191506115248433610857565b151561152f57600080fd5b60018314156115525761154d8461154586612e06565b600101612815565b611570565b60028314156101445761154d84600161156a87612e06565b03612815565b61157a8483612bae565b61159d84611598600161158c88612d74565b9063ffffffff6132ad16565b6124ec565b33847f1fad44b452b708aff155b3190058d690f8a0f2e2463fc757b96d1ce1877d0ccc856115c96109ba565b604080519283526020830191909152600160a060020a03871682820152519081900360600190a350505050565b604080517f6d696e506f737369626c655468726573686f6c640000000000000000000000008152815190819003601401902060009081526002602052205490565b60408051600080516020613a988339815191526020808301919091528183018490527f6d696e5468726573686f6c644f66566f746572730000000000000000000000006060808401919091528351808403909101815260809092019283905281516000936002938593909282918401908083836020831061074f5780518252601f199092019160209182019101610730565b600080600160a060020a03831615156116e55760009150611782565b6116ed611fac565b600160a060020a0316632d260227846040518263ffffffff1660e060020a0281526004018082600160a060020a0316600160a060020a03168152602001915050602060405180830381600087803b15801561174757600080fd5b505af115801561175b573d6000803e3d6000fd5b505050506040513d602081101561177157600080fd5b5051905061177f8482612405565b91505b5092915050565b60008181808080611798611fac565b935083600160a060020a031663b9bdaa076040518163ffffffff1660e060020a028152600401602060405180830381600087803b1580156117d857600080fd5b505af11580156117ec573d6000803e3d6000fd5b505050506040513d602081101561180257600080fd5b50519250600091505b828210156118d85783600160a060020a031663a5a36dee866040518263ffffffff1660e060020a0281526004018082600160a060020a0316600160a060020a03168152602001915050602060405180830381600087803b15801561186e57600080fd5b505af1158015611882573d6000803e3d6000fd5b505050506040513d602081101561189857600080fd5b50519050600160a060020a03811615156118b557600095506118dd565b6118bf8882612405565b156118cd57600195506118dd565b93506001018361180b565b600095505b505050505092915050565b604080517f6e65787442616c6c6f74496400000000000000000000000000000000000000008152815190819003600c01902060009081526002602052205490565b604080517f76616c696461746f7241637469766542616c6c6f747300000000000000000000602080830191909152600160a060020a0384168284015282518083038401815260609092019283905281516000936002938593909282918401908083836020831061074f5780518252601f199092019160209182019101610730565b6040805160d960020a6437bbb732b90281528151908190036005019020600090815260046020529081205481908190819081908190819033600160a060020a03909116146119f757600080fd5b600160a060020a0388161515611a0c57600080fd5b611a14610976565b1515611a1f57600080fd5b611a27611235565b15611a3157600080fd5b879650611a3c61137e565b600160a060020a0316638b8414c46040518163ffffffff1660e060020a028152600401602060405180830381600087803b158015611a7957600080fd5b505af1158015611a8d573d6000803e3d6000fd5b505050506040513d6020811015611aa357600080fd5b5051604080517fdc6bfbb50000000000000000000000000000000000000000000000000000000081529051919750611b3891600160a060020a038a169163dc6bfbb59160048083019260209291908290030181600087803b158015611b0757600080fd5b505af1158015611b1b573d6000803e3d6000fd5b505050506040513d6020811015611b3157600080fd5b50516132c3565b86600160a060020a0316636ccc02346040518163ffffffff1660e060020a028152600401602060405180830381600087803b158015611b7657600080fd5b505af1158015611b8a573d6000803e3d6000fd5b505050506040513d6020811015611ba057600080fd5b50519350611bac613303565b600094505b83851015611c4157611c3687600160a060020a0316633bf05e95876040518263ffffffff1660e060020a02815260040180828152602001915050602060405180830381600087803b158015611c0557600080fd5b505af1158015611c19573d6000803e3d6000fd5b505050506040513d6020811015611c2f57600080fd5b505161333b565b600190940193611bb1565b85600160a060020a0316630eaba26a6040518163ffffffff1660e060020a028152600401602060405180830381600087803b158015611c7f57600080fd5b505af1158015611c93573d6000803e3d6000fd5b505050506040513d6020811015611ca957600080fd5b50516000955092505b82851015611dda5785600160a060020a031663900eb5a8866040518263ffffffff1660e060020a02815260040180828152602001915050602060405180830381600087803b158015611d0357600080fd5b505af1158015611d17573d6000803e3d6000fd5b505050506040513d6020811015611d2d57600080fd5b5051604080517ff49774ee000000000000000000000000000000000000000000000000000000008152600160a060020a03808416600483015291519294509089169163f49774ee916024808201926020929091908290030181600087803b158015611d9757600080fd5b505af1158015611dab573d6000803e3d6000fd5b505050506040513d6020811015611dc157600080fd5b50519050611dcf828261337c565b600190940193611cb2565b5050505050505050565b6000806000806000611df4611235565b1515611e035760009450611fa3565b611e0b6109ba565b9350611e1686612c50565b9250611e206118e8565b8610611e2f5760009450611fa3565b83831115611e405760009450611fa3565b611e4986612e98565b15611e575760009450611fa3565b611e5f61137e565b600160a060020a0316638b8414c46040518163ffffffff1660e060020a028152600401602060405180830381600087803b158015611e9c57600080fd5b505af1158015611eb0573d6000803e3d6000fd5b505050506040513d6020811015611ec657600080fd5b5051604080517fa87563370000000000000000000000000000000000000000000000000000000081529051600160a060020a039092169163a8756337916004808201926020929091908290030181600087803b158015611f2557600080fd5b505af1158015611f39573d6000803e3d6000fd5b505050506040513d6020811015611f4f57600080fd5b50519150811515611f635760009450611fa3565b81611f6d87612d74565b1015611f8457611f7c866110d9565b159450611fa3565b611f94848463ffffffff6133fd16565b9050611f9e6105bf565b811194505b50505050919050565b6000611fb661137e565b600160a060020a0316639a5737866040518163ffffffff1660e060020a028152600401602060405180830381600087803b158015611ff357600080fd5b505af1158015612007573d6000803e3d6000fd5b505050506040513d602081101561201d57600080fd5b5051905090565b61202d8161340f565b15156120455761203c81613488565b612045816134b7565b600061205082612e06565b13801561206d575061206181611637565b61206a82612d74565b10155b1561209b5761207b8161357f565b156120915761208c8160025b6128a7565b612096565b6120e8565b6120a6565b6120a6816003612087565b6120af81613614565b6120ba81600161257e565b604051339082907f3b208472607d900e1f689c976139d1147afc463fa00df525e9aff8b0604d298490600090a35b50565b60006120f561213e565b600160a060020a03166345e23b5360016040518263ffffffff1660e060020a02815260040180828152602001915050602060405180830381600087803b158015611ff357600080fd5b600061214861137e565b600160a060020a03166336ee77736040518163ffffffff1660e060020a028152600401602060405180830381600087803b158015611ff357600080fd5b600080600033612193611fac565b600160a060020a03166362b46d64826040518263ffffffff1660e060020a0281526004018082600160a060020a0316600160a060020a03168152602001915050602060405180830381600087803b1580156121ed57600080fd5b505af1158015612201573d6000803e3d6000fd5b505050506040513d602081101561221757600080fd5b5051151561222457600080fd5b61222c611235565b151561223757600080fd5b61223f611fac565b600160a060020a0316632d260227336040518263ffffffff1660e060020a0281526004018082600160a060020a0316600160a060020a03168152602001915050602060405180830381600087803b15801561229957600080fd5b505af11580156122ad573d6000803e3d6000fd5b505050506040513d60208110156122c357600080fd5b505192506122d083613669565b15156122db57600080fd5b6122ea88888888600188613683565b91506122f78260006124ec565b612302826000612815565b6123138261230e6109be565b612939565b61231c8261333b565b612325836137bf565b509695505050505050565b60408051600080516020613a988339815191526020808301919091528183018590527f70726f706f73656456616c7565000000000000000000000000000000000000006060808401919091528351808403909101815260809092019283905281518493600293600093909282918401908083835b602083106123c35780518252601f1990920191602091820191016123a4565b51815160209384036101000a60001901801990921691161790526040805192909401829003909120865285019590955292909201600020939093555050505050565b60408051600080516020613a988339815191526020808301919091528183018590527f766f7465727300000000000000000000000000000000000000000000000000006060830152600160a060020a0384166080808401919091528351808403909101815260a09092019283905281516000936006938593909282918401908083835b602083106124a75780518252601f199092019160209182019101612488565b51815160209384036101000a600019018019909216911617905260408051929094018290039091208652850195909552929092016000205460ff169695505050505050565b60408051600080516020613a988339815191526020808301919091528183018590527f746f74616c566f74657273000000000000000000000000000000000000000000606080840191909152835180840390910181526080909201928390528151849360029360009390928291840190808383602083106123c35780518252601f1990920191602091820191016123a4565b60408051600080516020613a988339815191526020808301919091528183018590527f697346696e616c697a65640000000000000000000000000000000000000000006060808401919091528351808403909101815260809092019283905281518493600693600093909282918401908083835b602083106126115780518252601f1990920191602091820191016125f2565b51815160209384036101000a60001901801990921691161790526040805192909401829003909120865285019590955292909201600020805460ff1916941515949094179093555050505050565b60408051600080516020613a988339815191526020808301919091528183018590527f6d696e5468726573686f6c644f66566f74657273000000000000000000000000606080840191909152835180840390910181526080909201928390528151849360029360009390928291840190808383602083106123c35780518252601f1990920191602091820191016123a4565b60408051600080516020613a988339815191526020808301919091528183018590527f737461727454696d650000000000000000000000000000000000000000000000606080840191909152835180840390910181526080909201928390528151849360029360009390928291840190808383602083106123c35780518252601f1990920191602091820191016123a4565b60408051600080516020613a988339815191526020808301919091528183018590527f656e6454696d6500000000000000000000000000000000000000000000000000606080840191909152835180840390910181526080909201928390528151849360029360009390928291840190808383602083106123c35780518252601f1990920191602091820191016123a4565b60408051600080516020613a988339815191526020808301919091528183018590527f70726f6772657373000000000000000000000000000000000000000000000000606080840191909152835180840390910181526080909201928390528151849360079360009390928291840190808383602083106123c35780518252601f1990920191602091820191016123a4565b60408051600080516020613a988339815191526020808301919091528183018590527f71756f72756d5374617465000000000000000000000000000000000000000000606080840191909152835180840390910181526080909201928390528151849360029360009390928291840190808383602083106123c35780518252601f1990920191602091820191016123a4565b60408051600080516020613a988339815191526020808301919091528183018590527f696e646578000000000000000000000000000000000000000000000000000000606080840191909152835180840390910181526080909201928390528151849360029360009390928291840190808383602083106123c35780518252601f1990920191602091820191016123a4565b60408051600080516020613a988339815191526020808301919091528183018590527f63726561746f72000000000000000000000000000000000000000000000000006060808401919091528351808403909101815260809092019283905281518493600493600093909282918401908083835b60208310612a5e5780518252601f199092019160209182019101612a3f565b51815160209384036101000a60001901801990921691161790526040805192909401829003909120865285019590955292909201600020805473ffffffffffffffffffffffffffffffffffffffff1916600160a060020a0395909516949094179093555050505050565b60408051600080516020613a988339815191526020808301919091528183018590527f6d656d6f000000000000000000000000000000000000000000000000000000006060808401919091528351808403909101815260809092019283905281518493600393600093909282918401908083835b60208310612b5b5780518252601f199092019160209182019101612b3c565b51815160001960209485036101000a01908116901991909116179052604080519490920184900390932086528583019690965250929093016000208451612ba99591945092019190506139a1565b505050565b60408051600080516020613a988339815191526020808301919091528183018590527f766f7465727300000000000000000000000000000000000000000000000000006060830152600160a060020a0384166080808401919091528351808403909101815260a090920192839052815160019360069360009390928291840190808383602083106126115780518252601f1990920191602091820191016125f2565b60408051600080516020613a988339815191526020808301919091528183018490527f737461727454696d6500000000000000000000000000000000000000000000006060808401919091528351808403909101815260809092019283905281516000936002938593909282918401908083836020831061074f5780518252601f199092019160209182019101610730565b60408051600080516020613a988339815191526020808301919091528183018490527f656e6454696d65000000000000000000000000000000000000000000000000006060808401919091528351808403909101815260809092019283905281516000936002938593909282918401908083836020831061074f5780518252601f199092019160209182019101610730565b60408051600080516020613a988339815191526020808301919091528183018490527f746f74616c566f746572730000000000000000000000000000000000000000006060808401919091528351808403909101815260809092019283905281516000936002938593909282918401908083836020831061074f5780518252601f199092019160209182019101610730565b60408051600080516020613a988339815191526020808301919091528183018490527f70726f67726573730000000000000000000000000000000000000000000000006060808401919091528351808403909101815260809092019283905281516000936007938593909282918401908083836020831061074f5780518252601f199092019160209182019101610730565b60408051600080516020613a988339815191526020808301919091528183018490527f697346696e616c697a65640000000000000000000000000000000000000000006060808401919091528351808403909101815260809092019283905281516000936006938593909282918401908083835b60208310612f2b5780518252601f199092019160209182019101612f0c565b51815160209384036101000a600019018019909216911617905260408051929094018290039091208652850195909552929092016000205460ff1695945050505050565b60408051600080516020613a988339815191526020808301919091528183018490527f70726f706f73656456616c7565000000000000000000000000000000000000006060808401919091528351808403909101815260809092019283905281516000936002938593909282918401908083836020831061074f5780518252601f199092019160209182019101610730565b60408051600080516020613a988339815191526020808301919091528183018490527f63726561746f72000000000000000000000000000000000000000000000000006060808401919091528351808403909101815260809092019283905281516000936004938593909282918401908083835b602083106130945780518252601f199092019160209182019101613075565b51815160209384036101000a6000190180199092169116179052604080519290940182900390912086528501959095529290920160002054600160a060020a031695945050505050565b60408051600080516020613a988339815191526020808301919091528183018490527f6d656d6f0000000000000000000000000000000000000000000000000000000060608381019190915283518084038201815260809093019384905282519093600393600093909282918401908083835b602083106131705780518252601f199092019160209182019101613151565b6001836020036101000a0380198251168184511680821785525050505050509050019150506040518091039020600019166000191681526020019081526020016000208054600181600116156101000203166002900480601f0160208091040260200160405190810160405280929190818152602001828054600181600116156101000203166002900480156132475780601f1061321c57610100808354040283529160200191613247565b820191906000526020600020905b81548152906001019060200180831161322a57829003601f168201915b50505050509050919050565b6040805160d960020a6437bbb732b9028152815190819003600501902060009081526004602052205433600160a060020a039091161461329257600080fd5b61329a611235565b156132a457600080fd5b6120e8816137d6565b6000828201838110156132bc57fe5b9392505050565b604080517f6e65787442616c6c6f74496400000000000000000000000000000000000000008152815190819003600c019020600090815260026020522055565b60408051600080516020613a788339815191528152815190819003600d0190206000908152600960205290812061333991613a1f565b565b60408051600080516020613a788339815191528152815190819003600d01902060009081526009602090815291812080546001810182559082529190200155565b604080517f76616c696461746f7241637469766542616c6c6f747300000000000000000000602080830191909152600160a060020a038516828401528251808303840181526060909201928390528151849360029360009390928291840190808383602083106123c35780518252601f1990920191602091820191016123a4565b60008282111561340957fe5b50900390565b604080517f66696e616c697a6543616c6c6564000000000000000000000000000000000000602080830191909152818301849052825180830384018152606090920192839052815160009360069385939092829184019080838360208310612f2b5780518252601f199092019160209182019101612f0c565b60008061349483613001565b915061349f82611929565b90506000811115612ba957612ba9826001830361337c565b604080517f66696e616c697a6543616c6c65640000000000000000000000000000000000006020808301919091528183018490528251808303840181526060909201928390528151600193600693600093909282918401908083835b602083106135325780518252601f199092019160209182019101613513565b51815160209384036101000a60001901801990921691161790526040805192909401829003909120865285019590955292909201600020805460ff19169415159490941790935550505050565b600061358961213e565b600160a060020a031663b9c362096135a084612f6f565b60016040518363ffffffff1660e060020a0281526004018083815260200182815260200192505050602060405180830381600087803b1580156135e257600080fd5b505af11580156135f6573d6000803e3d6000fd5b505050506040513d602081101561360c57600080fd5b505192915050565b60008060006136228461119c565b9250600161362e6109be565b03915061363a8261092b565b905061364683826138c4565b6136508184612939565b61365b8260006138c4565b61366361390e565b50505050565b600061367361395a565b61367c83611929565b1092915050565b6000808686600080831180156136995750600082115b15156136a457600080fd5b82821180156136b957506136b66109ba565b83115b15156136c457600080fd5b6136d4828463ffffffff6133fd16565b90506136de6105bf565b81116136e957600080fd5b6136f161122e565b8111156136fd57600080fd5b613705610976565b151561371057600080fd5b6137186118e8565b935061373361372e85600163ffffffff6132ad16565b6132c3565b61373d848b6126f1565b613747848a612783565b61375284600061257e565b61375c84886128a7565b61376d846137686120eb565b61265f565b61377784876129cb565b6137818489612ac8565b60405133908c9086907fd1ba591c76ef71222e2d30b8277758713cc6eef1de29efaf98a716744ac2420b90600090a450919998505050505050505050565b6120e8816137d1600161158c85611929565b61337c565b6040805160d960020a6437bbb732b9028152815190819003600501902060009081526004602052205433600160a060020a039091161461381557600080fd5b61381d610976565b1561382757600080fd5b61382f61122e565b811061383a57600080fd5b604080517f6d696e42616c6c6f744475726174696f6e00000000000000000000000000000081528151908190036011018120600090815260026020908152838220949094557f696e697444697361626c656400000000000000000000000000000000000000008252825191829003600c01909120815260069092529020805460ff19166001179055565b60408051600080516020613a788339815191528152815190819003600d01902060009081526009602052208054829190849081106138fe57fe5b6000918252602090912001555050565b60006139186109be565b11156133395760408051600080516020613a788339815191528152815190819003600d01902060009081526009602052208054906120e8906000198301613a3d565b600061396461213e565b600160a060020a031663fcff021c6040518163ffffffff1660e060020a028152600401602060405180830381600087803b158015611ff357600080fd5b828054600181600116156101000203166002900490600052602060002090601f016020900481019282601f106139e257805160ff1916838001178555613a0f565b82800160010185558215613a0f579182015b82811115613a0f5782518255916020019190600101906139f4565b50613a1b929150613a5d565b5090565b50805460008255906000526020600020908101906120e89190613a5d565b815481835581811115612ba957600083815260209020612ba99181019083015b6105fe91905b80821115613a1b5760008155600101613a63560061637469766542616c6c6f747300000000000000000000000000000000000000766f74696e675374617465000000000000000000000000000000000000000000a165627a7a7230582081945e89ce6d87c478af05676e86d5a74f15fa4aa705503dc356556235e9914a0029",
  "source": "pragma solidity ^0.4.24;\n\nimport \"./interfaces/IVotingToChangeMinThresholdPrev.sol\";\nimport \"./abstracts/VotingToChange.sol\";\n\n\ncontract VotingToChangeMinThreshold is VotingToChange {\n    bytes32 internal constant MIN_POSSIBLE_THRESHOLD = keccak256(\"minPossibleThreshold\");\n\n    bytes32 internal constant PROPOSED_VALUE = \"proposedValue\";\n\n    function createBallot(\n        uint256 _startTime,\n        uint256 _endTime,\n        uint256 _proposedValue,\n        string _memo\n    ) public {\n        require(_proposedValue >= minPossibleThreshold());\n        require(_proposedValue != _getGlobalMinThresholdOfVoters());\n        require(_proposedValue <= _getBallotsStorage().getProxyThreshold());\n        uint256 ballotId = super._createBallot(\n            uint256(BallotTypes.MinThreshold),\n            _startTime,\n            _endTime,\n            _memo\n        );\n        _setProposedValue(ballotId, _proposedValue);\n    }\n\n    function getBallotInfo(uint256 _id, address _votingKey) public view returns(\n        uint256 startTime,\n        uint256 endTime,\n        uint256 totalVoters,\n        int256 progress,\n        bool isFinalized,\n        uint256 proposedValue,\n        address creator,\n        string memo,\n        bool canBeFinalizedNow,\n        bool alreadyVoted\n    ) {\n        startTime = _getStartTime(_id);\n        endTime = _getEndTime(_id);\n        totalVoters = _getTotalVoters(_id);\n        progress = _getProgress(_id);\n        isFinalized = _getIsFinalized(_id);\n        proposedValue = _getProposedValue(_id);\n        creator = _getCreator(_id);\n        memo = _getMemo(_id);\n        canBeFinalizedNow = _canBeFinalizedNow(_id);\n        alreadyVoted = hasAlreadyVoted(_id, _votingKey);\n    }\n\n    function init(\n        uint256 _minBallotDuration,\n        uint256 _minPossibleThreshold\n    ) public {\n        require(_minPossibleThreshold > 0);\n        _init(_minBallotDuration);\n        uintStorage[MIN_POSSIBLE_THRESHOLD] = _minPossibleThreshold;\n    }\n\n    function migrateBasicOne(\n        uint256 _id,\n        address _prevVotingToChange,\n        address[] _voters\n    ) public onlyOwner {\n        require(_prevVotingToChange != address(0));\n        require(initDisabled());\n        require(!migrateDisabled());\n        IVotingToChangeMinThresholdPrev prev =\n            IVotingToChangeMinThresholdPrev(_prevVotingToChange);\n        require(prev.getTotalVoters(_id) == _voters.length);\n\n        uint256 endTime = prev.getEndTime(_id);\n\n        _setTotalVoters(_id, _voters.length);\n        _setIsFinalized(_id, prev.getIsFinalized(_id));\n        _setMinThresholdOfVoters(_id, prev.getMinThresholdOfVoters(_id));\n        _setStartTime(_id, prev.getStartTime(_id));\n        _setEndTime(_id, endTime);\n\n        // solhint-disable indent\n        (\n            , , ,\n            int progress, ,\n            uint8 quorumState,\n            uint256 index, , ,\n            address creator,\n            string memory memo\n        ) = prev.votingState(_id);\n        // solhint-enable indent\n        _setProgress(_id, progress);\n        _setQuorumState(_id, quorumState);\n        _setIndex(_id, index);\n        _setCreator(_id, creator);\n        _setMemo(_id, memo);\n        \n        _setProposedValue(_id, prev.getProposedValue(_id));\n\n        IKeysManager prevKeysManager = IKeysManager(prev.getKeysManager());\n        for (uint256 i = 0; i < _voters.length; i++) {\n            if (getTime() <= endTime) {\n                require(prev.hasAlreadyVoted(_id, prevKeysManager.getVotingByMining(_voters[i])));\n            }\n            _votersAdd(_id, _voters[i]);\n        }\n    }\n\n    function minPossibleThreshold() public view returns(uint256) {\n        return uintStorage[MIN_POSSIBLE_THRESHOLD];\n    }\n\n    function _finalizeBallotInner(uint256 _id) internal returns(bool) {\n        return _getBallotsStorage().setThreshold(\n            _getProposedValue(_id),\n            uint256(ThresholdTypes.Keys)\n        );\n    }\n\n    function _getProposedValue(uint256 _id) internal view returns(uint256) {\n        return uintStorage[keccak256(abi.encode(VOTING_STATE, _id, PROPOSED_VALUE))];\n    }\n\n    function _setProposedValue(uint256 _ballotId, uint256 _value) private {\n        uintStorage[\n            keccak256(abi.encode(VOTING_STATE, _ballotId, PROPOSED_VALUE))\n        ] = _value;\n    }\n\n}\n",
  "sourcePath": "/Users/gabrielfournier1/Documents/POA_Network/building-network-open-eth/poco-deployement-rebase/repo-deployement-github-etc/poa-network-consensus-contracts/contracts/VotingToChangeMinThreshold.sol",
  "compiler": {
    "name": "solc",
    "version": "0.4.26+commit.4563c3fc.Emscripten.clang"
  },
  "schemaVersion": "2.0.3",
  "updatedAt": "2022-06-10T07:17:16.166Z"
}