{
  "contractName": "ACL",
  "abi": [
    {
      "inputs": [],
      "payable": false,
      "stateMutability": "nonpayable",
      "type": "constructor"
    },
    {
      "anonymous": false,
      "inputs": [
        {
          "indexed": true,
          "name": "previousOwner",
          "type": "address"
        },
        {
          "indexed": true,
          "name": "newOwner",
          "type": "address"
        }
      ],
      "name": "OwnershipTransferred",
      "type": "event"
    },
    {
      "anonymous": false,
      "inputs": [
        {
          "indexed": true,
          "name": "account",
          "type": "address"
        },
        {
          "indexed": false,
          "name": "oldPermission",
          "type": "uint32"
        },
        {
          "indexed": false,
          "name": "newPermission",
          "type": "uint32"
        }
      ],
      "name": "PermissionChanged",
      "type": "event"
    },
    {
      "anonymous": false,
      "inputs": [
        {
          "indexed": false,
          "name": "oldDefaultPermission",
          "type": "uint32"
        },
        {
          "indexed": false,
          "name": "newDefaultPermission",
          "type": "uint32"
        }
      ],
      "name": "DefaultPermissionChanged",
      "type": "event"
    },
    {
      "constant": false,
      "inputs": [],
      "name": "renounceOwnership",
      "outputs": [],
      "payable": false,
      "stateMutability": "nonpayable",
      "type": "function"
    },
    {
      "constant": false,
      "inputs": [
        {
          "name": "newOwner",
          "type": "address"
        }
      ],
      "name": "transferOwnership",
      "outputs": [],
      "payable": false,
      "stateMutability": "nonpayable",
      "type": "function"
    },
    {
      "constant": false,
      "inputs": [
        {
          "name": "newDefaultPermission",
          "type": "uint32"
        }
      ],
      "name": "setDefaultPermission",
      "outputs": [],
      "payable": false,
      "stateMutability": "nonpayable",
      "type": "function"
    },
    {
      "constant": false,
      "inputs": [
        {
          "name": "account",
          "type": "address"
        },
        {
          "name": "permission",
          "type": "uint32"
        }
      ],
      "name": "setPermission",
      "outputs": [],
      "payable": false,
      "stateMutability": "nonpayable",
      "type": "function"
    },
    {
      "constant": false,
      "inputs": [
        {
          "name": "account",
          "type": "address"
        }
      ],
      "name": "setPermissionNone",
      "outputs": [],
      "payable": false,
      "stateMutability": "nonpayable",
      "type": "function"
    },
    {
      "constant": false,
      "inputs": [
        {
          "name": "account",
          "type": "address"
        }
      ],
      "name": "setPermissionAll",
      "outputs": [],
      "payable": false,
      "stateMutability": "nonpayable",
      "type": "function"
    },
    {
      "constant": false,
      "inputs": [
        {
          "name": "account",
          "type": "address"
        }
      ],
      "name": "setPermissionBasic",
      "outputs": [],
      "payable": false,
      "stateMutability": "nonpayable",
      "type": "function"
    },
    {
      "constant": false,
      "inputs": [
        {
          "name": "account",
          "type": "address"
        }
      ],
      "name": "setPermissionCall",
      "outputs": [],
      "payable": false,
      "stateMutability": "nonpayable",
      "type": "function"
    },
    {
      "constant": false,
      "inputs": [
        {
          "name": "account",
          "type": "address"
        }
      ],
      "name": "setPermissionPrivate",
      "outputs": [],
      "payable": false,
      "stateMutability": "nonpayable",
      "type": "function"
    },
    {
      "constant": false,
      "inputs": [
        {
          "name": "account",
          "type": "address"
        }
      ],
      "name": "setPermissionBasicCall",
      "outputs": [],
      "payable": false,
      "stateMutability": "nonpayable",
      "type": "function"
    },
    {
      "constant": true,
      "inputs": [],
      "name": "owner",
      "outputs": [
        {
          "name": "",
          "type": "address"
        }
      ],
      "payable": false,
      "stateMutability": "view",
      "type": "function"
    },
    {
      "constant": true,
      "inputs": [],
      "name": "isOwner",
      "outputs": [
        {
          "name": "",
          "type": "bool"
        }
      ],
      "payable": false,
      "stateMutability": "view",
      "type": "function"
    },
    {
      "constant": true,
      "inputs": [
        {
          "name": "account",
          "type": "address"
        }
      ],
      "name": "permission",
      "outputs": [
        {
          "name": "",
          "type": "uint32"
        }
      ],
      "payable": false,
      "stateMutability": "view",
      "type": "function"
    },
    {
      "constant": true,
      "inputs": [
        {
          "name": "account",
          "type": "address"
        }
      ],
      "name": "permissionned",
      "outputs": [
        {
          "name": "",
          "type": "bool"
        }
      ],
      "payable": false,
      "stateMutability": "view",
      "type": "function"
    },
    {
      "constant": true,
      "inputs": [],
      "name": "defaultPermission",
      "outputs": [
        {
          "name": "",
          "type": "uint32"
        }
      ],
      "payable": false,
      "stateMutability": "view",
      "type": "function"
    },
    {
      "constant": true,
      "inputs": [
        {
          "name": "sender",
          "type": "address"
        }
      ],
      "name": "allowedTxTypes",
      "outputs": [
        {
          "name": "",
          "type": "uint32"
        }
      ],
      "payable": false,
      "stateMutability": "view",
      "type": "function"
    }
  ],
  "bytecode": "0x608060405234801561001057600080fd5b5060038054600160a060020a031916339081179091556040516000907f8be0079c531659141344cd1fd0a4f28419497f9722a3daafe3b4186f6b6457e0908290a36000805463ffffffff191660031790556109e6806100706000396000f3006080604052600436106100e55763ffffffff7c010000000000000000000000000000000000000000000000000000000060003504166329b68d0681146100ea5780633e7a221b1461011f57806343b5f13c1461014d57806368226a781461016d578063715018a61461018e5780638da5cb5b146101a35780638f32d59b146101d45780639cc68665146101e9578063a0fba2a81461020a578063afc261901461022b578063b887665614610255578063bc26cbd614610276578063c5ef911914610297578063d395b714146102b8578063e1751221146102d9578063f2fde38b146102fa575b600080fd5b3480156100f657600080fd5b5061010b600160a060020a036004351661031b565b604080519115158252519081900360200190f35b34801561012b57600080fd5b5061013461033d565b6040805163ffffffff9092168252519081900360200190f35b34801561015957600080fd5b5061016b63ffffffff60043516610349565b005b34801561017957600080fd5b50610134600160a060020a03600435166103f6565b34801561019a57600080fd5b5061016b610417565b3480156101af57600080fd5b506101b86104ba565b60408051600160a060020a039092168252519081900360200190f35b3480156101e057600080fd5b5061010b6104c9565b3480156101f557600080fd5b5061016b600160a060020a03600435166104da565b34801561021657600080fd5b5061016b600160a060020a0360043516610534565b34801561023757600080fd5b5061016b600160a060020a036004351663ffffffff6024351661058b565b34801561026157600080fd5b5061016b600160a060020a03600435166105e5565b34801561028257600080fd5b5061016b600160a060020a036004351661063f565b3480156102a357600080fd5b5061016b600160a060020a0360043516610696565b3480156102c457600080fd5b5061016b600160a060020a03600435166106ed565b3480156102e557600080fd5b50610134600160a060020a0360043516610744565b34801561030657600080fd5b5061016b600160a060020a0360043516610799565b600160a060020a03811660009081526001602052604090205460ff165b919050565b60005463ffffffff1690565b6103516104c9565b1515610395576040805160e560020a62461bcd028152602060048201819052602482015260008051602061099b833981519152604482015290519081900360640190fd5b6000546040805163ffffffff9283168152918316602083015280517f2a0d4a18c7b1c2cc639fbcc35077e63bc18be93b5ea3f4c91f606b00e73ccd569281900390910190a16000805463ffffffff191663ffffffff92909216919091179055565b600160a060020a031660009081526002602052604090205463ffffffff1690565b61041f6104c9565b1515610463576040805160e560020a62461bcd028152602060048201819052602482015260008051602061099b833981519152604482015290519081900360640190fd5b600354604051600091600160a060020a0316907f8be0079c531659141344cd1fd0a4f28419497f9722a3daafe3b4186f6b6457e0908390a36003805473ffffffffffffffffffffffffffffffffffffffff19169055565b600354600160a060020a031690565b600354600160a060020a0316331490565b6104e26104c9565b1515610526576040805160e560020a62461bcd028152602060048201819052602482015260008051602061099b833981519152604482015290519081900360640190fd5b6105318160006107ee565b50565b61053c6104c9565b1515610580576040805160e560020a62461bcd028152602060048201819052602482015260008051602061099b833981519152604482015290519081900360640190fd5b6105318160036107ee565b6105936104c9565b15156105d7576040805160e560020a62461bcd028152602060048201819052602482015260008051602061099b833981519152604482015290519081900360640190fd5b6105e182826107ee565b5050565b6105ed6104c9565b1515610631576040805160e560020a62461bcd028152602060048201819052602482015260008051602061099b833981519152604482015290519081900360640190fd5b6105318163ffffffff6107ee565b6106476104c9565b151561068b576040805160e560020a62461bcd028152602060048201819052602482015260008051602061099b833981519152604482015290519081900360640190fd5b6105318160086107ee565b61069e6104c9565b15156106e2576040805160e560020a62461bcd028152602060048201819052602482015260008051602061099b833981519152604482015290519081900360640190fd5b6105318160026107ee565b6106f56104c9565b1515610739576040805160e560020a62461bcd028152602060048201819052602482015260008051602061099b833981519152604482015290519081900360640190fd5b6105318160016107ee565b600160a060020a03811660009081526001602052604081205460ff161561078a5750600160a060020a03811660009081526002602052604090205463ffffffff16610338565b5060005463ffffffff16610338565b6107a16104c9565b15156107e5576040805160e560020a62461bcd028152602060048201819052602482015260008051602061099b833981519152604482015290519081900360640190fd5b610531816108ab565b600160a060020a038216151561080357600080fd5b600160a060020a03821660008181526002602090815260409182902054825163ffffffff91821681529085169181019190915281517f63420e20d5fb1b203bc6ae84aadc6c238229697addf2cff8522ca5183ced785c929181900390910190a2600160a060020a03919091166000908152600160208181526040808420805460ff1916909317909255600290529020805463ffffffff191663ffffffff909216919091179055565b600160a060020a0381161515610931576040805160e560020a62461bcd02815260206004820152602660248201527f4f776e61626c653a206e6577206f776e657220697320746865207a65726f206160448201527f6464726573730000000000000000000000000000000000000000000000000000606482015290519081900360840190fd5b600354604051600160a060020a038084169216907f8be0079c531659141344cd1fd0a4f28419497f9722a3daafe3b4186f6b6457e090600090a36003805473ffffffffffffffffffffffffffffffffffffffff1916600160a060020a039290921691909117905556004f776e61626c653a2063616c6c6572206973206e6f7420746865206f776e6572a165627a7a7230582088d5854e27f420c36dcddcbb704532c35bc3eb748999d210ca137ea96ba5315c0029",
  "source": "pragma solidity ^0.4.24;\n\ncontract ACL {\n    /// Allowed transaction types mask\n    uint32 constant NONE_MASK = 0;\n    uint32 constant ALL_MASK = 0xffffffff;\n    uint32 constant BASIC_MASK = 0x01;\n    uint32 constant CALL_MASK = 0x02;\n    uint32 constant CREATE_MASK = 0x04;\n    uint32 constant PRIVATE_MASK = 0x08;\n\n    uint32 private _defaultPermission;\n\n    mapping (address => bool) private _permissionned;\n\n    mapping (address => uint32) private _permissions;\n\n    address private _owner;\n\n    event OwnershipTransferred(address indexed previousOwner, address indexed newOwner);\n\n    event PermissionChanged(address indexed account, uint32 oldPermission, uint32 newPermission);\n\n    event DefaultPermissionChanged(uint32 oldDefaultPermission, uint32 newDefaultPermission);\n\n    /**\n     * @dev Initializes the contract setting the deployer as the initial owner and defaultPermission to:  BASIC_MASK | CALL_MASK\n     */\n    constructor () public {\n        _owner = msg.sender;\n        emit OwnershipTransferred(address(0), msg.sender);\n        _defaultPermission = BASIC_MASK | CALL_MASK;\n    }\n\n\n    modifier onlyOwner() {\n        require(isOwner(), \"Ownable: caller is not the owner\");\n        _;\n    }\n\n    /**\n     * @dev ownership change functions\n     */\n    function renounceOwnership() public onlyOwner {\n        emit OwnershipTransferred(_owner, address(0));\n        _owner = address(0);\n    }\n\n    function transferOwnership(address newOwner) public onlyOwner {\n        _transferOwnership(newOwner);\n    }\n\n    function _transferOwnership(address newOwner) internal {\n        require(newOwner != address(0), \"Ownable: new owner is the zero address\");\n        emit OwnershipTransferred(_owner, newOwner);\n        _owner = newOwner;\n    }\n\n    /**\n     * @dev permissions change functions\n     */\n    function setDefaultPermission(uint32 newDefaultPermission) public onlyOwner {\n        emit DefaultPermissionChanged(_defaultPermission,newDefaultPermission);\n        _defaultPermission = newDefaultPermission;\n    }\n\n    function setPermission(address account,uint32 permission) public onlyOwner {\n        _setPermission(account,permission);\n    }\n\n    function setPermissionNone(address account) public onlyOwner {\n        _setPermission(account,NONE_MASK);\n    }\n\n    function setPermissionAll(address account) public onlyOwner {\n        _setPermission(account,ALL_MASK);\n    }\n\n    function setPermissionBasic(address account) public onlyOwner {\n        _setPermission(account,BASIC_MASK);\n    }\n\n    function setPermissionCall(address account) public onlyOwner {\n        _setPermission(account,CALL_MASK);\n    }\n\n    function setPermissionPrivate(address account) public onlyOwner {\n        _setPermission(account,PRIVATE_MASK);\n    }\n\n    function setPermissionBasicCall(address account) public onlyOwner {\n        _setPermission(account,BASIC_MASK | CALL_MASK);\n    }\n\n    function _setPermission(address account,uint32 permission) internal {\n        require(account != address(0));\n        emit PermissionChanged(account,_permissions[account],permission);\n        _permissionned[account] = true;\n        _permissions[account] = permission;\n    }\n\n     /**\n     * @dev Views\n     */\n    function owner() public view returns (address) {\n        return _owner;\n    }\n\n    function isOwner() public view returns (bool) {\n        return msg.sender == _owner;\n    }\n\n    function permission(address account) public view returns (uint32) {\n        return _permissions[account];\n    }\n\n    function permissionned(address account) public view returns (bool) {\n        return _permissionned[account];\n    }\n\n    function defaultPermission() public view returns (uint32) {\n        return _defaultPermission;\n    }\n\n    function allowedTxTypes(address sender) public view returns (uint32)\n    {\n        if(_permissionned[sender]){\n            return _permissions[sender];\n        }\n        else{\n            return _defaultPermission;\n        }\n    }\n\n\n\n\n}",
  "sourcePath": "/Users/gabrielfournier1/Documents/POA_Network/building-network-open-eth/poco-deployement-rebase/repo-deployement-github-etc/poa-network-consensus-contracts/contracts/ACL/ACL.sol",
  "compiler": {
    "name": "solc",
    "version": "0.4.26+commit.4563c3fc.Emscripten.clang"
  },
  "schemaVersion": "2.0.3",
  "updatedAt": "2022-06-10T07:17:16.172Z"
}