{
  "contractName": "VotingToChangeProxyAddress",
  "abi": [
    {
      "constant": true,
      "inputs": [
        {
          "name": "_id",
          "type": "uint256"
        }
      ],
      "name": "canBeFinalizedNow",
      "outputs": [
        {
          "name": "",
          "type": "bool"
        }
      ],
      "payable": false,
      "stateMutability": "view",
      "type": "function"
    },
    {
      "constant": true,
      "inputs": [],
      "name": "minBallotDuration",
      "outputs": [
        {
          "name": "",
          "type": "uint256"
        }
      ],
      "payable": false,
      "stateMutability": "view",
      "type": "function"
    },
    {
      "constant": false,
      "inputs": [
        {
          "name": "_id",
          "type": "uint256"
        }
      ],
      "name": "finalize",
      "outputs": [],
      "payable": false,
      "stateMutability": "nonpayable",
      "type": "function"
    },
    {
      "constant": true,
      "inputs": [
        {
          "name": "_id",
          "type": "uint256"
        }
      ],
      "name": "getQuorumState",
      "outputs": [
        {
          "name": "",
          "type": "uint256"
        }
      ],
      "payable": false,
      "stateMutability": "view",
      "type": "function"
    },
    {
      "constant": true,
      "inputs": [
        {
          "name": "_id",
          "type": "uint256"
        },
        {
          "name": "_votingKey",
          "type": "address"
        }
      ],
      "name": "isValidVote",
      "outputs": [
        {
          "name": "",
          "type": "bool"
        }
      ],
      "payable": false,
      "stateMutability": "view",
      "type": "function"
    },
    {
      "constant": true,
      "inputs": [
        {
          "name": "_index",
          "type": "uint256"
        }
      ],
      "name": "activeBallots",
      "outputs": [
        {
          "name": "",
          "type": "uint256"
        }
      ],
      "payable": false,
      "stateMutability": "view",
      "type": "function"
    },
    {
      "constant": true,
      "inputs": [],
      "name": "initDisabled",
      "outputs": [
        {
          "name": "",
          "type": "bool"
        }
      ],
      "payable": false,
      "stateMutability": "view",
      "type": "function"
    },
    {
      "constant": true,
      "inputs": [],
      "name": "getTime",
      "outputs": [
        {
          "name": "",
          "type": "uint256"
        }
      ],
      "payable": false,
      "stateMutability": "view",
      "type": "function"
    },
    {
      "constant": true,
      "inputs": [],
      "name": "activeBallotsLength",
      "outputs": [
        {
          "name": "",
          "type": "uint256"
        }
      ],
      "payable": false,
      "stateMutability": "view",
      "type": "function"
    },
    {
      "constant": true,
      "inputs": [
        {
          "name": "_id",
          "type": "uint256"
        }
      ],
      "name": "isActive",
      "outputs": [
        {
          "name": "",
          "type": "bool"
        }
      ],
      "payable": false,
      "stateMutability": "view",
      "type": "function"
    },
    {
      "constant": true,
      "inputs": [
        {
          "name": "_id",
          "type": "uint256"
        }
      ],
      "name": "getIndex",
      "outputs": [
        {
          "name": "",
          "type": "uint256"
        }
      ],
      "payable": false,
      "stateMutability": "view",
      "type": "function"
    },
    {
      "constant": true,
      "inputs": [],
      "name": "maxBallotDuration",
      "outputs": [
        {
          "name": "",
          "type": "uint256"
        }
      ],
      "payable": false,
      "stateMutability": "pure",
      "type": "function"
    },
    {
      "constant": true,
      "inputs": [],
      "name": "migrateDisabled",
      "outputs": [
        {
          "name": "",
          "type": "bool"
        }
      ],
      "payable": false,
      "stateMutability": "view",
      "type": "function"
    },
    {
      "constant": false,
      "inputs": [],
      "name": "migrateDisable",
      "outputs": [],
      "payable": false,
      "stateMutability": "nonpayable",
      "type": "function"
    },
    {
      "constant": true,
      "inputs": [],
      "name": "proxyStorage",
      "outputs": [
        {
          "name": "",
          "type": "address"
        }
      ],
      "payable": false,
      "stateMutability": "view",
      "type": "function"
    },
    {
      "constant": false,
      "inputs": [
        {
          "name": "_id",
          "type": "uint256"
        },
        {
          "name": "_choice",
          "type": "uint256"
        }
      ],
      "name": "vote",
      "outputs": [],
      "payable": false,
      "stateMutability": "nonpayable",
      "type": "function"
    },
    {
      "constant": true,
      "inputs": [
        {
          "name": "_id",
          "type": "uint256"
        }
      ],
      "name": "getMinThresholdOfVoters",
      "outputs": [
        {
          "name": "",
          "type": "uint256"
        }
      ],
      "payable": false,
      "stateMutability": "view",
      "type": "function"
    },
    {
      "constant": true,
      "inputs": [
        {
          "name": "_id",
          "type": "uint256"
        },
        {
          "name": "_votingKey",
          "type": "address"
        }
      ],
      "name": "hasAlreadyVoted",
      "outputs": [
        {
          "name": "",
          "type": "bool"
        }
      ],
      "payable": false,
      "stateMutability": "view",
      "type": "function"
    },
    {
      "constant": true,
      "inputs": [
        {
          "name": "_id",
          "type": "uint256"
        },
        {
          "name": "_miningKey",
          "type": "address"
        }
      ],
      "name": "areOldMiningKeysVoted",
      "outputs": [
        {
          "name": "",
          "type": "bool"
        }
      ],
      "payable": false,
      "stateMutability": "view",
      "type": "function"
    },
    {
      "constant": true,
      "inputs": [],
      "name": "nextBallotId",
      "outputs": [
        {
          "name": "",
          "type": "uint256"
        }
      ],
      "payable": false,
      "stateMutability": "view",
      "type": "function"
    },
    {
      "constant": true,
      "inputs": [
        {
          "name": "_miningKey",
          "type": "address"
        }
      ],
      "name": "validatorActiveBallots",
      "outputs": [
        {
          "name": "",
          "type": "uint256"
        }
      ],
      "payable": false,
      "stateMutability": "view",
      "type": "function"
    },
    {
      "constant": false,
      "inputs": [
        {
          "name": "_prevVotingToChange",
          "type": "address"
        }
      ],
      "name": "migrateBasicAll",
      "outputs": [],
      "payable": false,
      "stateMutability": "nonpayable",
      "type": "function"
    },
    {
      "anonymous": false,
      "inputs": [
        {
          "indexed": true,
          "name": "id",
          "type": "uint256"
        },
        {
          "indexed": true,
          "name": "ballotType",
          "type": "uint256"
        },
        {
          "indexed": true,
          "name": "creator",
          "type": "address"
        }
      ],
      "name": "BallotCreated",
      "type": "event"
    },
    {
      "anonymous": false,
      "inputs": [
        {
          "indexed": true,
          "name": "id",
          "type": "uint256"
        },
        {
          "indexed": true,
          "name": "voter",
          "type": "address"
        }
      ],
      "name": "BallotFinalized",
      "type": "event"
    },
    {
      "anonymous": false,
      "inputs": [
        {
          "indexed": true,
          "name": "id",
          "type": "uint256"
        },
        {
          "indexed": false,
          "name": "decision",
          "type": "uint256"
        },
        {
          "indexed": true,
          "name": "voter",
          "type": "address"
        },
        {
          "indexed": false,
          "name": "time",
          "type": "uint256"
        },
        {
          "indexed": false,
          "name": "voterMiningKey",
          "type": "address"
        }
      ],
      "name": "Vote",
      "type": "event"
    },
    {
      "constant": false,
      "inputs": [
        {
          "name": "_startTime",
          "type": "uint256"
        },
        {
          "name": "_endTime",
          "type": "uint256"
        },
        {
          "name": "_contractType",
          "type": "uint256"
        },
        {
          "name": "_memo",
          "type": "string"
        },
        {
          "name": "_proposedValue",
          "type": "address"
        }
      ],
      "name": "createBallot",
      "outputs": [],
      "payable": false,
      "stateMutability": "nonpayable",
      "type": "function"
    },
    {
      "constant": true,
      "inputs": [
        {
          "name": "_id",
          "type": "uint256"
        },
        {
          "name": "_votingKey",
          "type": "address"
        }
      ],
      "name": "getBallotInfo",
      "outputs": [
        {
          "name": "startTime",
          "type": "uint256"
        },
        {
          "name": "endTime",
          "type": "uint256"
        },
        {
          "name": "totalVoters",
          "type": "uint256"
        },
        {
          "name": "progress",
          "type": "int256"
        },
        {
          "name": "isFinalized",
          "type": "bool"
        },
        {
          "name": "proposedValue",
          "type": "address"
        },
        {
          "name": "contractType",
          "type": "uint256"
        },
        {
          "name": "creator",
          "type": "address"
        },
        {
          "name": "memo",
          "type": "string"
        },
        {
          "name": "canBeFinalizedNow",
          "type": "bool"
        },
        {
          "name": "alreadyVoted",
          "type": "bool"
        }
      ],
      "payable": false,
      "stateMutability": "view",
      "type": "function"
    },
    {
      "constant": false,
      "inputs": [
        {
          "name": "_minBallotDuration",
          "type": "uint256"
        }
      ],
      "name": "init",
      "outputs": [],
      "payable": false,
      "stateMutability": "nonpayable",
      "type": "function"
    },
    {
      "constant": false,
      "inputs": [
        {
          "name": "_id",
          "type": "uint256"
        },
        {
          "name": "_prevVotingToChange",
          "type": "address"
        },
        {
          "name": "_voters",
          "type": "address[]"
        }
      ],
      "name": "migrateBasicOne",
      "outputs": [],
      "payable": false,
      "stateMutability": "nonpayable",
      "type": "function"
    }
  ],
  "bytecode": "0x608060405234801561001057600080fd5b50613b81806100206000396000f3006080604052600436106101395763ffffffff60e060020a6000350416629b38fa811461013e57806302a99b9d1461016a57806305261aea1461019157806308dbb18e146101ab578063288fa739146101c35780633bf05e95146101e757806352a36938146101ff578063557ed1ba146102145780635908c674146102295780636ccc02341461029757806373ece100146102ac57806382afd23b146103135780638c64a20d1461032b5780638e7cb6e11461042957806396bc6ef0146104415780639fc18d4b14610456578063a3ac1eb11461046b578063ae4b1b5b14610480578063b384abef146104b1578063b7b0422d146104cc578063c088003d146104e4578063c14bfd29146104fc578063c7dea77714610520578063dc6bfbb514610544578063f49774ee14610559578063f71de2ed1461057a575b600080fd5b34801561014a57600080fd5b5061015660043561059b565b604080519115158252519081900360200190f35b34801561017657600080fd5b5061017f6105ac565b60408051918252519081900360200190f35b34801561019d57600080fd5b506101a96004356105ee565b005b3480156101b757600080fd5b5061017f6004356106a9565b3480156101cf57600080fd5b50610156600435600160a060020a036024351661077d565b3480156101f357600080fd5b5061017f600435610851565b34801561020b57600080fd5b5061015661089c565b34801561022057600080fd5b5061017f6108e0565b34801561023557600080fd5b50604080516020601f6064356004818101359283018490048402850184019095528184526101a9948035946024803595604435953695608494930191819084018382808284375094975050509235600160a060020a031693506108e492505050565b3480156102a357600080fd5b5061017f610926565b3480156102b857600080fd5b5060408051602060046044358181013583810280860185019096528085526101a99583359560248035600160a060020a0316963696956064959394920192918291850190849080828437509497506109559650505050505050565b34801561031f57600080fd5b506101566004356110c6565b34801561033757600080fd5b5061034f600435600160a060020a03602435166110fb565b604080518c815260208082018d90529181018b9052606081018a90528815156080820152600160a060020a0380891660a083015260c08201889052861660e0820152831515610120820152821515610140820152610160610100820181815286519183019190915285519192909161018084019187019080838360005b838110156103e45781810151838201526020016103cc565b50505050905090810190601f1680156104115780820380516001836020036101000a031916815260200191505b509c5050505050505050505050505060405180910390f35b34801561043557600080fd5b5061017f600435611196565b34801561044d57600080fd5b5061017f611228565b34801561046257600080fd5b5061015661122f565b34801561047757600080fd5b506101a9611273565b34801561048c57600080fd5b50610495611321565b60408051600160a060020a039092168252519081900360200190f35b3480156104bd57600080fd5b506101a960043560243561136b565b3480156104d857600080fd5b506101a9600435611599565b3480156104f057600080fd5b5061017f6004356115a5565b34801561050857600080fd5b50610156600435600160a060020a0360243516611637565b34801561052c57600080fd5b50610156600435600160a060020a03602435166116f7565b34801561055057600080fd5b5061017f611856565b34801561056557600080fd5b5061017f600160a060020a0360043516611897565b34801561058657600080fd5b506101a9600160a060020a0360043516611918565b60006105a682611d52565b92915050565b604080517f6d696e42616c6c6f744475726174696f6e000000000000000000000000000000815281519081900360110190206000908152600260205220545b90565b336105f7611f1a565b600160a060020a03166362b46d64826040518263ffffffff1660e060020a0281526004018082600160a060020a0316600160a060020a03168152602001915050602060405180830381600087803b15801561065157600080fd5b505af1158015610665573d6000803e3d6000fd5b505050506040513d602081101561067b57600080fd5b5051151561068857600080fd5b61069182611d52565b151561069c57600080fd5b6106a582611f92565b5050565b60408051600080516020613b368339815191526020808301919091528183018490527f71756f72756d53746174650000000000000000000000000000000000000000006060808401919091528351808403909101815260809092019283905281516000936002938593909282918401908083835b6020831061073c5780518252601f19909201916020918201910161071d565b51815160209384036101000a600019018019909216911617905260408051929094018290039091208652850195909552929092016000205495945050505050565b60008060008061078b611f1a565b600160a060020a0316632d260227866040518263ffffffff1660e060020a0281526004018082600160a060020a0316600160a060020a03168152602001915050602060405180830381600087803b1580156107e557600080fd5b505af11580156107f9573d6000803e3d6000fd5b505050506040513d602081101561080f57600080fd5b5051925061081d8684612058565b15915061082a86846116f7565b15905081801561083e575061083e866110c6565b80156108475750805b9695505050505050565b60408051600080516020613b168339815191528152815190819003600d0190206000908152600960205290812080548390811061088a57fe5b90600052602060002001549050919050565b604080517f696e697444697361626c656400000000000000000000000000000000000000008152815190819003600c01902060009081526006602052205460ff1690565b4290565b6000600160a060020a03821615156108fb57600080fd5b610908600587878661213f565b905061091481836122ea565b61091e81856123e7565b505050505050565b60408051600080516020613b168339815191528152815190819003600d01902060009081526009602052205490565b6040805160d960020a6437bbb732b902815281519081900360050190206000908152600460205290812054819081908190819081906060908290819033600160a060020a03909116146109a757600080fd5b600160a060020a038b1615156109bc57600080fd5b6109c461089c565b15156109cf57600080fd5b6109d761122f565b156109e157600080fd5b8a9850895189600160a060020a03166343d3a4c18e6040518263ffffffff1660e060020a02815260040180828152602001915050602060405180830381600087803b158015610a2f57600080fd5b505af1158015610a43573d6000803e3d6000fd5b505050506040513d6020811015610a5957600080fd5b505114610a6557600080fd5b88600160a060020a0316639067b6778d6040518263ffffffff1660e060020a02815260040180828152602001915050602060405180830381600087803b158015610aae57600080fd5b505af1158015610ac2573d6000803e3d6000fd5b505050506040513d6020811015610ad857600080fd5b50518a51909850610aea908d906124bc565b610b688c8a600160a060020a03166323e1a0a88f6040518263ffffffff1660e060020a02815260040180828152602001915050602060405180830381600087803b158015610b3757600080fd5b505af1158015610b4b573d6000803e3d6000fd5b505050506040513d6020811015610b6157600080fd5b505161254e565b610be68c8a600160a060020a031663c088003d8f6040518263ffffffff1660e060020a02815260040180828152602001915050602060405180830381600087803b158015610bb557600080fd5b505af1158015610bc9573d6000803e3d6000fd5b505050506040513d6020811015610bdf57600080fd5b505161262f565b610c648c8a600160a060020a031663bc2be1be8f6040518263ffffffff1660e060020a02815260040180828152602001915050602060405180830381600087803b158015610c3357600080fd5b505af1158015610c47573d6000803e3d6000fd5b505050506040513d6020811015610c5d57600080fd5b50516126c1565b610c6e8c89612753565b88600160a060020a031663ff84c45f8d6040518263ffffffff1660e060020a02815260040180828152602001915050600060405180830381600087803b158015610cb757600080fd5b505af1158015610ccb573d6000803e3d6000fd5b505050506040513d6000823e601f3d908101601f19168201604052610180811015610cf557600080fd5b8151602083015160408401516060850151608086015160a087015160c088015160e08901516101008a01516101208b01516101408c01516101608d0180519b9d9a9c999b989a9799969895979496939592949193820192640100000000811115610d5e57600080fd5b82016020810184811115610d7157600080fd5b8151640100000000811182820187101715610d8b57600080fd5b50509291905050509d509d505050509a509a50509950505050610dae8c886127e5565b610dbb8c8760ff16612877565b610dc58c86612909565b610dcf8c8561299b565b610dd98c84612a2d565b610e578c8a600160a060020a031663d6edcb388f6040518263ffffffff1660e060020a02815260040180828152602001915050602060405180830381600087803b158015610e2657600080fd5b505af1158015610e3a573d6000803e3d6000fd5b505050506040513d6020811015610e5057600080fd5b50516122ea565b610ed58c8a600160a060020a031663bdd4ae558f6040518263ffffffff1660e060020a02815260040180828152602001915050602060405180830381600087803b158015610ea457600080fd5b505af1158015610eb8573d6000803e3d6000fd5b505050506040513d6020811015610ece57600080fd5b50516123e7565b88600160a060020a0316639a5737866040518163ffffffff1660e060020a028152600401602060405180830381600087803b158015610f1357600080fd5b505af1158015610f27573d6000803e3d6000fd5b505050506040513d6020811015610f3d57600080fd5b50519150600090505b89518110156110b85787610f586108e0565b1161108f5788600160a060020a031663c14bfd298d84600160a060020a0316632befe2e18e86815181101515610f8a57fe5b906020019060200201516040518263ffffffff1660e060020a0281526004018082600160a060020a0316600160a060020a03168152602001915050602060405180830381600087803b158015610fdf57600080fd5b505af1158015610ff3573d6000803e3d6000fd5b505050506040513d602081101561100957600080fd5b50516040805160e060020a63ffffffff86160281526004810193909352600160a060020a0390911660248301525160448083019260209291908290030181600087803b15801561105857600080fd5b505af115801561106c573d6000803e3d6000fd5b505050506040513d602081101561108257600080fd5b5051151561108f57600080fd5b6110b08c8b838151811015156110a157fe5b90602001906020020151612b13565b600101610f46565b505050505050505050505050565b60006110d06108e0565b6110d983612bb5565b111580156105a657506110eb82612c47565b6110f36108e0565b111592915050565b60008060008060008060008060606000806111158d612bb5565b9a506111208d612c47565b995061112b8d612cd9565b98506111368d612d6b565b97506111418d612dfd565b965061114c8d612ed4565b95506111578d612fb1565b94506111628d613043565b935061116d8d6130d5565b92506111788d611d52565b91506111848d8d611637565b90509295989b509295989b9093969950565b60408051600080516020613b368339815191526020808301919091528183018490527f696e6465780000000000000000000000000000000000000000000000000000006060808401919091528351808403909101815260809092019283905281516000936002938593909282918401908083836020831061073c5780518252601f19909201916020918201910161071d565b6212750090565b604080517f6d69677261746544697361626c656400000000000000000000000000000000008152815190819003600f01902060009081526006602052205460ff1690565b6040805160d960020a6437bbb732b9028152815190819003600501902060009081526004602052205433600160a060020a03909116146112b257600080fd5b6112ba61089c565b15156112c557600080fd5b6112cd61122f565b156112d757600080fd5b604080517f6d69677261746544697361626c656400000000000000000000000000000000008152815190819003600f0190206000908152600660205220805460ff19166001179055565b604080517f70726f787953746f7261676500000000000000000000000000000000000000008152815190819003600c019020600090815260046020522054600160a060020a031690565b600033611376611f1a565b600160a060020a03166362b46d64826040518263ffffffff1660e060020a0281526004018082600160a060020a0316600160a060020a03168152602001915050602060405180830381600087803b1580156113d057600080fd5b505af11580156113e4573d6000803e3d6000fd5b505050506040513d60208110156113fa57600080fd5b5051151561140757600080fd5b61140f61122f565b151561141a57600080fd5b61142384612dfd565b1561142d57600080fd5b611435611f1a565b600160a060020a0316632d260227336040518263ffffffff1660e060020a0281526004018082600160a060020a0316600160a060020a03168152602001915050602060405180830381600087803b15801561148f57600080fd5b505af11580156114a3573d6000803e3d6000fd5b505050506040513d60208110156114b957600080fd5b505191506114c7843361077d565b15156114d257600080fd5b60018314156114f5576114f0846114e886612d6b565b6001016127e5565b611513565b6002831415610139576114f084600161150d87612d6b565b036127e5565b61151d8483612b13565b6115408461153b600161152f88612cd9565b9063ffffffff61324a16565b6124bc565b33847f1fad44b452b708aff155b3190058d690f8a0f2e2463fc757b96d1ce1877d0ccc8561156c6108e0565b604080519283526020830191909152600160a060020a03871682820152519081900360600190a350505050565b6115a281613260565b50565b60408051600080516020613b368339815191526020808301919091528183018490527f6d696e5468726573686f6c644f66566f746572730000000000000000000000006060808401919091528351808403909101815260809092019283905281516000936002938593909282918401908083836020831061073c5780518252601f19909201916020918201910161071d565b600080600160a060020a038316151561165357600091506116f0565b61165b611f1a565b600160a060020a0316632d260227846040518263ffffffff1660e060020a0281526004018082600160a060020a0316600160a060020a03168152602001915050602060405180830381600087803b1580156116b557600080fd5b505af11580156116c9573d6000803e3d6000fd5b505050506040513d60208110156116df57600080fd5b505190506116ed8482612058565b91505b5092915050565b60008181808080611706611f1a565b935083600160a060020a031663b9bdaa076040518163ffffffff1660e060020a028152600401602060405180830381600087803b15801561174657600080fd5b505af115801561175a573d6000803e3d6000fd5b505050506040513d602081101561177057600080fd5b50519250600091505b828210156118465783600160a060020a031663a5a36dee866040518263ffffffff1660e060020a0281526004018082600160a060020a0316600160a060020a03168152602001915050602060405180830381600087803b1580156117dc57600080fd5b505af11580156117f0573d6000803e3d6000fd5b505050506040513d602081101561180657600080fd5b50519050600160a060020a0381161515611823576000955061184b565b61182d8882612058565b1561183b576001955061184b565b935060010183611779565b600095505b505050505092915050565b604080517f6e65787442616c6c6f74496400000000000000000000000000000000000000008152815190819003600c01902060009081526002602052205490565b604080517f76616c696461746f7241637469766542616c6c6f747300000000000000000000602080830191909152600160a060020a0384168284015282518083038401815260609092019283905281516000936002938593909282918401908083836020831061073c5780518252601f19909201916020918201910161071d565b6040805160d960020a6437bbb732b90281528151908190036005019020600090815260046020529081205481908190819081908190819033600160a060020a039091161461196557600080fd5b600160a060020a038816151561197a57600080fd5b61198261089c565b151561198d57600080fd5b61199561122f565b1561199f57600080fd5b8796506119aa611321565b600160a060020a0316638b8414c46040518163ffffffff1660e060020a028152600401602060405180830381600087803b1580156119e757600080fd5b505af11580156119fb573d6000803e3d6000fd5b505050506040513d6020811015611a1157600080fd5b5051604080517fdc6bfbb50000000000000000000000000000000000000000000000000000000081529051919750611aa691600160a060020a038a169163dc6bfbb59160048083019260209291908290030181600087803b158015611a7557600080fd5b505af1158015611a89573d6000803e3d6000fd5b505050506040513d6020811015611a9f57600080fd5b50516132ba565b86600160a060020a0316636ccc02346040518163ffffffff1660e060020a028152600401602060405180830381600087803b158015611ae457600080fd5b505af1158015611af8573d6000803e3d6000fd5b505050506040513d6020811015611b0e57600080fd5b50519350611b1a6132fa565b600094505b83851015611baf57611ba487600160a060020a0316633bf05e95876040518263ffffffff1660e060020a02815260040180828152602001915050602060405180830381600087803b158015611b7357600080fd5b505af1158015611b87573d6000803e3d6000fd5b505050506040513d6020811015611b9d57600080fd5b5051613332565b600190940193611b1f565b85600160a060020a0316630eaba26a6040518163ffffffff1660e060020a028152600401602060405180830381600087803b158015611bed57600080fd5b505af1158015611c01573d6000803e3d6000fd5b505050506040513d6020811015611c1757600080fd5b50516000955092505b82851015611d485785600160a060020a031663900eb5a8866040518263ffffffff1660e060020a02815260040180828152602001915050602060405180830381600087803b158015611c7157600080fd5b505af1158015611c85573d6000803e3d6000fd5b505050506040513d6020811015611c9b57600080fd5b5051604080517ff49774ee000000000000000000000000000000000000000000000000000000008152600160a060020a03808416600483015291519294509089169163f49774ee916024808201926020929091908290030181600087803b158015611d0557600080fd5b505af1158015611d19573d6000803e3d6000fd5b505050506040513d6020811015611d2f57600080fd5b50519050611d3d8282613373565b600190940193611c20565b5050505050505050565b6000806000806000611d6261122f565b1515611d715760009450611f11565b611d796108e0565b9350611d8486612bb5565b9250611d8e611856565b8610611d9d5760009450611f11565b83831115611dae5760009450611f11565b611db786612dfd565b15611dc55760009450611f11565b611dcd611321565b600160a060020a0316638b8414c46040518163ffffffff1660e060020a028152600401602060405180830381600087803b158015611e0a57600080fd5b505af1158015611e1e573d6000803e3d6000fd5b505050506040513d6020811015611e3457600080fd5b5051604080517fa87563370000000000000000000000000000000000000000000000000000000081529051600160a060020a039092169163a8756337916004808201926020929091908290030181600087803b158015611e9357600080fd5b505af1158015611ea7573d6000803e3d6000fd5b505050506040513d6020811015611ebd57600080fd5b50519150811515611ed15760009450611f11565b81611edb87612cd9565b1015611ef257611eea866110c6565b159450611f11565b611f02848463ffffffff6133f416565b9050611f0c6105ac565b811194505b50505050919050565b6000611f24611321565b600160a060020a0316639a5737866040518163ffffffff1660e060020a028152600401602060405180830381600087803b158015611f6157600080fd5b505af1158015611f75573d6000803e3d6000fd5b505050506040513d6020811015611f8b57600080fd5b5051905090565b611f9b81613406565b1515611fb357611faa8161347f565b611fb3816134ae565b6000611fbe82612d6b565b138015611fdb5750611fcf816115a5565b611fd882612cd9565b10155b1561200957611fe981613576565b15611fff57611ffa8160025b612877565b612004565b6115a2565b612014565b612014816003611ff5565b61201d81613624565b61202881600161254e565b604051339082907f3b208472607d900e1f689c976139d1147afc463fa00df525e9aff8b0604d298490600090a350565b60408051600080516020613b368339815191526020808301919091528183018590527f766f7465727300000000000000000000000000000000000000000000000000006060830152600160a060020a0384166080808401919091528351808403909101815260a09092019283905281516000936006938593909282918401908083835b602083106120fa5780518252601f1990920191602091820191016120db565b51815160209384036101000a600019018019909216911617905260408051929094018290039091208652850195909552929092016000205460ff169695505050505050565b60008060003361214d611f1a565b600160a060020a03166362b46d64826040518263ffffffff1660e060020a0281526004018082600160a060020a0316600160a060020a03168152602001915050602060405180830381600087803b1580156121a757600080fd5b505af11580156121bb573d6000803e3d6000fd5b505050506040513d60208110156121d157600080fd5b505115156121de57600080fd5b6121e661122f565b15156121f157600080fd5b6121f9611f1a565b600160a060020a0316632d260227336040518263ffffffff1660e060020a0281526004018082600160a060020a0316600160a060020a03168152602001915050602060405180830381600087803b15801561225357600080fd5b505af1158015612267573d6000803e3d6000fd5b505050506040513d602081101561227d57600080fd5b5051925061228a83613679565b151561229557600080fd5b6122a488888888600188613693565b91506122b18260006124bc565b6122bc8260006127e5565b6122cd826122c8610926565b612909565b6122d682613332565b6122df836137cf565b509695505050505050565b60408051600080516020613b368339815191526020808301919091528183018590527f70726f706f73656456616c7565000000000000000000000000000000000000006060808401919091528351808403909101815260809092019283905281518493600493600093909282918401908083835b6020831061237d5780518252601f19909201916020918201910161235e565b51815160209384036101000a60001901801990921691161790526040805192909401829003909120865285019590955292909201600020805473ffffffffffffffffffffffffffffffffffffffff1916600160a060020a0395909516949094179093555050505050565b60408051600080516020613b368339815191526020808301919091528183018590527f636f6e74726163745479706500000000000000000000000000000000000000006060808401919091528351808403909101815260809092019283905281518493600293600093909282918401908083835b6020831061247a5780518252601f19909201916020918201910161245b565b51815160209384036101000a60001901801990921691161790526040805192909401829003909120865285019590955292909201600020939093555050505050565b60408051600080516020613b368339815191526020808301919091528183018590527f746f74616c566f746572730000000000000000000000000000000000000000006060808401919091528351808403909101815260809092019283905281518493600293600093909282918401908083836020831061247a5780518252601f19909201916020918201910161245b565b60408051600080516020613b368339815191526020808301919091528183018590527f697346696e616c697a65640000000000000000000000000000000000000000006060808401919091528351808403909101815260809092019283905281518493600693600093909282918401908083835b602083106125e15780518252601f1990920191602091820191016125c2565b51815160209384036101000a60001901801990921691161790526040805192909401829003909120865285019590955292909201600020805460ff1916941515949094179093555050505050565b60408051600080516020613b368339815191526020808301919091528183018590527f6d696e5468726573686f6c644f66566f746572730000000000000000000000006060808401919091528351808403909101815260809092019283905281518493600293600093909282918401908083836020831061247a5780518252601f19909201916020918201910161245b565b60408051600080516020613b368339815191526020808301919091528183018590527f737461727454696d6500000000000000000000000000000000000000000000006060808401919091528351808403909101815260809092019283905281518493600293600093909282918401908083836020831061247a5780518252601f19909201916020918201910161245b565b60408051600080516020613b368339815191526020808301919091528183018590527f656e6454696d65000000000000000000000000000000000000000000000000006060808401919091528351808403909101815260809092019283905281518493600293600093909282918401908083836020831061247a5780518252601f19909201916020918201910161245b565b60408051600080516020613b368339815191526020808301919091528183018590527f70726f67726573730000000000000000000000000000000000000000000000006060808401919091528351808403909101815260809092019283905281518493600793600093909282918401908083836020831061247a5780518252601f19909201916020918201910161245b565b60408051600080516020613b368339815191526020808301919091528183018590527f71756f72756d53746174650000000000000000000000000000000000000000006060808401919091528351808403909101815260809092019283905281518493600293600093909282918401908083836020831061247a5780518252601f19909201916020918201910161245b565b60408051600080516020613b368339815191526020808301919091528183018590527f696e6465780000000000000000000000000000000000000000000000000000006060808401919091528351808403909101815260809092019283905281518493600293600093909282918401908083836020831061247a5780518252601f19909201916020918201910161245b565b60408051600080516020613b368339815191526020808301919091528183018590527f63726561746f72000000000000000000000000000000000000000000000000006060808401919091528351808403909101815260809092019283905281518493600493600093909282918401908083836020831061237d5780518252601f19909201916020918201910161235e565b60408051600080516020613b368339815191526020808301919091528183018590527f6d656d6f000000000000000000000000000000000000000000000000000000006060808401919091528351808403909101815260809092019283905281518493600393600093909282918401908083835b60208310612ac05780518252601f199092019160209182019101612aa1565b51815160001960209485036101000a01908116901991909116179052604080519490920184900390932086528583019690965250929093016000208451612b0e959194509201919050613a3f565b505050565b60408051600080516020613b368339815191526020808301919091528183018590527f766f7465727300000000000000000000000000000000000000000000000000006060830152600160a060020a0384166080808401919091528351808403909101815260a090920192839052815160019360069360009390928291840190808383602083106125e15780518252601f1990920191602091820191016125c2565b60408051600080516020613b368339815191526020808301919091528183018490527f737461727454696d6500000000000000000000000000000000000000000000006060808401919091528351808403909101815260809092019283905281516000936002938593909282918401908083836020831061073c5780518252601f19909201916020918201910161071d565b60408051600080516020613b368339815191526020808301919091528183018490527f656e6454696d65000000000000000000000000000000000000000000000000006060808401919091528351808403909101815260809092019283905281516000936002938593909282918401908083836020831061073c5780518252601f19909201916020918201910161071d565b60408051600080516020613b368339815191526020808301919091528183018490527f746f74616c566f746572730000000000000000000000000000000000000000006060808401919091528351808403909101815260809092019283905281516000936002938593909282918401908083836020831061073c5780518252601f19909201916020918201910161071d565b60408051600080516020613b368339815191526020808301919091528183018490527f70726f67726573730000000000000000000000000000000000000000000000006060808401919091528351808403909101815260809092019283905281516000936007938593909282918401908083836020831061073c5780518252601f19909201916020918201910161071d565b60408051600080516020613b368339815191526020808301919091528183018490527f697346696e616c697a65640000000000000000000000000000000000000000006060808401919091528351808403909101815260809092019283905281516000936006938593909282918401908083835b60208310612e905780518252601f199092019160209182019101612e71565b51815160209384036101000a600019018019909216911617905260408051929094018290039091208652850195909552929092016000205460ff1695945050505050565b60408051600080516020613b368339815191526020808301919091528183018490527f70726f706f73656456616c7565000000000000000000000000000000000000006060808401919091528351808403909101815260809092019283905281516000936004938593909282918401908083835b60208310612f675780518252601f199092019160209182019101612f48565b51815160209384036101000a6000190180199092169116179052604080519290940182900390912086528501959095529290920160002054600160a060020a031695945050505050565b60408051600080516020613b368339815191526020808301919091528183018490527f636f6e74726163745479706500000000000000000000000000000000000000006060808401919091528351808403909101815260809092019283905281516000936002938593909282918401908083836020831061073c5780518252601f19909201916020918201910161071d565b60408051600080516020613b368339815191526020808301919091528183018490527f63726561746f720000000000000000000000000000000000000000000000000060608084019190915283518084039091018152608090920192839052815160009360049385939092829184019080838360208310612f675780518252601f199092019160209182019101612f48565b60408051600080516020613b368339815191526020808301919091528183018490527f6d656d6f0000000000000000000000000000000000000000000000000000000060608381019190915283518084038201815260809093019384905282519093600393600093909282918401908083835b602083106131675780518252601f199092019160209182019101613148565b6001836020036101000a0380198251168184511680821785525050505050509050019150506040518091039020600019166000191681526020019081526020016000208054600181600116156101000203166002900480601f01602080910402602001604051908101604052809291908181526020018280546001816001161561010002031660029004801561323e5780601f106132135761010080835404028352916020019161323e565b820191906000526020600020905b81548152906001019060200180831161322157829003601f168201915b50505050509050919050565b60008282018381101561325957fe5b9392505050565b6040805160d960020a6437bbb732b9028152815190819003600501902060009081526004602052205433600160a060020a039091161461329f57600080fd5b6132a761122f565b156132b157600080fd5b6115a2816137e6565b604080517f6e65787442616c6c6f74496400000000000000000000000000000000000000008152815190819003600c019020600090815260026020522055565b60408051600080516020613b168339815191528152815190819003600d0190206000908152600960205290812061333091613abd565b565b60408051600080516020613b168339815191528152815190819003600d01902060009081526009602090815291812080546001810182559082529190200155565b604080517f76616c696461746f7241637469766542616c6c6f747300000000000000000000602080830191909152600160a060020a0385168284015282518083038401815260609092019283905281518493600293600093909282918401908083836020831061247a5780518252601f19909201916020918201910161245b565b60008282111561340057fe5b50900390565b604080517f66696e616c697a6543616c6c6564000000000000000000000000000000000000602080830191909152818301849052825180830384018152606090920192839052815160009360069385939092829184019080838360208310612e905780518252601f199092019160209182019101612e71565b60008061348b83613043565b915061349682611897565b90506000811115612b0e57612b0e8260018303613373565b604080517f66696e616c697a6543616c6c65640000000000000000000000000000000000006020808301919091528183018490528251808303840181526060909201928390528151600193600693600093909282918401908083835b602083106135295780518252601f19909201916020918201910161350a565b51815160209384036101000a60001901801990921691161790526040805192909401829003909120865285019590955292909201600020805460ff19169415159490941790935550505050565b6000613580611321565b600160a060020a031663bb0165b161359784612fb1565b6135a085612ed4565b6040518363ffffffff1660e060020a0281526004018083815260200182600160a060020a0316600160a060020a0316815260200192505050602060405180830381600087803b1580156135f257600080fd5b505af1158015613606573d6000803e3d6000fd5b505050506040513d602081101561361c57600080fd5b505192915050565b600080600061363284611196565b9250600161363e610926565b03915061364a82610851565b905061365683826138d4565b6136608184612909565b61366b8260006138d4565b61367361391e565b50505050565b600061368361396a565b61368c83611897565b1092915050565b6000808686600080831180156136a95750600082115b15156136b457600080fd5b82821180156136c957506136c66108e0565b83115b15156136d457600080fd5b6136e4828463ffffffff6133f416565b90506136ee6105ac565b81116136f957600080fd5b613701611228565b81111561370d57600080fd5b61371561089c565b151561372057600080fd5b613728611856565b935061374361373e85600163ffffffff61324a16565b6132ba565b61374d848b6126c1565b613757848a612753565b61376284600061254e565b61376c8488612877565b61377d846137786139b1565b61262f565b613787848761299b565b6137918489612a2d565b60405133908c9086907fd1ba591c76ef71222e2d30b8277758713cc6eef1de29efaf98a716744ac2420b90600090a450919998505050505050505050565b6115a2816137e1600161152f85611897565b613373565b6040805160d960020a6437bbb732b9028152815190819003600501902060009081526004602052205433600160a060020a039091161461382557600080fd5b61382d61089c565b1561383757600080fd5b61383f611228565b811061384a57600080fd5b604080517f6d696e42616c6c6f744475726174696f6e00000000000000000000000000000081528151908190036011018120600090815260026020908152838220949094557f696e697444697361626c656400000000000000000000000000000000000000008252825191829003600c01909120815260069092529020805460ff19166001179055565b60408051600080516020613b168339815191528152815190819003600d019020600090815260096020522080548291908490811061390e57fe5b6000918252602090912001555050565b6000613928610926565b11156133305760408051600080516020613b168339815191528152815190819003600d01902060009081526009602052208054906115a2906000198301613adb565b60006139746139f8565b600160a060020a031663fcff021c6040518163ffffffff1660e060020a028152600401602060405180830381600087803b158015611f6157600080fd5b60006139bb6139f8565b600160a060020a031663eecd10796040518163ffffffff1660e060020a028152600401602060405180830381600087803b158015611f6157600080fd5b6000613a02611321565b600160a060020a03166336ee77736040518163ffffffff1660e060020a028152600401602060405180830381600087803b158015611f6157600080fd5b828054600181600116156101000203166002900490600052602060002090601f016020900481019282601f10613a8057805160ff1916838001178555613aad565b82800160010185558215613aad579182015b82811115613aad578251825591602001919060010190613a92565b50613ab9929150613afb565b5090565b50805460008255906000526020600020908101906115a29190613afb565b815481835581811115612b0e57600083815260209020612b0e9181019083015b6105eb91905b80821115613ab95760008155600101613b01560061637469766542616c6c6f747300000000000000000000000000000000000000766f74696e675374617465000000000000000000000000000000000000000000a165627a7a72305820940f306216c088ae32dd70635f3d0144b9f96c84f200b75d74e223a57c1c101a0029",
  "source": "pragma solidity ^0.4.24;\n\nimport \"./interfaces/IProxyStorage.sol\";\nimport \"./interfaces/IVotingToChangeProxyAddressPrev.sol\";\nimport \"./abstracts/VotingToChange.sol\";\n\n\ncontract VotingToChangeProxyAddress is VotingToChange {\n    bytes32 internal constant CONTRACT_TYPE = \"contractType\";\n    bytes32 internal constant PROPOSED_VALUE = \"proposedValue\";\n\n    function createBallot(\n        uint256 _startTime,\n        uint256 _endTime,\n        uint256 _contractType,\n        string _memo,\n        address _proposedValue\n    ) public {\n        require(_proposedValue != address(0));\n        uint256 ballotId = super._createBallot(\n            uint256(BallotTypes.ProxyAddress),\n            _startTime,\n            _endTime,\n            _memo\n        );\n        _setProposedValue(ballotId, _proposedValue);\n        _setContractType(ballotId, _contractType);\n    }\n\n    function getBallotInfo(uint256 _id, address _votingKey) public view returns(\n        uint256 startTime,\n        uint256 endTime,\n        uint256 totalVoters,\n        int256 progress,\n        bool isFinalized,\n        address proposedValue,\n        uint256 contractType,\n        address creator,\n        string memo,\n        bool canBeFinalizedNow,\n        bool alreadyVoted\n    ) {\n        startTime = _getStartTime(_id);\n        endTime = _getEndTime(_id);\n        totalVoters = _getTotalVoters(_id);\n        progress = _getProgress(_id);\n        isFinalized = _getIsFinalized(_id);\n        proposedValue = _getProposedValue(_id);\n        contractType = _getContractType(_id);\n        creator = _getCreator(_id);\n        memo = _getMemo(_id);\n        canBeFinalizedNow = _canBeFinalizedNow(_id);\n        alreadyVoted = hasAlreadyVoted(_id, _votingKey);\n    }\n\n    function init(uint256 _minBallotDuration) public {\n        _init(_minBallotDuration);\n    }\n\n    function migrateBasicOne(\n        uint256 _id,\n        address _prevVotingToChange,\n        address[] _voters\n    ) public onlyOwner {\n        require(_prevVotingToChange != address(0));\n        require(initDisabled());\n        require(!migrateDisabled());\n        IVotingToChangeProxyAddressPrev prev =\n            IVotingToChangeProxyAddressPrev(_prevVotingToChange);\n        require(prev.getTotalVoters(_id) == _voters.length);\n\n        uint256 endTime = prev.getEndTime(_id);\n\n        _setTotalVoters(_id, _voters.length);\n        _setIsFinalized(_id, prev.getIsFinalized(_id));\n        _setMinThresholdOfVoters(_id, prev.getMinThresholdOfVoters(_id));\n        _setStartTime(_id, prev.getStartTime(_id));\n        _setEndTime(_id, endTime);\n\n        // solhint-disable indent\n        (\n            , , ,\n            int progress, ,\n            uint8 quorumState,\n            uint256 index, , , ,\n            address creator,\n            string memory memo\n        ) = prev.votingState(_id);\n        // solhint-enable indent\n        _setProgress(_id, progress);\n        _setQuorumState(_id, quorumState);\n        _setIndex(_id, index);\n        _setCreator(_id, creator);\n        _setMemo(_id, memo);\n        \n        _setProposedValue(_id, prev.getProposedValue(_id));\n        _setContractType(_id, prev.getContractType(_id));\n\n        IKeysManager prevKeysManager = IKeysManager(prev.getKeysManager());\n        for (uint256 i = 0; i < _voters.length; i++) {\n            if (getTime() <= endTime) {\n                require(prev.hasAlreadyVoted(_id, prevKeysManager.getVotingByMining(_voters[i])));\n            }\n            _votersAdd(_id, _voters[i]);\n        }\n    }\n\n    function _finalizeBallotInner(uint256 _id) internal returns(bool) {\n        return IProxyStorage(proxyStorage()).setContractAddress(\n            _getContractType(_id),\n            _getProposedValue(_id)\n        );\n    }\n\n    function _getContractType(uint256 _id) internal view returns(uint256) {\n        return uintStorage[\n            keccak256(abi.encode(VOTING_STATE, _id, CONTRACT_TYPE))\n        ];\n    }\n\n    function _getGlobalMinThresholdOfVoters() internal view returns(uint256) {\n        return _getBallotsStorage().getProxyThreshold();\n    }\n\n    function _getProposedValue(uint256 _id) internal view returns(address) {\n        return addressStorage[\n            keccak256(abi.encode(VOTING_STATE, _id, PROPOSED_VALUE))\n        ];\n    }\n\n    function _setContractType(uint256 _ballotId, uint256 _value) private {\n        uintStorage[\n            keccak256(abi.encode(VOTING_STATE, _ballotId, CONTRACT_TYPE))\n        ] = _value;\n    }\n\n    function _setProposedValue(uint256 _ballotId, address _value) private {\n        addressStorage[\n            keccak256(abi.encode(VOTING_STATE, _ballotId, PROPOSED_VALUE))\n        ] = _value;\n    }\n\n}\n",
  "sourcePath": "/Users/gabrielfournier1/Documents/POA_Network/building-network-open-eth/poco-deployement-rebase/repo-deployement-github-etc/poa-network-consensus-contracts/contracts/VotingToChangeProxyAddress.sol",
  "compiler": {
    "name": "solc",
    "version": "0.4.26+commit.4563c3fc.Emscripten.clang"
  },
  "schemaVersion": "2.0.3",
  "updatedAt": "2022-06-10T07:17:16.176Z"
}